{
  "_format": "hh-sol-artifact-1",
  "contractName": "RewardNFT",
  "sourceName": "contracts/RewardNFT.sol",
  "abi": [
    {
      "inputs": [],
      "stateMutability": "nonpayable",
      "type": "constructor"
    },
    {
      "inputs": [
        {
          "internalType": "address",
          "name": "sender",
          "type": "address"
        },
        {
          "internalType": "uint256",
          "name": "tokenId",
          "type": "uint256"
        },
        {
          "internalType": "address",
          "name": "owner",
          "type": "address"
        }
      ],
      "name": "ERC721IncorrectOwner",
      "type": "error"
    },
    {
      "inputs": [
        {
          "internalType": "address",
          "name": "operator",
          "type": "address"
        },
        {
          "internalType": "uint256",
          "name": "tokenId",
          "type": "uint256"
        }
      ],
      "name": "ERC721InsufficientApproval",
      "type": "error"
    },
    {
      "inputs": [
        {
          "internalType": "address",
          "name": "approver",
          "type": "address"
        }
      ],
      "name": "ERC721InvalidApprover",
      "type": "error"
    },
    {
      "inputs": [
        {
          "internalType": "address",
          "name": "operator",
          "type": "address"
        }
      ],
      "name": "ERC721InvalidOperator",
      "type": "error"
    },
    {
      "inputs": [
        {
          "internalType": "address",
          "name": "owner",
          "type": "address"
        }
      ],
      "name": "ERC721InvalidOwner",
      "type": "error"
    },
    {
      "inputs": [
        {
          "internalType": "address",
          "name": "receiver",
          "type": "address"
        }
      ],
      "name": "ERC721InvalidReceiver",
      "type": "error"
    },
    {
      "inputs": [
        {
          "internalType": "address",
          "name": "sender",
          "type": "address"
        }
      ],
      "name": "ERC721InvalidSender",
      "type": "error"
    },
    {
      "inputs": [
        {
          "internalType": "uint256",
          "name": "tokenId",
          "type": "uint256"
        }
      ],
      "name": "ERC721NonexistentToken",
      "type": "error"
    },
    {
      "inputs": [
        {
          "internalType": "address",
          "name": "owner",
          "type": "address"
        }
      ],
      "name": "OwnableInvalidOwner",
      "type": "error"
    },
    {
      "inputs": [
        {
          "internalType": "address",
          "name": "account",
          "type": "address"
        }
      ],
      "name": "OwnableUnauthorizedAccount",
      "type": "error"
    },
    {
      "anonymous": false,
      "inputs": [
        {
          "indexed": true,
          "internalType": "address",
          "name": "owner",
          "type": "address"
        },
        {
          "indexed": true,
          "internalType": "address",
          "name": "approved",
          "type": "address"
        },
        {
          "indexed": true,
          "internalType": "uint256",
          "name": "tokenId",
          "type": "uint256"
        }
      ],
      "name": "Approval",
      "type": "event"
    },
    {
      "anonymous": false,
      "inputs": [
        {
          "indexed": true,
          "internalType": "address",
          "name": "owner",
          "type": "address"
        },
        {
          "indexed": true,
          "internalType": "address",
          "name": "operator",
          "type": "address"
        },
        {
          "indexed": false,
          "internalType": "bool",
          "name": "approved",
          "type": "bool"
        }
      ],
      "name": "ApprovalForAll",
      "type": "event"
    },
    {
      "anonymous": false,
      "inputs": [
        {
          "indexed": true,
          "internalType": "address",
          "name": "previousOwner",
          "type": "address"
        },
        {
          "indexed": true,
          "internalType": "address",
          "name": "newOwner",
          "type": "address"
        }
      ],
      "name": "OwnershipTransferred",
      "type": "event"
    },
    {
      "anonymous": false,
      "inputs": [
        {
          "indexed": true,
          "internalType": "address",
          "name": "to",
          "type": "address"
        },
        {
          "indexed": true,
          "internalType": "uint256",
          "name": "tokenId",
          "type": "uint256"
        },
        {
          "indexed": false,
          "internalType": "enum RewardNFT.RewardType",
          "name": "rewardType",
          "type": "uint8"
        },
        {
          "indexed": false,
          "internalType": "string",
          "name": "name",
          "type": "string"
        }
      ],
      "name": "RewardMinted",
      "type": "event"
    },
    {
      "anonymous": false,
      "inputs": [
        {
          "indexed": true,
          "internalType": "address",
          "name": "from",
          "type": "address"
        },
        {
          "indexed": true,
          "internalType": "address",
          "name": "to",
          "type": "address"
        },
        {
          "indexed": true,
          "internalType": "uint256",
          "name": "tokenId",
          "type": "uint256"
        }
      ],
      "name": "Transfer",
      "type": "event"
    },
    {
      "inputs": [],
      "name": "MAX_INVENTORY",
      "outputs": [
        {
          "internalType": "uint256",
          "name": "",
          "type": "uint256"
        }
      ],
      "stateMutability": "view",
      "type": "function"
    },
    {
      "inputs": [
        {
          "internalType": "address",
          "name": "to",
          "type": "address"
        },
        {
          "internalType": "uint256",
          "name": "tokenId",
          "type": "uint256"
        }
      ],
      "name": "approve",
      "outputs": [],
      "stateMutability": "nonpayable",
      "type": "function"
    },
    {
      "inputs": [
        {
          "internalType": "address",
          "name": "owner",
          "type": "address"
        }
      ],
      "name": "balanceOf",
      "outputs": [
        {
          "internalType": "uint256",
          "name": "",
          "type": "uint256"
        }
      ],
      "stateMutability": "view",
      "type": "function"
    },
    {
      "inputs": [
        {
          "internalType": "address",
          "name": "user",
          "type": "address"
        }
      ],
      "name": "canReceiveReward",
      "outputs": [
        {
          "internalType": "bool",
          "name": "",
          "type": "bool"
        }
      ],
      "stateMutability": "view",
      "type": "function"
    },
    {
      "inputs": [
        {
          "internalType": "uint256",
          "name": "tokenId",
          "type": "uint256"
        }
      ],
      "name": "getApproved",
      "outputs": [
        {
          "internalType": "address",
          "name": "",
          "type": "address"
        }
      ],
      "stateMutability": "view",
      "type": "function"
    },
    {
      "inputs": [
        {
          "internalType": "address",
          "name": "user",
          "type": "address"
        }
      ],
      "name": "getInventoryCount",
      "outputs": [
        {
          "internalType": "uint256",
          "name": "",
          "type": "uint256"
        }
      ],
      "stateMutability": "view",
      "type": "function"
    },
    {
      "inputs": [
        {
          "internalType": "uint256",
          "name": "tokenId",
          "type": "uint256"
        }
      ],
      "name": "getTokenMetadata",
      "outputs": [
        {
          "components": [
            {
              "internalType": "string",
              "name": "name",
              "type": "string"
            },
            {
              "internalType": "enum RewardNFT.RewardType",
              "name": "rewardType",
              "type": "uint8"
            },
            {
              "internalType": "string",
              "name": "ipfsHash",
              "type": "string"
            },
            {
              "internalType": "address[]",
              "name": "previousOwners",
              "type": "address[]"
            },
            {
              "internalType": "uint256",
              "name": "createdAt",
              "type": "uint256"
            },
            {
              "internalType": "uint256",
              "name": "lastTransferAt",
              "type": "uint256"
            }
          ],
          "internalType": "struct RewardNFT.RewardMetadata",
          "name": "",
          "type": "tuple"
        }
      ],
      "stateMutability": "view",
      "type": "function"
    },
    {
      "inputs": [
        {
          "internalType": "address",
          "name": "owner",
          "type": "address"
        },
        {
          "internalType": "address",
          "name": "operator",
          "type": "address"
        }
      ],
      "name": "isApprovedForAll",
      "outputs": [
        {
          "internalType": "bool",
          "name": "",
          "type": "bool"
        }
      ],
      "stateMutability": "view",
      "type": "function"
    },
    {
      "inputs": [
        {
          "internalType": "address",
          "name": "to",
          "type": "address"
        },
        {
          "internalType": "string",
          "name": "name",
          "type": "string"
        },
        {
          "internalType": "enum RewardNFT.RewardType",
          "name": "rewardType",
          "type": "uint8"
        },
        {
          "internalType": "string",
          "name": "ipfsHash",
          "type": "string"
        }
      ],
      "name": "mintReward",
      "outputs": [
        {
          "internalType": "uint256",
          "name": "",
          "type": "uint256"
        }
      ],
      "stateMutability": "nonpayable",
      "type": "function"
    },
    {
      "inputs": [],
      "name": "name",
      "outputs": [
        {
          "internalType": "string",
          "name": "",
          "type": "string"
        }
      ],
      "stateMutability": "view",
      "type": "function"
    },
    {
      "inputs": [],
      "name": "owner",
      "outputs": [
        {
          "internalType": "address",
          "name": "",
          "type": "address"
        }
      ],
      "stateMutability": "view",
      "type": "function"
    },
    {
      "inputs": [
        {
          "internalType": "uint256",
          "name": "tokenId",
          "type": "uint256"
        }
      ],
      "name": "ownerOf",
      "outputs": [
        {
          "internalType": "address",
          "name": "",
          "type": "address"
        }
      ],
      "stateMutability": "view",
      "type": "function"
    },
    {
      "inputs": [],
      "name": "renounceOwnership",
      "outputs": [],
      "stateMutability": "nonpayable",
      "type": "function"
    },
    {
      "inputs": [
        {
          "internalType": "address",
          "name": "from",
          "type": "address"
        },
        {
          "internalType": "address",
          "name": "to",
          "type": "address"
        },
        {
          "internalType": "uint256",
          "name": "tokenId",
          "type": "uint256"
        }
      ],
      "name": "safeTransferFrom",
      "outputs": [],
      "stateMutability": "nonpayable",
      "type": "function"
    },
    {
      "inputs": [
        {
          "internalType": "address",
          "name": "from",
          "type": "address"
        },
        {
          "internalType": "address",
          "name": "to",
          "type": "address"
        },
        {
          "internalType": "uint256",
          "name": "tokenId",
          "type": "uint256"
        },
        {
          "internalType": "bytes",
          "name": "data",
          "type": "bytes"
        }
      ],
      "name": "safeTransferFrom",
      "outputs": [],
      "stateMutability": "nonpayable",
      "type": "function"
    },
    {
      "inputs": [
        {
          "internalType": "address",
          "name": "operator",
          "type": "address"
        },
        {
          "internalType": "bool",
          "name": "approved",
          "type": "bool"
        }
      ],
      "name": "setApprovalForAll",
      "outputs": [],
      "stateMutability": "nonpayable",
      "type": "function"
    },
    {
      "inputs": [
        {
          "internalType": "bytes4",
          "name": "interfaceId",
          "type": "bytes4"
        }
      ],
      "name": "supportsInterface",
      "outputs": [
        {
          "internalType": "bool",
          "name": "",
          "type": "bool"
        }
      ],
      "stateMutability": "view",
      "type": "function"
    },
    {
      "inputs": [],
      "name": "symbol",
      "outputs": [
        {
          "internalType": "string",
          "name": "",
          "type": "string"
        }
      ],
      "stateMutability": "view",
      "type": "function"
    },
    {
      "inputs": [
        {
          "internalType": "uint256",
          "name": "",
          "type": "uint256"
        }
      ],
      "name": "tokenMetadata",
      "outputs": [
        {
          "internalType": "string",
          "name": "name",
          "type": "string"
        },
        {
          "internalType": "enum RewardNFT.RewardType",
          "name": "rewardType",
          "type": "uint8"
        },
        {
          "internalType": "string",
          "name": "ipfsHash",
          "type": "string"
        },
        {
          "internalType": "uint256",
          "name": "createdAt",
          "type": "uint256"
        },
        {
          "internalType": "uint256",
          "name": "lastTransferAt",
          "type": "uint256"
        }
      ],
      "stateMutability": "view",
      "type": "function"
    },
    {
      "inputs": [
        {
          "internalType": "uint256",
          "name": "tokenId",
          "type": "uint256"
        }
      ],
      "name": "tokenURI",
      "outputs": [
        {
          "internalType": "string",
          "name": "",
          "type": "string"
        }
      ],
      "stateMutability": "view",
      "type": "function"
    },
    {
      "inputs": [
        {
          "internalType": "address",
          "name": "from",
          "type": "address"
        },
        {
          "internalType": "address",
          "name": "to",
          "type": "address"
        },
        {
          "internalType": "uint256",
          "name": "tokenId",
          "type": "uint256"
        }
      ],
      "name": "transferFrom",
      "outputs": [],
      "stateMutability": "nonpayable",
      "type": "function"
    },
    {
      "inputs": [
        {
          "internalType": "address",
          "name": "newOwner",
          "type": "address"
        }
      ],
      "name": "transferOwnership",
      "outputs": [],
      "stateMutability": "nonpayable",
      "type": "function"
    },
    {
      "inputs": [
        {
          "internalType": "address",
          "name": "",
          "type": "address"
        }
      ],
      "name": "userInventoryCount",
      "outputs": [
        {
          "internalType": "uint256",
          "name": "",
          "type": "uint256"
        }
      ],
      "stateMutability": "view",
      "type": "function"
    }
  ],
  "bytecode": "0x608060405234801561001057600080fd5b50336040518060400160405280600e81526020017f526f756c657474655265776172640000000000000000000000000000000000008152506040518060400160405280600681526020017f5245574152440000000000000000000000000000000000000000000000000000815250816000908161008d919061043d565b50806001908161009d919061043d565b505050600073ffffffffffffffffffffffffffffffffffffffff168173ffffffffffffffffffffffffffffffffffffffff16036101125760006040517f1e4fbdf70000000000000000000000000000000000000000000000000000000081526004016101099190610550565b60405180910390fd5b6101218161012760201b60201c565b5061056b565b6000600660009054906101000a900473ffffffffffffffffffffffffffffffffffffffff16905081600660006101000a81548173ffffffffffffffffffffffffffffffffffffffff021916908373ffffffffffffffffffffffffffffffffffffffff1602179055508173ffffffffffffffffffffffffffffffffffffffff168173ffffffffffffffffffffffffffffffffffffffff167f8be0079c531659141344cd1fd0a4f28419497f9722a3daafe3b4186f6b6457e060405160405180910390a35050565b600081519050919050565b7f4e487b7100000000000000000000000000000000000000000000000000000000600052604160045260246000fd5b7f4e487b7100000000000000000000000000000000000000000000000000000000600052602260045260246000fd5b6000600282049050600182168061026e57607f821691505b60208210810361028157610280610227565b5b50919050565b60008190508160005260206000209050919050565b60006020601f8301049050919050565b600082821b905092915050565b6000600883026102e97fffffffffffffffffffffffffffffffffffffffffffffffffffffffffffffffff826102ac565b6102f386836102ac565b95508019841693508086168417925050509392505050565b6000819050919050565b6000819050919050565b600061033a6103356103308461030b565b610315565b61030b565b9050919050565b6000819050919050565b6103548361031f565b61036861036082610341565b8484546102b9565b825550505050565b600090565b61037d610370565b61038881848461034b565b505050565b5b818110156103ac576103a1600082610375565b60018101905061038e565b5050565b601f8211156103f1576103c281610287565b6103cb8461029c565b810160208510156103da578190505b6103ee6103e68561029c565b83018261038d565b50505b505050565b600082821c905092915050565b6000610414600019846008026103f6565b1980831691505092915050565b600061042d8383610403565b9150826002028217905092915050565b610446826101ed565b67ffffffffffffffff81111561045f5761045e6101f8565b5b6104698254610256565b6104748282856103b0565b600060209050601f8311600181146104a75760008415610495578287015190505b61049f8582610421565b865550610507565b601f1984166104b586610287565b60005b828110156104dd578489015182556001820191506020850194506020810190506104b8565b868310156104fa57848901516104f6601f891682610403565b8355505b6001600288020188555050505b505050505050565b600073ffffffffffffffffffffffffffffffffffffffff82169050919050565b600061053a8261050f565b9050919050565b61054a8161052f565b82525050565b60006020820190506105656000830184610541565b92915050565b6134bf8061057a6000396000f3fe608060405234801561001057600080fd5b506004361061014d5760003560e01c80636914db60116100c3578063b416d46e1161007c578063b416d46e146103da578063b88d4fde146103f8578063c87b56dd14610414578063e7e1078914610444578063e985e9c514610474578063f2fde38b146104a45761014d565b80636914db601461031457806370a0823114610348578063715018a6146103785780638da5cb5b1461038257806395d89b41146103a0578063a22cb465146103be5761014d565b806323b872dd1161011557806323b872dd1461021c578063284a06871461023857806342842e0e146102685780634659fa461461028457806360316801146102b45780636352211e146102e45761014d565b806301ffc9a71461015257806306fdde0314610182578063081812fc146101a0578063095ea7b3146101d05780631b5e26bc146101ec575b600080fd5b61016c60048036038101906101679190612435565b6104c0565b604051610179919061247d565b60405180910390f35b61018a6105a2565b6040516101979190612528565b60405180910390f35b6101ba60048036038101906101b59190612580565b610634565b6040516101c791906125ee565b60405180910390f35b6101ea60048036038101906101e59190612635565b610650565b005b61020660048036038101906102019190612675565b610666565b604051610213919061247d565b60405180910390f35b610236600480360381019061023191906126a2565b6106b2565b005b610252600480360381019061024d9190612675565b6107b4565b60405161025f9190612704565b60405180910390f35b610282600480360381019061027d91906126a2565b6107cc565b005b61029e60048036038101906102999190612675565b6107ec565b6040516102ab9190612704565b60405180910390f35b6102ce60048036038101906102c99190612580565b610835565b6040516102db9190612944565b60405180910390f35b6102fe60048036038101906102f99190612580565b610ada565b60405161030b91906125ee565b60405180910390f35b61032e60048036038101906103299190612580565b610aec565b60405161033f959493929190612975565b60405180910390f35b610362600480360381019061035d9190612675565b610c3f565b60405161036f9190612704565b60405180910390f35b610380610cf9565b005b61038a610d0d565b60405161039791906125ee565b60405180910390f35b6103a8610d37565b6040516103b59190612528565b60405180910390f35b6103d860048036038101906103d39190612a02565b610dc9565b005b6103e2610ddf565b6040516103ef9190612704565b60405180910390f35b610412600480360381019061040d9190612b77565b610de4565b005b61042e60048036038101906104299190612580565b610e09565b60405161043b9190612528565b60405180910390f35b61045e60048036038101906104599190612cc0565b610e72565b60405161046b9190612704565b60405180910390f35b61048e60048036038101906104899190612d5f565b6110ab565b60405161049b919061247d565b60405180910390f35b6104be60048036038101906104b99190612675565b61113f565b005b60007f80ac58cd000000000000000000000000000000000000000000000000000000007bffffffffffffffffffffffffffffffffffffffffffffffffffffffff1916827bffffffffffffffffffffffffffffffffffffffffffffffffffffffff1916148061058b57507f5b5e139f000000000000000000000000000000000000000000000000000000007bffffffffffffffffffffffffffffffffffffffffffffffffffffffff1916827bffffffffffffffffffffffffffffffffffffffffffffffffffffffff1916145b8061059b575061059a826111c5565b5b9050919050565b6060600080546105b190612dce565b80601f01602080910402602001604051908101604052809291908181526020018280546105dd90612dce565b801561062a5780601f106105ff5761010080835404028352916020019161062a565b820191906000526020600020905b81548152906001019060200180831161060d57829003601f168201915b5050505050905090565b600061063f8261122f565b50610649826112b7565b9050919050565b610662828261065d6112f4565b6112fc565b5050565b60006014600960008473ffffffffffffffffffffffffffffffffffffffff1673ffffffffffffffffffffffffffffffffffffffff16815260200190815260200160002054109050919050565b600073ffffffffffffffffffffffffffffffffffffffff168273ffffffffffffffffffffffffffffffffffffffff16036107245760006040517f64a0ae9200000000000000000000000000000000000000000000000000000000815260040161071b91906125ee565b60405180910390fd5b600061073883836107336112f4565b61130e565b90508373ffffffffffffffffffffffffffffffffffffffff168173ffffffffffffffffffffffffffffffffffffffff16146107ae578382826040517f64283d7b0000000000000000000000000000000000000000000000000000000081526004016107a593929190612dff565b60405180910390fd5b50505050565b60096020528060005260406000206000915090505481565b6107e783838360405180602001604052806000815250610de4565b505050565b6000600960008373ffffffffffffffffffffffffffffffffffffffff1673ffffffffffffffffffffffffffffffffffffffff168152602001908152602001600020549050919050565b61083d6122da565b600073ffffffffffffffffffffffffffffffffffffffff1661085e83611559565b73ffffffffffffffffffffffffffffffffffffffff16036108b4576040517f08c379a00000000000000000000000000000000000000000000000000000000081526004016108ab90612e82565b60405180910390fd5b600860008381526020019081526020016000206040518060c00160405290816000820180546108e290612dce565b80601f016020809104026020016040519081016040528092919081815260200182805461090e90612dce565b801561095b5780601f106109305761010080835404028352916020019161095b565b820191906000526020600020905b81548152906001019060200180831161093e57829003601f168201915b505050505081526020016001820160009054906101000a900460ff16600381111561098957610988612769565b5b600381111561099b5761099a612769565b5b81526020016002820180546109af90612dce565b80601f01602080910402602001604051908101604052809291908181526020018280546109db90612dce565b8015610a285780601f106109fd57610100808354040283529160200191610a28565b820191906000526020600020905b815481529060010190602001808311610a0b57829003601f168201915b5050505050815260200160038201805480602002602001604051908101604052809291908181526020018280548015610ab657602002820191906000526020600020905b8160009054906101000a900473ffffffffffffffffffffffffffffffffffffffff1673ffffffffffffffffffffffffffffffffffffffff1681526020019060010190808311610a6c575b50505050508152602001600482015481526020016005820154815250509050919050565b6000610ae58261122f565b9050919050565b6008602052806000526040600020600091509050806000018054610b0f90612dce565b80601f0160208091040260200160405190810160405280929190818152602001828054610b3b90612dce565b8015610b885780601f10610b5d57610100808354040283529160200191610b88565b820191906000526020600020905b815481529060010190602001808311610b6b57829003601f168201915b5050505050908060010160009054906101000a900460ff1690806002018054610bb090612dce565b80601f0160208091040260200160405190810160405280929190818152602001828054610bdc90612dce565b8015610c295780601f10610bfe57610100808354040283529160200191610c29565b820191906000526020600020905b815481529060010190602001808311610c0c57829003601f168201915b5050505050908060040154908060050154905085565b60008073ffffffffffffffffffffffffffffffffffffffff168273ffffffffffffffffffffffffffffffffffffffff1603610cb25760006040517f89c62b64000000000000000000000000000000000000000000000000000000008152600401610ca991906125ee565b60405180910390fd5b600360008373ffffffffffffffffffffffffffffffffffffffff1673ffffffffffffffffffffffffffffffffffffffff168152602001908152602001600020549050919050565b610d01611596565b610d0b600061161d565b565b6000600660009054906101000a900473ffffffffffffffffffffffffffffffffffffffff16905090565b606060018054610d4690612dce565b80601f0160208091040260200160405190810160405280929190818152602001828054610d7290612dce565b8015610dbf5780601f10610d9457610100808354040283529160200191610dbf565b820191906000526020600020905b815481529060010190602001808311610da257829003601f168201915b5050505050905090565b610ddb610dd46112f4565b83836116e3565b5050565b601481565b610def8484846106b2565b610e03610dfa6112f4565b85858585611852565b50505050565b6060610e148261122f565b506000610e1f611a03565b90506000815111610e3f5760405180602001604052806000815250610e6a565b80610e4984611a1a565b604051602001610e5a929190612ede565b6040516020818303038152906040525b915050919050565b6000610e7c611596565b6014600960008773ffffffffffffffffffffffffffffffffffffffff1673ffffffffffffffffffffffffffffffffffffffff1681526020019081526020016000205410610efe576040517f08c379a0000000000000000000000000000000000000000000000000000000008152600401610ef590612f74565b60405180910390fd5b600060076000815480929190610f1390612fc3565b9190505590506040518060c00160405280868152602001856003811115610f3d57610f3c612769565b5b8152602001848152602001600067ffffffffffffffff811115610f6357610f62612a4c565b5b604051908082528060200260200182016040528015610f915781602001602082028036833780820191505090505b50815260200142815260200142815250600860008381526020019081526020016000206000820151816000019081610fc991906131b7565b5060208201518160010160006101000a81548160ff02191690836003811115610ff557610ff4612769565b5b0217905550604082015181600201908161100f91906131b7565b50606082015181600301908051906020019061102c929190612322565b506080820151816004015560a0820151816005015590505061104e8682611ae8565b808673ffffffffffffffffffffffffffffffffffffffff167f6c8fbfb8afa4631cf289cbb0f11ebcfd81c518cde12c47d2ac654440ff49bb768688604051611097929190613289565b60405180910390a380915050949350505050565b6000600560008473ffffffffffffffffffffffffffffffffffffffff1673ffffffffffffffffffffffffffffffffffffffff16815260200190815260200160002060008373ffffffffffffffffffffffffffffffffffffffff1673ffffffffffffffffffffffffffffffffffffffff16815260200190815260200160002060009054906101000a900460ff16905092915050565b611147611596565b600073ffffffffffffffffffffffffffffffffffffffff168173ffffffffffffffffffffffffffffffffffffffff16036111b95760006040517f1e4fbdf70000000000000000000000000000000000000000000000000000000081526004016111b091906125ee565b60405180910390fd5b6111c28161161d565b50565b60007f01ffc9a7000000000000000000000000000000000000000000000000000000007bffffffffffffffffffffffffffffffffffffffffffffffffffffffff1916827bffffffffffffffffffffffffffffffffffffffffffffffffffffffff1916149050919050565b60008061123b83611559565b9050600073ffffffffffffffffffffffffffffffffffffffff168173ffffffffffffffffffffffffffffffffffffffff16036112ae57826040517f7e2732890000000000000000000000000000000000000000000000000000000081526004016112a59190612704565b60405180910390fd5b80915050919050565b60006004600083815260200190815260200160002060009054906101000a900473ffffffffffffffffffffffffffffffffffffffff169050919050565b600033905090565b6113098383836001611b06565b505050565b60008061131a84611559565b9050600073ffffffffffffffffffffffffffffffffffffffff168173ffffffffffffffffffffffffffffffffffffffff161461143857600960008273ffffffffffffffffffffffffffffffffffffffff1673ffffffffffffffffffffffffffffffffffffffff16815260200190815260200160002060008154809291906113a0906132b9565b919050555060086000858152602001908152602001600020600301819080600181540180825580915050600190039060005260206000200160009091909190916101000a81548173ffffffffffffffffffffffffffffffffffffffff021916908373ffffffffffffffffffffffffffffffffffffffff1602179055504260086000868152602001908152602001600020600501819055505b600073ffffffffffffffffffffffffffffffffffffffff168573ffffffffffffffffffffffffffffffffffffffff1614611544576014600960008773ffffffffffffffffffffffffffffffffffffffff1673ffffffffffffffffffffffffffffffffffffffff16815260200190815260200160002054106114ee576040517f08c379a00000000000000000000000000000000000000000000000000000000081526004016114e59061332e565b60405180910390fd5b600960008673ffffffffffffffffffffffffffffffffffffffff1673ffffffffffffffffffffffffffffffffffffffff168152602001908152602001600020600081548092919061153e90612fc3565b91905055505b61154f858585611ccb565b9150509392505050565b60006002600083815260200190815260200160002060009054906101000a900473ffffffffffffffffffffffffffffffffffffffff169050919050565b61159e6112f4565b73ffffffffffffffffffffffffffffffffffffffff166115bc610d0d565b73ffffffffffffffffffffffffffffffffffffffff161461161b576115df6112f4565b6040517f118cdaa700000000000000000000000000000000000000000000000000000000815260040161161291906125ee565b60405180910390fd5b565b6000600660009054906101000a900473ffffffffffffffffffffffffffffffffffffffff16905081600660006101000a81548173ffffffffffffffffffffffffffffffffffffffff021916908373ffffffffffffffffffffffffffffffffffffffff1602179055508173ffffffffffffffffffffffffffffffffffffffff168173ffffffffffffffffffffffffffffffffffffffff167f8be0079c531659141344cd1fd0a4f28419497f9722a3daafe3b4186f6b6457e060405160405180910390a35050565b600073ffffffffffffffffffffffffffffffffffffffff168273ffffffffffffffffffffffffffffffffffffffff160361175457816040517f5b08ba1800000000000000000000000000000000000000000000000000000000815260040161174b91906125ee565b60405180910390fd5b80600560008573ffffffffffffffffffffffffffffffffffffffff1673ffffffffffffffffffffffffffffffffffffffff16815260200190815260200160002060008473ffffffffffffffffffffffffffffffffffffffff1673ffffffffffffffffffffffffffffffffffffffff16815260200190815260200160002060006101000a81548160ff0219169083151502179055508173ffffffffffffffffffffffffffffffffffffffff168373ffffffffffffffffffffffffffffffffffffffff167f17307eab39ab6107e8899845ad3d59bd9653f200f220920489ca2b5937696c3183604051611845919061247d565b60405180910390a3505050565b60008373ffffffffffffffffffffffffffffffffffffffff163b11156119fc578273ffffffffffffffffffffffffffffffffffffffff1663150b7a02868685856040518563ffffffff1660e01b81526004016118b194939291906133a3565b6020604051808303816000875af19250505080156118ed57506040513d601f19601f820116820180604052508101906118ea9190613404565b60015b611971573d806000811461191d576040519150601f19603f3d011682016040523d82523d6000602084013e611922565b606091505b50600081510361196957836040517f64a0ae9200000000000000000000000000000000000000000000000000000000815260040161196091906125ee565b60405180910390fd5b805160208201fd5b63150b7a0260e01b7bffffffffffffffffffffffffffffffffffffffffffffffffffffffff1916817bffffffffffffffffffffffffffffffffffffffffffffffffffffffff1916146119fa57836040517f64a0ae920000000000000000000000000000000000000000000000000000000081526004016119f191906125ee565b60405180910390fd5b505b5050505050565b606060405180602001604052806000815250905090565b606060006001611a2984611ee5565b01905060008167ffffffffffffffff811115611a4857611a47612a4c565b5b6040519080825280601f01601f191660200182016040528015611a7a5781602001600182028036833780820191505090505b509050600082602083010190505b600115611add578080600190039150507f3031323334353637383961626364656600000000000000000000000000000000600a86061a8153600a8581611ad157611ad0613431565b5b04945060008503611a88575b819350505050919050565b611b02828260405180602001604052806000815250612038565b5050565b8080611b3f5750600073ffffffffffffffffffffffffffffffffffffffff168273ffffffffffffffffffffffffffffffffffffffff1614155b15611c73576000611b4f8461122f565b9050600073ffffffffffffffffffffffffffffffffffffffff168373ffffffffffffffffffffffffffffffffffffffff1614158015611bba57508273ffffffffffffffffffffffffffffffffffffffff168173ffffffffffffffffffffffffffffffffffffffff1614155b8015611bcd5750611bcb81846110ab565b155b15611c0f57826040517fa9fbf51f000000000000000000000000000000000000000000000000000000008152600401611c0691906125ee565b60405180910390fd5b8115611c7157838573ffffffffffffffffffffffffffffffffffffffff168273ffffffffffffffffffffffffffffffffffffffff167f8c5be1e5ebec7d5bd14f71427d1e84f3dd0314c0f7b2291e5b200ac8c7c3b92560405160405180910390a45b505b836004600085815260200190815260200160002060006101000a81548173ffffffffffffffffffffffffffffffffffffffff021916908373ffffffffffffffffffffffffffffffffffffffff16021790555050505050565b600080611cd784611559565b9050600073ffffffffffffffffffffffffffffffffffffffff168373ffffffffffffffffffffffffffffffffffffffff1614611d1957611d1881848661205c565b5b600073ffffffffffffffffffffffffffffffffffffffff168173ffffffffffffffffffffffffffffffffffffffff1614611daa57611d5b600085600080611b06565b6001600360008373ffffffffffffffffffffffffffffffffffffffff1673ffffffffffffffffffffffffffffffffffffffff168152602001908152602001600020600082825403925050819055505b600073ffffffffffffffffffffffffffffffffffffffff168573ffffffffffffffffffffffffffffffffffffffff1614611e2d576001600360008773ffffffffffffffffffffffffffffffffffffffff1673ffffffffffffffffffffffffffffffffffffffff168152602001908152602001600020600082825401925050819055505b846002600086815260200190815260200160002060006101000a81548173ffffffffffffffffffffffffffffffffffffffff021916908373ffffffffffffffffffffffffffffffffffffffff160217905550838573ffffffffffffffffffffffffffffffffffffffff168273ffffffffffffffffffffffffffffffffffffffff167fddf252ad1be2c89b69c2b068fc378daa952ba7f163c4a11628f55a4df523b3ef60405160405180910390a4809150509392505050565b600080600090507a184f03e93ff9f4daa797ed6e38ed64bf6a1f0100000000000000008310611f43577a184f03e93ff9f4daa797ed6e38ed64bf6a1f0100000000000000008381611f3957611f38613431565b5b0492506040810190505b6d04ee2d6d415b85acef81000000008310611f80576d04ee2d6d415b85acef81000000008381611f7657611f75613431565b5b0492506020810190505b662386f26fc100008310611faf57662386f26fc100008381611fa557611fa4613431565b5b0492506010810190505b6305f5e1008310611fd8576305f5e1008381611fce57611fcd613431565b5b0492506008810190505b6127108310611ffd576127108381611ff357611ff2613431565b5b0492506004810190505b60648310612020576064838161201657612015613431565b5b0492506002810190505b600a831061202f576001810190505b80915050919050565b6120428383612120565b61205761204d6112f4565b6000858585611852565b505050565b612067838383612219565b61211b57600073ffffffffffffffffffffffffffffffffffffffff168373ffffffffffffffffffffffffffffffffffffffff16036120dc57806040517f7e2732890000000000000000000000000000000000000000000000000000000081526004016120d39190612704565b60405180910390fd5b81816040517f177e802f000000000000000000000000000000000000000000000000000000008152600401612112929190613460565b60405180910390fd5b505050565b600073ffffffffffffffffffffffffffffffffffffffff168273ffffffffffffffffffffffffffffffffffffffff16036121925760006040517f64a0ae9200000000000000000000000000000000000000000000000000000000815260040161218991906125ee565b60405180910390fd5b60006121a08383600061130e565b9050600073ffffffffffffffffffffffffffffffffffffffff168173ffffffffffffffffffffffffffffffffffffffff16146122145760006040517f73c6ac6e00000000000000000000000000000000000000000000000000000000815260040161220b91906125ee565b60405180910390fd5b505050565b60008073ffffffffffffffffffffffffffffffffffffffff168373ffffffffffffffffffffffffffffffffffffffff16141580156122d157508273ffffffffffffffffffffffffffffffffffffffff168473ffffffffffffffffffffffffffffffffffffffff161480612292575061229184846110ab565b5b806122d057508273ffffffffffffffffffffffffffffffffffffffff166122b8836112b7565b73ffffffffffffffffffffffffffffffffffffffff16145b5b90509392505050565b6040518060c001604052806060815260200160006003811115612300576122ff612769565b5b8152602001606081526020016060815260200160008152602001600081525090565b82805482825590600052602060002090810192821561239b579160200282015b8281111561239a5782518260006101000a81548173ffffffffffffffffffffffffffffffffffffffff021916908373ffffffffffffffffffffffffffffffffffffffff16021790555091602001919060010190612342565b5b5090506123a891906123ac565b5090565b5b808211156123c55760008160009055506001016123ad565b5090565b6000604051905090565b600080fd5b600080fd5b60007fffffffff0000000000000000000000000000000000000000000000000000000082169050919050565b612412816123dd565b811461241d57600080fd5b50565b60008135905061242f81612409565b92915050565b60006020828403121561244b5761244a6123d3565b5b600061245984828501612420565b91505092915050565b60008115159050919050565b61247781612462565b82525050565b6000602082019050612492600083018461246e565b92915050565b600081519050919050565b600082825260208201905092915050565b60005b838110156124d25780820151818401526020810190506124b7565b60008484015250505050565b6000601f19601f8301169050919050565b60006124fa82612498565b61250481856124a3565b93506125148185602086016124b4565b61251d816124de565b840191505092915050565b6000602082019050818103600083015261254281846124ef565b905092915050565b6000819050919050565b61255d8161254a565b811461256857600080fd5b50565b60008135905061257a81612554565b92915050565b600060208284031215612596576125956123d3565b5b60006125a48482850161256b565b91505092915050565b600073ffffffffffffffffffffffffffffffffffffffff82169050919050565b60006125d8826125ad565b9050919050565b6125e8816125cd565b82525050565b600060208201905061260360008301846125df565b92915050565b612612816125cd565b811461261d57600080fd5b50565b60008135905061262f81612609565b92915050565b6000806040838503121561264c5761264b6123d3565b5b600061265a85828601612620565b925050602061266b8582860161256b565b9150509250929050565b60006020828403121561268b5761268a6123d3565b5b600061269984828501612620565b91505092915050565b6000806000606084860312156126bb576126ba6123d3565b5b60006126c986828701612620565b93505060206126da86828701612620565b92505060406126eb8682870161256b565b9150509250925092565b6126fe8161254a565b82525050565b600060208201905061271960008301846126f5565b92915050565b600082825260208201905092915050565b600061273b82612498565b612745818561271f565b93506127558185602086016124b4565b61275e816124de565b840191505092915050565b7f4e487b7100000000000000000000000000000000000000000000000000000000600052602160045260246000fd5b600481106127a9576127a8612769565b5b50565b60008190506127ba82612798565b919050565b60006127ca826127ac565b9050919050565b6127da816127bf565b82525050565b600081519050919050565b600082825260208201905092915050565b6000819050602082019050919050565b612815816125cd565b82525050565b6000612827838361280c565b60208301905092915050565b6000602082019050919050565b600061284b826127e0565b61285581856127eb565b9350612860836127fc565b8060005b83811015612891578151612878888261281b565b975061288383612833565b925050600181019050612864565b5085935050505092915050565b6128a78161254a565b82525050565b600060c08301600083015184820360008601526128ca8282612730565b91505060208301516128df60208601826127d1565b50604083015184820360408601526128f78282612730565b915050606083015184820360608601526129118282612840565b9150506080830151612926608086018261289e565b5060a083015161293960a086018261289e565b508091505092915050565b6000602082019050818103600083015261295e81846128ad565b905092915050565b61296f816127bf565b82525050565b600060a082019050818103600083015261298f81886124ef565b905061299e6020830187612966565b81810360408301526129b081866124ef565b90506129bf60608301856126f5565b6129cc60808301846126f5565b9695505050505050565b6129df81612462565b81146129ea57600080fd5b50565b6000813590506129fc816129d6565b92915050565b60008060408385031215612a1957612a186123d3565b5b6000612a2785828601612620565b9250506020612a38858286016129ed565b9150509250929050565b600080fd5b600080fd5b7f4e487b7100000000000000000000000000000000000000000000000000000000600052604160045260246000fd5b612a84826124de565b810181811067ffffffffffffffff82111715612aa357612aa2612a4c565b5b80604052505050565b6000612ab66123c9565b9050612ac28282612a7b565b919050565b600067ffffffffffffffff821115612ae257612ae1612a4c565b5b612aeb826124de565b9050602081019050919050565b82818337600083830152505050565b6000612b1a612b1584612ac7565b612aac565b905082815260208101848484011115612b3657612b35612a47565b5b612b41848285612af8565b509392505050565b600082601f830112612b5e57612b5d612a42565b5b8135612b6e848260208601612b07565b91505092915050565b60008060008060808587031215612b9157612b906123d3565b5b6000612b9f87828801612620565b9450506020612bb087828801612620565b9350506040612bc18782880161256b565b925050606085013567ffffffffffffffff811115612be257612be16123d8565b5b612bee87828801612b49565b91505092959194509250565b600067ffffffffffffffff821115612c1557612c14612a4c565b5b612c1e826124de565b9050602081019050919050565b6000612c3e612c3984612bfa565b612aac565b905082815260208101848484011115612c5a57612c59612a47565b5b612c65848285612af8565b509392505050565b600082601f830112612c8257612c81612a42565b5b8135612c92848260208601612c2b565b91505092915050565b60048110612ca857600080fd5b50565b600081359050612cba81612c9b565b92915050565b60008060008060808587031215612cda57612cd96123d3565b5b6000612ce887828801612620565b945050602085013567ffffffffffffffff811115612d0957612d086123d8565b5b612d1587828801612c6d565b9350506040612d2687828801612cab565b925050606085013567ffffffffffffffff811115612d4757612d466123d8565b5b612d5387828801612c6d565b91505092959194509250565b60008060408385031215612d7657612d756123d3565b5b6000612d8485828601612620565b9250506020612d9585828601612620565b9150509250929050565b7f4e487b7100000000000000000000000000000000000000000000000000000000600052602260045260246000fd5b60006002820490506001821680612de657607f821691505b602082108103612df957612df8612d9f565b5b50919050565b6000606082019050612e1460008301866125df565b612e2160208301856126f5565b612e2e60408301846125df565b949350505050565b7f546f6b656e20646f6573206e6f74206578697374000000000000000000000000600082015250565b6000612e6c6014836124a3565b9150612e7782612e36565b602082019050919050565b60006020820190508181036000830152612e9b81612e5f565b9050919050565b600081905092915050565b6000612eb882612498565b612ec28185612ea2565b9350612ed28185602086016124b4565b80840191505092915050565b6000612eea8285612ead565b9150612ef68284612ead565b91508190509392505050565b7f496e76656e746f72792069732066756c6c20286d61782032302072657761726460008201527f7329000000000000000000000000000000000000000000000000000000000000602082015250565b6000612f5e6022836124a3565b9150612f6982612f02565b604082019050919050565b60006020820190508181036000830152612f8d81612f51565b9050919050565b7f4e487b7100000000000000000000000000000000000000000000000000000000600052601160045260246000fd5b6000612fce8261254a565b91507fffffffffffffffffffffffffffffffffffffffffffffffffffffffffffffffff820361300057612fff612f94565b5b600182019050919050565b60008190508160005260206000209050919050565b60006020601f8301049050919050565b600082821b905092915050565b60006008830261306d7fffffffffffffffffffffffffffffffffffffffffffffffffffffffffffffffff82613030565b6130778683613030565b95508019841693508086168417925050509392505050565b6000819050919050565b60006130b46130af6130aa8461254a565b61308f565b61254a565b9050919050565b6000819050919050565b6130ce83613099565b6130e26130da826130bb565b84845461303d565b825550505050565b600090565b6130f76130ea565b6131028184846130c5565b505050565b5b818110156131265761311b6000826130ef565b600181019050613108565b5050565b601f82111561316b5761313c8161300b565b61314584613020565b81016020851015613154578190505b61316861316085613020565b830182613107565b50505b505050565b600082821c905092915050565b600061318e60001984600802613170565b1980831691505092915050565b60006131a7838361317d565b9150826002028217905092915050565b6131c082612498565b67ffffffffffffffff8111156131d9576131d8612a4c565b5b6131e38254612dce565b6131ee82828561312a565b600060209050601f831160018114613221576000841561320f578287015190505b613219858261319b565b865550613281565b601f19841661322f8661300b565b60005b8281101561325757848901518255600182019150602085019450602081019050613232565b868310156132745784890151613270601f89168261317d565b8355505b6001600288020188555050505b505050505050565b600060408201905061329e6000830185612966565b81810360208301526132b081846124ef565b90509392505050565b60006132c48261254a565b9150600082036132d7576132d6612f94565b5b600182039050919050565b7f526563697069656e7420696e76656e746f72792069732066756c6c0000000000600082015250565b6000613318601b836124a3565b9150613323826132e2565b602082019050919050565b600060208201905081810360008301526133478161330b565b9050919050565b600081519050919050565b600082825260208201905092915050565b60006133758261334e565b61337f8185613359565b935061338f8185602086016124b4565b613398816124de565b840191505092915050565b60006080820190506133b860008301876125df565b6133c560208301866125df565b6133d260408301856126f5565b81810360608301526133e4818461336a565b905095945050505050565b6000815190506133fe81612409565b92915050565b60006020828403121561341a576134196123d3565b5b6000613428848285016133ef565b91505092915050565b7f4e487b7100000000000000000000000000000000000000000000000000000000600052601260045260246000fd5b600060408201905061347560008301856125df565b61348260208301846126f5565b939250505056fea26469706673582212206df8d83aa3fc1040751fabcc434013ad53cbaec38b385186f62c2c3f6f95a10564736f6c634300081c0033",
  "linkReferences": {},
  "deployedLinkReferences": {}
}