{
  "_format": "hh-sol-artifact-1",
  "contractName": "RewardNFT",
  "sourceName": "contracts/RewardNFT.sol",
  "abi": [
    {
      "inputs": [],
      "stateMutability": "nonpayable",
      "type": "constructor"
    },
    {
      "inputs": [
        {
          "internalType": "address",
          "name": "sender",
          "type": "address"
        },
        {
          "internalType": "uint256",
          "name": "tokenId",
          "type": "uint256"
        },
        {
          "internalType": "address",
          "name": "owner",
          "type": "address"
        }
      ],
      "name": "ERC721IncorrectOwner",
      "type": "error"
    },
    {
      "inputs": [
        {
          "internalType": "address",
          "name": "operator",
          "type": "address"
        },
        {
          "internalType": "uint256",
          "name": "tokenId",
          "type": "uint256"
        }
      ],
      "name": "ERC721InsufficientApproval",
      "type": "error"
    },
    {
      "inputs": [
        {
          "internalType": "address",
          "name": "approver",
          "type": "address"
        }
      ],
      "name": "ERC721InvalidApprover",
      "type": "error"
    },
    {
      "inputs": [
        {
          "internalType": "address",
          "name": "operator",
          "type": "address"
        }
      ],
      "name": "ERC721InvalidOperator",
      "type": "error"
    },
    {
      "inputs": [
        {
          "internalType": "address",
          "name": "owner",
          "type": "address"
        }
      ],
      "name": "ERC721InvalidOwner",
      "type": "error"
    },
    {
      "inputs": [
        {
          "internalType": "address",
          "name": "receiver",
          "type": "address"
        }
      ],
      "name": "ERC721InvalidReceiver",
      "type": "error"
    },
    {
      "inputs": [
        {
          "internalType": "address",
          "name": "sender",
          "type": "address"
        }
      ],
      "name": "ERC721InvalidSender",
      "type": "error"
    },
    {
      "inputs": [
        {
          "internalType": "uint256",
          "name": "tokenId",
          "type": "uint256"
        }
      ],
      "name": "ERC721NonexistentToken",
      "type": "error"
    },
    {
      "inputs": [
        {
          "internalType": "address",
          "name": "owner",
          "type": "address"
        }
      ],
      "name": "OwnableInvalidOwner",
      "type": "error"
    },
    {
      "inputs": [
        {
          "internalType": "address",
          "name": "account",
          "type": "address"
        }
      ],
      "name": "OwnableUnauthorizedAccount",
      "type": "error"
    },
    {
      "anonymous": false,
      "inputs": [
        {
          "indexed": true,
          "internalType": "address",
          "name": "owner",
          "type": "address"
        },
        {
          "indexed": true,
          "internalType": "address",
          "name": "approved",
          "type": "address"
        },
        {
          "indexed": true,
          "internalType": "uint256",
          "name": "tokenId",
          "type": "uint256"
        }
      ],
      "name": "Approval",
      "type": "event"
    },
    {
      "anonymous": false,
      "inputs": [
        {
          "indexed": true,
          "internalType": "address",
          "name": "owner",
          "type": "address"
        },
        {
          "indexed": true,
          "internalType": "address",
          "name": "operator",
          "type": "address"
        },
        {
          "indexed": false,
          "internalType": "bool",
          "name": "approved",
          "type": "bool"
        }
      ],
      "name": "ApprovalForAll",
      "type": "event"
    },
    {
      "anonymous": false,
      "inputs": [
        {
          "indexed": true,
          "internalType": "address",
          "name": "previousOwner",
          "type": "address"
        },
        {
          "indexed": true,
          "internalType": "address",
          "name": "newOwner",
          "type": "address"
        }
      ],
      "name": "OwnershipTransferred",
      "type": "event"
    },
    {
      "anonymous": false,
      "inputs": [
        {
          "indexed": true,
          "internalType": "address",
          "name": "to",
          "type": "address"
        },
        {
          "indexed": true,
          "internalType": "uint256",
          "name": "tokenId",
          "type": "uint256"
        },
        {
          "indexed": false,
          "internalType": "enum RewardNFT.RewardType",
          "name": "rewardType",
          "type": "uint8"
        },
        {
          "indexed": false,
          "internalType": "string",
          "name": "name",
          "type": "string"
        }
      ],
      "name": "RewardMinted",
      "type": "event"
    },
    {
      "anonymous": false,
      "inputs": [
        {
          "indexed": true,
          "internalType": "address",
          "name": "from",
          "type": "address"
        },
        {
          "indexed": true,
          "internalType": "address",
          "name": "to",
          "type": "address"
        },
        {
          "indexed": true,
          "internalType": "uint256",
          "name": "tokenId",
          "type": "uint256"
        }
      ],
      "name": "Transfer",
      "type": "event"
    },
    {
      "inputs": [],
      "name": "MAX_INVENTORY",
      "outputs": [
        {
          "internalType": "uint256",
          "name": "",
          "type": "uint256"
        }
      ],
      "stateMutability": "view",
      "type": "function"
    },
    {
      "inputs": [
        {
          "internalType": "address",
          "name": "to",
          "type": "address"
        },
        {
          "internalType": "uint256",
          "name": "tokenId",
          "type": "uint256"
        }
      ],
      "name": "approve",
      "outputs": [],
      "stateMutability": "nonpayable",
      "type": "function"
    },
    {
      "inputs": [
        {
          "internalType": "address",
          "name": "owner",
          "type": "address"
        }
      ],
      "name": "balanceOf",
      "outputs": [
        {
          "internalType": "uint256",
          "name": "",
          "type": "uint256"
        }
      ],
      "stateMutability": "view",
      "type": "function"
    },
    {
      "inputs": [
        {
          "internalType": "address",
          "name": "user",
          "type": "address"
        }
      ],
      "name": "canReceiveReward",
      "outputs": [
        {
          "internalType": "bool",
          "name": "",
          "type": "bool"
        }
      ],
      "stateMutability": "view",
      "type": "function"
    },
    {
      "inputs": [
        {
          "internalType": "uint256",
          "name": "tokenId",
          "type": "uint256"
        }
      ],
      "name": "getApproved",
      "outputs": [
        {
          "internalType": "address",
          "name": "",
          "type": "address"
        }
      ],
      "stateMutability": "view",
      "type": "function"
    },
    {
      "inputs": [
        {
          "internalType": "address",
          "name": "user",
          "type": "address"
        }
      ],
      "name": "getInventoryCount",
      "outputs": [
        {
          "internalType": "uint256",
          "name": "",
          "type": "uint256"
        }
      ],
      "stateMutability": "view",
      "type": "function"
    },
    {
      "inputs": [
        {
          "internalType": "uint256",
          "name": "tokenId",
          "type": "uint256"
        }
      ],
      "name": "getTokenMetadata",
      "outputs": [
        {
          "components": [
            {
              "internalType": "string",
              "name": "name",
              "type": "string"
            },
            {
              "internalType": "enum RewardNFT.RewardType",
              "name": "rewardType",
              "type": "uint8"
            },
            {
              "internalType": "string",
              "name": "ipfsHash",
              "type": "string"
            },
            {
              "internalType": "address[]",
              "name": "previousOwners",
              "type": "address[]"
            },
            {
              "internalType": "uint256",
              "name": "createdAt",
              "type": "uint256"
            },
            {
              "internalType": "uint256",
              "name": "lastTransferAt",
              "type": "uint256"
            }
          ],
          "internalType": "struct RewardNFT.RewardMetadata",
          "name": "",
          "type": "tuple"
        }
      ],
      "stateMutability": "view",
      "type": "function"
    },
    {
      "inputs": [
        {
          "internalType": "address",
          "name": "owner",
          "type": "address"
        },
        {
          "internalType": "address",
          "name": "operator",
          "type": "address"
        }
      ],
      "name": "isApprovedForAll",
      "outputs": [
        {
          "internalType": "bool",
          "name": "",
          "type": "bool"
        }
      ],
      "stateMutability": "view",
      "type": "function"
    },
    {
      "inputs": [
        {
          "internalType": "address",
          "name": "to",
          "type": "address"
        },
        {
          "internalType": "string",
          "name": "name",
          "type": "string"
        },
        {
          "internalType": "enum RewardNFT.RewardType",
          "name": "rewardType",
          "type": "uint8"
        },
        {
          "internalType": "string",
          "name": "ipfsHash",
          "type": "string"
        }
      ],
      "name": "mintReward",
      "outputs": [
        {
          "internalType": "uint256",
          "name": "",
          "type": "uint256"
        }
      ],
      "stateMutability": "nonpayable",
      "type": "function"
    },
    {
      "inputs": [],
      "name": "name",
      "outputs": [
        {
          "internalType": "string",
          "name": "",
          "type": "string"
        }
      ],
      "stateMutability": "view",
      "type": "function"
    },
    {
      "inputs": [],
      "name": "owner",
      "outputs": [
        {
          "internalType": "address",
          "name": "",
          "type": "address"
        }
      ],
      "stateMutability": "view",
      "type": "function"
    },
    {
      "inputs": [
        {
          "internalType": "uint256",
          "name": "tokenId",
          "type": "uint256"
        }
      ],
      "name": "ownerOf",
      "outputs": [
        {
          "internalType": "address",
          "name": "",
          "type": "address"
        }
      ],
      "stateMutability": "view",
      "type": "function"
    },
    {
      "inputs": [],
      "name": "renounceOwnership",
      "outputs": [],
      "stateMutability": "nonpayable",
      "type": "function"
    },
    {
      "inputs": [
        {
          "internalType": "address",
          "name": "from",
          "type": "address"
        },
        {
          "internalType": "address",
          "name": "to",
          "type": "address"
        },
        {
          "internalType": "uint256",
          "name": "tokenId",
          "type": "uint256"
        }
      ],
      "name": "safeTransferFrom",
      "outputs": [],
      "stateMutability": "nonpayable",
      "type": "function"
    },
    {
      "inputs": [
        {
          "internalType": "address",
          "name": "from",
          "type": "address"
        },
        {
          "internalType": "address",
          "name": "to",
          "type": "address"
        },
        {
          "internalType": "uint256",
          "name": "tokenId",
          "type": "uint256"
        },
        {
          "internalType": "bytes",
          "name": "data",
          "type": "bytes"
        }
      ],
      "name": "safeTransferFrom",
      "outputs": [],
      "stateMutability": "nonpayable",
      "type": "function"
    },
    {
      "inputs": [
        {
          "internalType": "address",
          "name": "operator",
          "type": "address"
        },
        {
          "internalType": "bool",
          "name": "approved",
          "type": "bool"
        }
      ],
      "name": "setApprovalForAll",
      "outputs": [],
      "stateMutability": "nonpayable",
      "type": "function"
    },
    {
      "inputs": [
        {
          "internalType": "bytes4",
          "name": "interfaceId",
          "type": "bytes4"
        }
      ],
      "name": "supportsInterface",
      "outputs": [
        {
          "internalType": "bool",
          "name": "",
          "type": "bool"
        }
      ],
      "stateMutability": "view",
      "type": "function"
    },
    {
      "inputs": [],
      "name": "symbol",
      "outputs": [
        {
          "internalType": "string",
          "name": "",
          "type": "string"
        }
      ],
      "stateMutability": "view",
      "type": "function"
    },
    {
      "inputs": [
        {
          "internalType": "uint256",
          "name": "",
          "type": "uint256"
        }
      ],
      "name": "tokenMetadata",
      "outputs": [
        {
          "internalType": "string",
          "name": "name",
          "type": "string"
        },
        {
          "internalType": "enum RewardNFT.RewardType",
          "name": "rewardType",
          "type": "uint8"
        },
        {
          "internalType": "string",
          "name": "ipfsHash",
          "type": "string"
        },
        {
          "internalType": "uint256",
          "name": "createdAt",
          "type": "uint256"
        },
        {
          "internalType": "uint256",
          "name": "lastTransferAt",
          "type": "uint256"
        }
      ],
      "stateMutability": "view",
      "type": "function"
    },
    {
      "inputs": [
        {
          "internalType": "uint256",
          "name": "tokenId",
          "type": "uint256"
        }
      ],
      "name": "tokenURI",
      "outputs": [
        {
          "internalType": "string",
          "name": "",
          "type": "string"
        }
      ],
      "stateMutability": "view",
      "type": "function"
    },
    {
      "inputs": [],
      "name": "totalSupply",
      "outputs": [
        {
          "internalType": "uint256",
          "name": "",
          "type": "uint256"
        }
      ],
      "stateMutability": "view",
      "type": "function"
    },
    {
      "inputs": [
        {
          "internalType": "address",
          "name": "from",
          "type": "address"
        },
        {
          "internalType": "address",
          "name": "to",
          "type": "address"
        },
        {
          "internalType": "uint256",
          "name": "tokenId",
          "type": "uint256"
        }
      ],
      "name": "transferFrom",
      "outputs": [],
      "stateMutability": "nonpayable",
      "type": "function"
    },
    {
      "inputs": [
        {
          "internalType": "address",
          "name": "newOwner",
          "type": "address"
        }
      ],
      "name": "transferOwnership",
      "outputs": [],
      "stateMutability": "nonpayable",
      "type": "function"
    },
    {
      "inputs": [
        {
          "internalType": "address",
          "name": "",
          "type": "address"
        }
      ],
      "name": "userInventoryCount",
      "outputs": [
        {
          "internalType": "uint256",
          "name": "",
          "type": "uint256"
        }
      ],
      "stateMutability": "view",
      "type": "function"
    }
  ],
  "bytecode": "0x608060405234801561001057600080fd5b50336040518060400160405280600e81526020017f526f756c657474655265776172640000000000000000000000000000000000008152506040518060400160405280600681526020017f5245574152440000000000000000000000000000000000000000000000000000815250816000908161008d919061043d565b50806001908161009d919061043d565b505050600073ffffffffffffffffffffffffffffffffffffffff168173ffffffffffffffffffffffffffffffffffffffff16036101125760006040517f1e4fbdf70000000000000000000000000000000000000000000000000000000081526004016101099190610550565b60405180910390fd5b6101218161012760201b60201c565b5061056b565b6000600660009054906101000a900473ffffffffffffffffffffffffffffffffffffffff16905081600660006101000a81548173ffffffffffffffffffffffffffffffffffffffff021916908373ffffffffffffffffffffffffffffffffffffffff1602179055508173ffffffffffffffffffffffffffffffffffffffff168173ffffffffffffffffffffffffffffffffffffffff167f8be0079c531659141344cd1fd0a4f28419497f9722a3daafe3b4186f6b6457e060405160405180910390a35050565b600081519050919050565b7f4e487b7100000000000000000000000000000000000000000000000000000000600052604160045260246000fd5b7f4e487b7100000000000000000000000000000000000000000000000000000000600052602260045260246000fd5b6000600282049050600182168061026e57607f821691505b60208210810361028157610280610227565b5b50919050565b60008190508160005260206000209050919050565b60006020601f8301049050919050565b600082821b905092915050565b6000600883026102e97fffffffffffffffffffffffffffffffffffffffffffffffffffffffffffffffff826102ac565b6102f386836102ac565b95508019841693508086168417925050509392505050565b6000819050919050565b6000819050919050565b600061033a6103356103308461030b565b610315565b61030b565b9050919050565b6000819050919050565b6103548361031f565b61036861036082610341565b8484546102b9565b825550505050565b600090565b61037d610370565b61038881848461034b565b505050565b5b818110156103ac576103a1600082610375565b60018101905061038e565b5050565b601f8211156103f1576103c281610287565b6103cb8461029c565b810160208510156103da578190505b6103ee6103e68561029c565b83018261038d565b50505b505050565b600082821c905092915050565b6000610414600019846008026103f6565b1980831691505092915050565b600061042d8383610403565b9150826002028217905092915050565b610446826101ed565b67ffffffffffffffff81111561045f5761045e6101f8565b5b6104698254610256565b6104748282856103b0565b600060209050601f8311600181146104a75760008415610495578287015190505b61049f8582610421565b865550610507565b601f1984166104b586610287565b60005b828110156104dd578489015182556001820191506020850194506020810190506104b8565b868310156104fa57848901516104f6601f891682610403565b8355505b6001600288020188555050505b505050505050565b600073ffffffffffffffffffffffffffffffffffffffff82169050919050565b600061053a8261050f565b9050919050565b61054a8161052f565b82525050565b60006020820190506105656000830184610541565b92915050565b6134f28061057a6000396000f3fe608060405234801561001057600080fd5b50600436106101585760003560e01c80636914db60116100c3578063b416d46e1161007c578063b416d46e14610403578063b88d4fde14610421578063c87b56dd1461043d578063e7e107891461046d578063e985e9c51461049d578063f2fde38b146104cd57610158565b80636914db601461033d57806370a0823114610371578063715018a6146103a15780638da5cb5b146103ab57806395d89b41146103c9578063a22cb465146103e757610158565b806323b872dd1161011557806323b872dd14610245578063284a06871461026157806342842e0e146102915780634659fa46146102ad57806360316801146102dd5780636352211e1461030d57610158565b806301ffc9a71461015d57806306fdde031461018d578063081812fc146101ab578063095ea7b3146101db57806318160ddd146101f75780631b5e26bc14610215575b600080fd5b61017760048036038101906101729190612468565b6104e9565b60405161018491906124b0565b60405180910390f35b6101956105cb565b6040516101a2919061255b565b60405180910390f35b6101c560048036038101906101c091906125b3565b61065d565b6040516101d29190612621565b60405180910390f35b6101f560048036038101906101f09190612668565b610679565b005b6101ff61068f565b60405161020c91906126b7565b60405180910390f35b61022f600480360381019061022a91906126d2565b610699565b60405161023c91906124b0565b60405180910390f35b61025f600480360381019061025a91906126ff565b6106e5565b005b61027b600480360381019061027691906126d2565b6107e7565b60405161028891906126b7565b60405180910390f35b6102ab60048036038101906102a691906126ff565b6107ff565b005b6102c760048036038101906102c291906126d2565b61081f565b6040516102d491906126b7565b60405180910390f35b6102f760048036038101906102f291906125b3565b610868565b6040516103049190612977565b60405180910390f35b610327600480360381019061032291906125b3565b610b0d565b6040516103349190612621565b60405180910390f35b610357600480360381019061035291906125b3565b610b1f565b6040516103689594939291906129a8565b60405180910390f35b61038b600480360381019061038691906126d2565b610c72565b60405161039891906126b7565b60405180910390f35b6103a9610d2c565b005b6103b3610d40565b6040516103c09190612621565b60405180910390f35b6103d1610d6a565b6040516103de919061255b565b60405180910390f35b61040160048036038101906103fc9190612a35565b610dfc565b005b61040b610e12565b60405161041891906126b7565b60405180910390f35b61043b60048036038101906104369190612baa565b610e17565b005b610457600480360381019061045291906125b3565b610e3c565b604051610464919061255b565b60405180910390f35b61048760048036038101906104829190612cf3565b610ea5565b60405161049491906126b7565b60405180910390f35b6104b760048036038101906104b29190612d92565b6110de565b6040516104c491906124b0565b60405180910390f35b6104e760048036038101906104e291906126d2565b611172565b005b60007f80ac58cd000000000000000000000000000000000000000000000000000000007bffffffffffffffffffffffffffffffffffffffffffffffffffffffff1916827bffffffffffffffffffffffffffffffffffffffffffffffffffffffff191614806105b457507f5b5e139f000000000000000000000000000000000000000000000000000000007bffffffffffffffffffffffffffffffffffffffffffffffffffffffff1916827bffffffffffffffffffffffffffffffffffffffffffffffffffffffff1916145b806105c457506105c3826111f8565b5b9050919050565b6060600080546105da90612e01565b80601f016020809104026020016040519081016040528092919081815260200182805461060690612e01565b80156106535780601f1061062857610100808354040283529160200191610653565b820191906000526020600020905b81548152906001019060200180831161063657829003601f168201915b5050505050905090565b600061066882611262565b50610672826112ea565b9050919050565b61068b8282610686611327565b61132f565b5050565b6000600754905090565b60006014600960008473ffffffffffffffffffffffffffffffffffffffff1673ffffffffffffffffffffffffffffffffffffffff16815260200190815260200160002054109050919050565b600073ffffffffffffffffffffffffffffffffffffffff168273ffffffffffffffffffffffffffffffffffffffff16036107575760006040517f64a0ae9200000000000000000000000000000000000000000000000000000000815260040161074e9190612621565b60405180910390fd5b600061076b8383610766611327565b611341565b90508373ffffffffffffffffffffffffffffffffffffffff168173ffffffffffffffffffffffffffffffffffffffff16146107e1578382826040517f64283d7b0000000000000000000000000000000000000000000000000000000081526004016107d893929190612e32565b60405180910390fd5b50505050565b60096020528060005260406000206000915090505481565b61081a83838360405180602001604052806000815250610e17565b505050565b6000600960008373ffffffffffffffffffffffffffffffffffffffff1673ffffffffffffffffffffffffffffffffffffffff168152602001908152602001600020549050919050565b61087061230d565b600073ffffffffffffffffffffffffffffffffffffffff166108918361158c565b73ffffffffffffffffffffffffffffffffffffffff16036108e7576040517f08c379a00000000000000000000000000000000000000000000000000000000081526004016108de90612eb5565b60405180910390fd5b600860008381526020019081526020016000206040518060c001604052908160008201805461091590612e01565b80601f016020809104026020016040519081016040528092919081815260200182805461094190612e01565b801561098e5780601f106109635761010080835404028352916020019161098e565b820191906000526020600020905b81548152906001019060200180831161097157829003601f168201915b505050505081526020016001820160009054906101000a900460ff1660038111156109bc576109bb61279c565b5b60038111156109ce576109cd61279c565b5b81526020016002820180546109e290612e01565b80601f0160208091040260200160405190810160405280929190818152602001828054610a0e90612e01565b8015610a5b5780601f10610a3057610100808354040283529160200191610a5b565b820191906000526020600020905b815481529060010190602001808311610a3e57829003601f168201915b5050505050815260200160038201805480602002602001604051908101604052809291908181526020018280548015610ae957602002820191906000526020600020905b8160009054906101000a900473ffffffffffffffffffffffffffffffffffffffff1673ffffffffffffffffffffffffffffffffffffffff1681526020019060010190808311610a9f575b50505050508152602001600482015481526020016005820154815250509050919050565b6000610b1882611262565b9050919050565b6008602052806000526040600020600091509050806000018054610b4290612e01565b80601f0160208091040260200160405190810160405280929190818152602001828054610b6e90612e01565b8015610bbb5780601f10610b9057610100808354040283529160200191610bbb565b820191906000526020600020905b815481529060010190602001808311610b9e57829003601f168201915b5050505050908060010160009054906101000a900460ff1690806002018054610be390612e01565b80601f0160208091040260200160405190810160405280929190818152602001828054610c0f90612e01565b8015610c5c5780601f10610c3157610100808354040283529160200191610c5c565b820191906000526020600020905b815481529060010190602001808311610c3f57829003601f168201915b5050505050908060040154908060050154905085565b60008073ffffffffffffffffffffffffffffffffffffffff168273ffffffffffffffffffffffffffffffffffffffff1603610ce55760006040517f89c62b64000000000000000000000000000000000000000000000000000000008152600401610cdc9190612621565b60405180910390fd5b600360008373ffffffffffffffffffffffffffffffffffffffff1673ffffffffffffffffffffffffffffffffffffffff168152602001908152602001600020549050919050565b610d346115c9565b610d3e6000611650565b565b6000600660009054906101000a900473ffffffffffffffffffffffffffffffffffffffff16905090565b606060018054610d7990612e01565b80601f0160208091040260200160405190810160405280929190818152602001828054610da590612e01565b8015610df25780601f10610dc757610100808354040283529160200191610df2565b820191906000526020600020905b815481529060010190602001808311610dd557829003601f168201915b5050505050905090565b610e0e610e07611327565b8383611716565b5050565b601481565b610e228484846106e5565b610e36610e2d611327565b85858585611885565b50505050565b6060610e4782611262565b506000610e52611a36565b90506000815111610e725760405180602001604052806000815250610e9d565b80610e7c84611a4d565b604051602001610e8d929190612f11565b6040516020818303038152906040525b915050919050565b6000610eaf6115c9565b6014600960008773ffffffffffffffffffffffffffffffffffffffff1673ffffffffffffffffffffffffffffffffffffffff1681526020019081526020016000205410610f31576040517f08c379a0000000000000000000000000000000000000000000000000000000008152600401610f2890612fa7565b60405180910390fd5b600060076000815480929190610f4690612ff6565b9190505590506040518060c00160405280868152602001856003811115610f7057610f6f61279c565b5b8152602001848152602001600067ffffffffffffffff811115610f9657610f95612a7f565b5b604051908082528060200260200182016040528015610fc45781602001602082028036833780820191505090505b50815260200142815260200142815250600860008381526020019081526020016000206000820151816000019081610ffc91906131ea565b5060208201518160010160006101000a81548160ff021916908360038111156110285761102761279c565b5b0217905550604082015181600201908161104291906131ea565b50606082015181600301908051906020019061105f929190612355565b506080820151816004015560a082015181600501559050506110818682611b1b565b808673ffffffffffffffffffffffffffffffffffffffff167f6c8fbfb8afa4631cf289cbb0f11ebcfd81c518cde12c47d2ac654440ff49bb7686886040516110ca9291906132bc565b60405180910390a380915050949350505050565b6000600560008473ffffffffffffffffffffffffffffffffffffffff1673ffffffffffffffffffffffffffffffffffffffff16815260200190815260200160002060008373ffffffffffffffffffffffffffffffffffffffff1673ffffffffffffffffffffffffffffffffffffffff16815260200190815260200160002060009054906101000a900460ff16905092915050565b61117a6115c9565b600073ffffffffffffffffffffffffffffffffffffffff168173ffffffffffffffffffffffffffffffffffffffff16036111ec5760006040517f1e4fbdf70000000000000000000000000000000000000000000000000000000081526004016111e39190612621565b60405180910390fd5b6111f581611650565b50565b60007f01ffc9a7000000000000000000000000000000000000000000000000000000007bffffffffffffffffffffffffffffffffffffffffffffffffffffffff1916827bffffffffffffffffffffffffffffffffffffffffffffffffffffffff1916149050919050565b60008061126e8361158c565b9050600073ffffffffffffffffffffffffffffffffffffffff168173ffffffffffffffffffffffffffffffffffffffff16036112e157826040517f7e2732890000000000000000000000000000000000000000000000000000000081526004016112d891906126b7565b60405180910390fd5b80915050919050565b60006004600083815260200190815260200160002060009054906101000a900473ffffffffffffffffffffffffffffffffffffffff169050919050565b600033905090565b61133c8383836001611b39565b505050565b60008061134d8461158c565b9050600073ffffffffffffffffffffffffffffffffffffffff168173ffffffffffffffffffffffffffffffffffffffff161461146b57600960008273ffffffffffffffffffffffffffffffffffffffff1673ffffffffffffffffffffffffffffffffffffffff16815260200190815260200160002060008154809291906113d3906132ec565b919050555060086000858152602001908152602001600020600301819080600181540180825580915050600190039060005260206000200160009091909190916101000a81548173ffffffffffffffffffffffffffffffffffffffff021916908373ffffffffffffffffffffffffffffffffffffffff1602179055504260086000868152602001908152602001600020600501819055505b600073ffffffffffffffffffffffffffffffffffffffff168573ffffffffffffffffffffffffffffffffffffffff1614611577576014600960008773ffffffffffffffffffffffffffffffffffffffff1673ffffffffffffffffffffffffffffffffffffffff1681526020019081526020016000205410611521576040517f08c379a000000000000000000000000000000000000000000000000000000000815260040161151890613361565b60405180910390fd5b600960008673ffffffffffffffffffffffffffffffffffffffff1673ffffffffffffffffffffffffffffffffffffffff168152602001908152602001600020600081548092919061157190612ff6565b91905055505b611582858585611cfe565b9150509392505050565b60006002600083815260200190815260200160002060009054906101000a900473ffffffffffffffffffffffffffffffffffffffff169050919050565b6115d1611327565b73ffffffffffffffffffffffffffffffffffffffff166115ef610d40565b73ffffffffffffffffffffffffffffffffffffffff161461164e57611612611327565b6040517f118cdaa70000000000000000000000000000000000000000000000000000000081526004016116459190612621565b60405180910390fd5b565b6000600660009054906101000a900473ffffffffffffffffffffffffffffffffffffffff16905081600660006101000a81548173ffffffffffffffffffffffffffffffffffffffff021916908373ffffffffffffffffffffffffffffffffffffffff1602179055508173ffffffffffffffffffffffffffffffffffffffff168173ffffffffffffffffffffffffffffffffffffffff167f8be0079c531659141344cd1fd0a4f28419497f9722a3daafe3b4186f6b6457e060405160405180910390a35050565b600073ffffffffffffffffffffffffffffffffffffffff168273ffffffffffffffffffffffffffffffffffffffff160361178757816040517f5b08ba1800000000000000000000000000000000000000000000000000000000815260040161177e9190612621565b60405180910390fd5b80600560008573ffffffffffffffffffffffffffffffffffffffff1673ffffffffffffffffffffffffffffffffffffffff16815260200190815260200160002060008473ffffffffffffffffffffffffffffffffffffffff1673ffffffffffffffffffffffffffffffffffffffff16815260200190815260200160002060006101000a81548160ff0219169083151502179055508173ffffffffffffffffffffffffffffffffffffffff168373ffffffffffffffffffffffffffffffffffffffff167f17307eab39ab6107e8899845ad3d59bd9653f200f220920489ca2b5937696c318360405161187891906124b0565b60405180910390a3505050565b60008373ffffffffffffffffffffffffffffffffffffffff163b1115611a2f578273ffffffffffffffffffffffffffffffffffffffff1663150b7a02868685856040518563ffffffff1660e01b81526004016118e494939291906133d6565b6020604051808303816000875af192505050801561192057506040513d601f19601f8201168201806040525081019061191d9190613437565b60015b6119a4573d8060008114611950576040519150601f19603f3d011682016040523d82523d6000602084013e611955565b606091505b50600081510361199c57836040517f64a0ae920000000000000000000000000000000000000000000000000000000081526004016119939190612621565b60405180910390fd5b805160208201fd5b63150b7a0260e01b7bffffffffffffffffffffffffffffffffffffffffffffffffffffffff1916817bffffffffffffffffffffffffffffffffffffffffffffffffffffffff191614611a2d57836040517f64a0ae92000000000000000000000000000000000000000000000000000000008152600401611a249190612621565b60405180910390fd5b505b5050505050565b606060405180602001604052806000815250905090565b606060006001611a5c84611f18565b01905060008167ffffffffffffffff811115611a7b57611a7a612a7f565b5b6040519080825280601f01601f191660200182016040528015611aad5781602001600182028036833780820191505090505b509050600082602083010190505b600115611b10578080600190039150507f3031323334353637383961626364656600000000000000000000000000000000600a86061a8153600a8581611b0457611b03613464565b5b04945060008503611abb575b819350505050919050565b611b3582826040518060200160405280600081525061206b565b5050565b8080611b725750600073ffffffffffffffffffffffffffffffffffffffff168273ffffffffffffffffffffffffffffffffffffffff1614155b15611ca6576000611b8284611262565b9050600073ffffffffffffffffffffffffffffffffffffffff168373ffffffffffffffffffffffffffffffffffffffff1614158015611bed57508273ffffffffffffffffffffffffffffffffffffffff168173ffffffffffffffffffffffffffffffffffffffff1614155b8015611c005750611bfe81846110de565b155b15611c4257826040517fa9fbf51f000000000000000000000000000000000000000000000000000000008152600401611c399190612621565b60405180910390fd5b8115611ca457838573ffffffffffffffffffffffffffffffffffffffff168273ffffffffffffffffffffffffffffffffffffffff167f8c5be1e5ebec7d5bd14f71427d1e84f3dd0314c0f7b2291e5b200ac8c7c3b92560405160405180910390a45b505b836004600085815260200190815260200160002060006101000a81548173ffffffffffffffffffffffffffffffffffffffff021916908373ffffffffffffffffffffffffffffffffffffffff16021790555050505050565b600080611d0a8461158c565b9050600073ffffffffffffffffffffffffffffffffffffffff168373ffffffffffffffffffffffffffffffffffffffff1614611d4c57611d4b81848661208f565b5b600073ffffffffffffffffffffffffffffffffffffffff168173ffffffffffffffffffffffffffffffffffffffff1614611ddd57611d8e600085600080611b39565b6001600360008373ffffffffffffffffffffffffffffffffffffffff1673ffffffffffffffffffffffffffffffffffffffff168152602001908152602001600020600082825403925050819055505b600073ffffffffffffffffffffffffffffffffffffffff168573ffffffffffffffffffffffffffffffffffffffff1614611e60576001600360008773ffffffffffffffffffffffffffffffffffffffff1673ffffffffffffffffffffffffffffffffffffffff168152602001908152602001600020600082825401925050819055505b846002600086815260200190815260200160002060006101000a81548173ffffffffffffffffffffffffffffffffffffffff021916908373ffffffffffffffffffffffffffffffffffffffff160217905550838573ffffffffffffffffffffffffffffffffffffffff168273ffffffffffffffffffffffffffffffffffffffff167fddf252ad1be2c89b69c2b068fc378daa952ba7f163c4a11628f55a4df523b3ef60405160405180910390a4809150509392505050565b600080600090507a184f03e93ff9f4daa797ed6e38ed64bf6a1f0100000000000000008310611f76577a184f03e93ff9f4daa797ed6e38ed64bf6a1f0100000000000000008381611f6c57611f6b613464565b5b0492506040810190505b6d04ee2d6d415b85acef81000000008310611fb3576d04ee2d6d415b85acef81000000008381611fa957611fa8613464565b5b0492506020810190505b662386f26fc100008310611fe257662386f26fc100008381611fd857611fd7613464565b5b0492506010810190505b6305f5e100831061200b576305f5e100838161200157612000613464565b5b0492506008810190505b612710831061203057612710838161202657612025613464565b5b0492506004810190505b60648310612053576064838161204957612048613464565b5b0492506002810190505b600a8310612062576001810190505b80915050919050565b6120758383612153565b61208a612080611327565b6000858585611885565b505050565b61209a83838361224c565b61214e57600073ffffffffffffffffffffffffffffffffffffffff168373ffffffffffffffffffffffffffffffffffffffff160361210f57806040517f7e27328900000000000000000000000000000000000000000000000000000000815260040161210691906126b7565b60405180910390fd5b81816040517f177e802f000000000000000000000000000000000000000000000000000000008152600401612145929190613493565b60405180910390fd5b505050565b600073ffffffffffffffffffffffffffffffffffffffff168273ffffffffffffffffffffffffffffffffffffffff16036121c55760006040517f64a0ae920000000000000000000000000000000000000000000000000000000081526004016121bc9190612621565b60405180910390fd5b60006121d383836000611341565b9050600073ffffffffffffffffffffffffffffffffffffffff168173ffffffffffffffffffffffffffffffffffffffff16146122475760006040517f73c6ac6e00000000000000000000000000000000000000000000000000000000815260040161223e9190612621565b60405180910390fd5b505050565b60008073ffffffffffffffffffffffffffffffffffffffff168373ffffffffffffffffffffffffffffffffffffffff161415801561230457508273ffffffffffffffffffffffffffffffffffffffff168473ffffffffffffffffffffffffffffffffffffffff1614806122c557506122c484846110de565b5b8061230357508273ffffffffffffffffffffffffffffffffffffffff166122eb836112ea565b73ffffffffffffffffffffffffffffffffffffffff16145b5b90509392505050565b6040518060c0016040528060608152602001600060038111156123335761233261279c565b5b8152602001606081526020016060815260200160008152602001600081525090565b8280548282559060005260206000209081019282156123ce579160200282015b828111156123cd5782518260006101000a81548173ffffffffffffffffffffffffffffffffffffffff021916908373ffffffffffffffffffffffffffffffffffffffff16021790555091602001919060010190612375565b5b5090506123db91906123df565b5090565b5b808211156123f85760008160009055506001016123e0565b5090565b6000604051905090565b600080fd5b600080fd5b60007fffffffff0000000000000000000000000000000000000000000000000000000082169050919050565b61244581612410565b811461245057600080fd5b50565b6000813590506124628161243c565b92915050565b60006020828403121561247e5761247d612406565b5b600061248c84828501612453565b91505092915050565b60008115159050919050565b6124aa81612495565b82525050565b60006020820190506124c560008301846124a1565b92915050565b600081519050919050565b600082825260208201905092915050565b60005b838110156125055780820151818401526020810190506124ea565b60008484015250505050565b6000601f19601f8301169050919050565b600061252d826124cb565b61253781856124d6565b93506125478185602086016124e7565b61255081612511565b840191505092915050565b600060208201905081810360008301526125758184612522565b905092915050565b6000819050919050565b6125908161257d565b811461259b57600080fd5b50565b6000813590506125ad81612587565b92915050565b6000602082840312156125c9576125c8612406565b5b60006125d78482850161259e565b91505092915050565b600073ffffffffffffffffffffffffffffffffffffffff82169050919050565b600061260b826125e0565b9050919050565b61261b81612600565b82525050565b60006020820190506126366000830184612612565b92915050565b61264581612600565b811461265057600080fd5b50565b6000813590506126628161263c565b92915050565b6000806040838503121561267f5761267e612406565b5b600061268d85828601612653565b925050602061269e8582860161259e565b9150509250929050565b6126b18161257d565b82525050565b60006020820190506126cc60008301846126a8565b92915050565b6000602082840312156126e8576126e7612406565b5b60006126f684828501612653565b91505092915050565b60008060006060848603121561271857612717612406565b5b600061272686828701612653565b935050602061273786828701612653565b92505060406127488682870161259e565b9150509250925092565b600082825260208201905092915050565b600061276e826124cb565b6127788185612752565b93506127888185602086016124e7565b61279181612511565b840191505092915050565b7f4e487b7100000000000000000000000000000000000000000000000000000000600052602160045260246000fd5b600481106127dc576127db61279c565b5b50565b60008190506127ed826127cb565b919050565b60006127fd826127df565b9050919050565b61280d816127f2565b82525050565b600081519050919050565b600082825260208201905092915050565b6000819050602082019050919050565b61284881612600565b82525050565b600061285a838361283f565b60208301905092915050565b6000602082019050919050565b600061287e82612813565b612888818561281e565b93506128938361282f565b8060005b838110156128c45781516128ab888261284e565b97506128b683612866565b925050600181019050612897565b5085935050505092915050565b6128da8161257d565b82525050565b600060c08301600083015184820360008601526128fd8282612763565b91505060208301516129126020860182612804565b506040830151848203604086015261292a8282612763565b915050606083015184820360608601526129448282612873565b915050608083015161295960808601826128d1565b5060a083015161296c60a08601826128d1565b508091505092915050565b6000602082019050818103600083015261299181846128e0565b905092915050565b6129a2816127f2565b82525050565b600060a08201905081810360008301526129c28188612522565b90506129d16020830187612999565b81810360408301526129e38186612522565b90506129f260608301856126a8565b6129ff60808301846126a8565b9695505050505050565b612a1281612495565b8114612a1d57600080fd5b50565b600081359050612a2f81612a09565b92915050565b60008060408385031215612a4c57612a4b612406565b5b6000612a5a85828601612653565b9250506020612a6b85828601612a20565b9150509250929050565b600080fd5b600080fd5b7f4e487b7100000000000000000000000000000000000000000000000000000000600052604160045260246000fd5b612ab782612511565b810181811067ffffffffffffffff82111715612ad657612ad5612a7f565b5b80604052505050565b6000612ae96123fc565b9050612af58282612aae565b919050565b600067ffffffffffffffff821115612b1557612b14612a7f565b5b612b1e82612511565b9050602081019050919050565b82818337600083830152505050565b6000612b4d612b4884612afa565b612adf565b905082815260208101848484011115612b6957612b68612a7a565b5b612b74848285612b2b565b509392505050565b600082601f830112612b9157612b90612a75565b5b8135612ba1848260208601612b3a565b91505092915050565b60008060008060808587031215612bc457612bc3612406565b5b6000612bd287828801612653565b9450506020612be387828801612653565b9350506040612bf48782880161259e565b925050606085013567ffffffffffffffff811115612c1557612c1461240b565b5b612c2187828801612b7c565b91505092959194509250565b600067ffffffffffffffff821115612c4857612c47612a7f565b5b612c5182612511565b9050602081019050919050565b6000612c71612c6c84612c2d565b612adf565b905082815260208101848484011115612c8d57612c8c612a7a565b5b612c98848285612b2b565b509392505050565b600082601f830112612cb557612cb4612a75565b5b8135612cc5848260208601612c5e565b91505092915050565b60048110612cdb57600080fd5b50565b600081359050612ced81612cce565b92915050565b60008060008060808587031215612d0d57612d0c612406565b5b6000612d1b87828801612653565b945050602085013567ffffffffffffffff811115612d3c57612d3b61240b565b5b612d4887828801612ca0565b9350506040612d5987828801612cde565b925050606085013567ffffffffffffffff811115612d7a57612d7961240b565b5b612d8687828801612ca0565b91505092959194509250565b60008060408385031215612da957612da8612406565b5b6000612db785828601612653565b9250506020612dc885828601612653565b9150509250929050565b7f4e487b7100000000000000000000000000000000000000000000000000000000600052602260045260246000fd5b60006002820490506001821680612e1957607f821691505b602082108103612e2c57612e2b612dd2565b5b50919050565b6000606082019050612e476000830186612612565b612e5460208301856126a8565b612e616040830184612612565b949350505050565b7f546f6b656e20646f6573206e6f74206578697374000000000000000000000000600082015250565b6000612e9f6014836124d6565b9150612eaa82612e69565b602082019050919050565b60006020820190508181036000830152612ece81612e92565b9050919050565b600081905092915050565b6000612eeb826124cb565b612ef58185612ed5565b9350612f058185602086016124e7565b80840191505092915050565b6000612f1d8285612ee0565b9150612f298284612ee0565b91508190509392505050565b7f496e76656e746f72792069732066756c6c20286d61782032302072657761726460008201527f7329000000000000000000000000000000000000000000000000000000000000602082015250565b6000612f916022836124d6565b9150612f9c82612f35565b604082019050919050565b60006020820190508181036000830152612fc081612f84565b9050919050565b7f4e487b7100000000000000000000000000000000000000000000000000000000600052601160045260246000fd5b60006130018261257d565b91507fffffffffffffffffffffffffffffffffffffffffffffffffffffffffffffffff820361303357613032612fc7565b5b600182019050919050565b60008190508160005260206000209050919050565b60006020601f8301049050919050565b600082821b905092915050565b6000600883026130a07fffffffffffffffffffffffffffffffffffffffffffffffffffffffffffffffff82613063565b6130aa8683613063565b95508019841693508086168417925050509392505050565b6000819050919050565b60006130e76130e26130dd8461257d565b6130c2565b61257d565b9050919050565b6000819050919050565b613101836130cc565b61311561310d826130ee565b848454613070565b825550505050565b600090565b61312a61311d565b6131358184846130f8565b505050565b5b818110156131595761314e600082613122565b60018101905061313b565b5050565b601f82111561319e5761316f8161303e565b61317884613053565b81016020851015613187578190505b61319b61319385613053565b83018261313a565b50505b505050565b600082821c905092915050565b60006131c1600019846008026131a3565b1980831691505092915050565b60006131da83836131b0565b9150826002028217905092915050565b6131f3826124cb565b67ffffffffffffffff81111561320c5761320b612a7f565b5b6132168254612e01565b61322182828561315d565b600060209050601f8311600181146132545760008415613242578287015190505b61324c85826131ce565b8655506132b4565b601f1984166132628661303e565b60005b8281101561328a57848901518255600182019150602085019450602081019050613265565b868310156132a757848901516132a3601f8916826131b0565b8355505b6001600288020188555050505b505050505050565b60006040820190506132d16000830185612999565b81810360208301526132e38184612522565b90509392505050565b60006132f78261257d565b91506000820361330a57613309612fc7565b5b600182039050919050565b7f526563697069656e7420696e76656e746f72792069732066756c6c0000000000600082015250565b600061334b601b836124d6565b915061335682613315565b602082019050919050565b6000602082019050818103600083015261337a8161333e565b9050919050565b600081519050919050565b600082825260208201905092915050565b60006133a882613381565b6133b2818561338c565b93506133c28185602086016124e7565b6133cb81612511565b840191505092915050565b60006080820190506133eb6000830187612612565b6133f86020830186612612565b61340560408301856126a8565b8181036060830152613417818461339d565b905095945050505050565b6000815190506134318161243c565b92915050565b60006020828403121561344d5761344c612406565b5b600061345b84828501613422565b91505092915050565b7f4e487b7100000000000000000000000000000000000000000000000000000000600052601260045260246000fd5b60006040820190506134a86000830185612612565b6134b560208301846126a8565b939250505056fea2646970667358221220d421f05bd7246e22d08cbf9df56e4c0a9fab4d67b53d263beaccb0732cf1f9a364736f6c634300081c0033",
  "linkReferences": {},
  "deployedLinkReferences": {}
}