{
  "_format": "hh-sol-artifact-1",
  "contractName": "Roulette",
  "sourceName": "contracts/Roulette.sol",
  "abi": [
    {
      "inputs": [
        {
          "internalType": "address",
          "name": "_rewardNFTAddress",
          "type": "address"
        }
      ],
      "stateMutability": "nonpayable",
      "type": "constructor"
    },
    {
      "anonymous": false,
      "inputs": [
        {
          "indexed": true,
          "internalType": "address",
          "name": "player",
          "type": "address"
        },
        {
          "indexed": true,
          "internalType": "uint256",
          "name": "gameId",
          "type": "uint256"
        },
        {
          "indexed": false,
          "internalType": "uint256",
          "name": "nftTokenId",
          "type": "uint256"
        },
        {
          "indexed": false,
          "internalType": "enum RewardNFT.RewardType",
          "name": "rewardType",
          "type": "uint8"
        }
      ],
      "name": "RewardDistributed",
      "type": "event"
    },
    {
      "anonymous": false,
      "inputs": [
        {
          "indexed": true,
          "internalType": "uint256",
          "name": "gameId",
          "type": "uint256"
        },
        {
          "indexed": true,
          "internalType": "address",
          "name": "player",
          "type": "address"
        },
        {
          "indexed": false,
          "internalType": "uint8",
          "name": "result",
          "type": "uint8"
        },
        {
          "indexed": false,
          "internalType": "bool",
          "name": "hasWon",
          "type": "bool"
        }
      ],
      "name": "RouletteSpun",
      "type": "event"
    },
    {
      "anonymous": false,
      "inputs": [
        {
          "indexed": true,
          "internalType": "address",
          "name": "player",
          "type": "address"
        },
        {
          "indexed": true,
          "internalType": "uint256",
          "name": "gameId",
          "type": "uint256"
        },
        {
          "indexed": false,
          "internalType": "enum Roulette.BetType",
          "name": "betType",
          "type": "uint8"
        },
        {
          "indexed": false,
          "internalType": "uint8",
          "name": "numberBet",
          "type": "uint8"
        }
      ],
      "name": "TicketPurchased",
      "type": "event"
    },
    {
      "inputs": [],
      "name": "TICKET_PRICE",
      "outputs": [
        {
          "internalType": "uint256",
          "name": "",
          "type": "uint256"
        }
      ],
      "stateMutability": "view",
      "type": "function"
    },
    {
      "inputs": [
        {
          "internalType": "enum Roulette.BetType",
          "name": "betType",
          "type": "uint8"
        },
        {
          "internalType": "uint8",
          "name": "numberBet",
          "type": "uint8"
        }
      ],
      "name": "buyTicketAndSpin",
      "outputs": [
        {
          "internalType": "uint256",
          "name": "",
          "type": "uint256"
        }
      ],
      "stateMutability": "payable",
      "type": "function"
    },
    {
      "inputs": [
        {
          "internalType": "uint256",
          "name": "",
          "type": "uint256"
        }
      ],
      "name": "games",
      "outputs": [
        {
          "internalType": "address",
          "name": "player",
          "type": "address"
        },
        {
          "internalType": "enum Roulette.BetType",
          "name": "betType",
          "type": "uint8"
        },
        {
          "internalType": "uint8",
          "name": "numberBet",
          "type": "uint8"
        },
        {
          "internalType": "uint8",
          "name": "result",
          "type": "uint8"
        },
        {
          "internalType": "bool",
          "name": "hasWon",
          "type": "bool"
        },
        {
          "internalType": "bool",
          "name": "isPlayed",
          "type": "bool"
        },
        {
          "internalType": "uint256",
          "name": "timestamp",
          "type": "uint256"
        }
      ],
      "stateMutability": "view",
      "type": "function"
    },
    {
      "inputs": [],
      "name": "getBalance",
      "outputs": [
        {
          "internalType": "uint256",
          "name": "",
          "type": "uint256"
        }
      ],
      "stateMutability": "view",
      "type": "function"
    },
    {
      "inputs": [
        {
          "internalType": "address",
          "name": "player",
          "type": "address"
        }
      ],
      "name": "getCooldownRemaining",
      "outputs": [
        {
          "internalType": "uint256",
          "name": "",
          "type": "uint256"
        }
      ],
      "stateMutability": "view",
      "type": "function"
    },
    {
      "inputs": [
        {
          "internalType": "uint256",
          "name": "gameId",
          "type": "uint256"
        }
      ],
      "name": "getGame",
      "outputs": [
        {
          "components": [
            {
              "internalType": "address",
              "name": "player",
              "type": "address"
            },
            {
              "internalType": "enum Roulette.BetType",
              "name": "betType",
              "type": "uint8"
            },
            {
              "internalType": "uint8",
              "name": "numberBet",
              "type": "uint8"
            },
            {
              "internalType": "uint8",
              "name": "result",
              "type": "uint8"
            },
            {
              "internalType": "bool",
              "name": "hasWon",
              "type": "bool"
            },
            {
              "internalType": "bool",
              "name": "isPlayed",
              "type": "bool"
            },
            {
              "internalType": "uint256",
              "name": "timestamp",
              "type": "uint256"
            }
          ],
          "internalType": "struct Roulette.Game",
          "name": "",
          "type": "tuple"
        }
      ],
      "stateMutability": "view",
      "type": "function"
    },
    {
      "inputs": [
        {
          "internalType": "address",
          "name": "player",
          "type": "address"
        }
      ],
      "name": "getPlayerGames",
      "outputs": [
        {
          "internalType": "uint256[]",
          "name": "",
          "type": "uint256[]"
        }
      ],
      "stateMutability": "view",
      "type": "function"
    },
    {
      "inputs": [
        {
          "internalType": "address",
          "name": "player",
          "type": "address"
        }
      ],
      "name": "getRequiredCooldown",
      "outputs": [
        {
          "internalType": "uint256",
          "name": "",
          "type": "uint256"
        }
      ],
      "stateMutability": "view",
      "type": "function"
    },
    {
      "inputs": [
        {
          "internalType": "address",
          "name": "",
          "type": "address"
        }
      ],
      "name": "lastWinAt",
      "outputs": [
        {
          "internalType": "uint256",
          "name": "",
          "type": "uint256"
        }
      ],
      "stateMutability": "view",
      "type": "function"
    },
    {
      "inputs": [
        {
          "internalType": "address",
          "name": "",
          "type": "address"
        },
        {
          "internalType": "uint256",
          "name": "",
          "type": "uint256"
        }
      ],
      "name": "playerGames",
      "outputs": [
        {
          "internalType": "uint256",
          "name": "",
          "type": "uint256"
        }
      ],
      "stateMutability": "view",
      "type": "function"
    },
    {
      "inputs": [],
      "name": "rewardNFT",
      "outputs": [
        {
          "internalType": "contract RewardNFT",
          "name": "",
          "type": "address"
        }
      ],
      "stateMutability": "view",
      "type": "function"
    },
    {
      "inputs": [
        {
          "internalType": "address",
          "name": "",
          "type": "address"
        }
      ],
      "name": "winStreak",
      "outputs": [
        {
          "internalType": "uint256",
          "name": "",
          "type": "uint256"
        }
      ],
      "stateMutability": "view",
      "type": "function"
    }
  ],
  "bytecode": "0x6080604052604051806102400160405280600160ff168152602001600360ff168152602001600560ff168152602001600760ff168152602001600960ff168152602001600c60ff168152602001600e60ff168152602001601060ff168152602001601260ff168152602001601360ff168152602001601560ff168152602001601760ff168152602001601960ff168152602001601b60ff168152602001601e60ff168152602001602060ff168152602001602260ff168152602001602460ff1681525060009060126100d29291906102be565b503480156100df57600080fd5b50604051612e7a380380612e7a833981810160405281019061010191906103e5565b80600160006101000a81548173ffffffffffffffffffffffffffffffffffffffff021916908373ffffffffffffffffffffffffffffffffffffffff1602179055506040518060600160405280602e8152602001612e4c602e91396007600080600381111561017257610171610412565b5b600381111561018457610183610412565b5b8152602001908152602001600020908161019e9190610691565b506040518060600160405280602e8152602001612df0602e913960076000600160038111156101d0576101cf610412565b5b60038111156101e2576101e1610412565b5b815260200190815260200160002090816101fc9190610691565b506040518060600160405280602e8152602001612dc2602e9139600760006002600381111561022e5761022d610412565b5b60038111156102405761023f610412565b5b8152602001908152602001600020908161025a9190610691565b506040518060600160405280602e8152602001612e1e602e91396007600060038081111561028b5761028a610412565b5b600381111561029d5761029c610412565b5b815260200190815260200160002090816102b79190610691565b5050610763565b82805482825590600052602060002090601f016020900481019282156103545791602002820160005b8382111561032557835183826101000a81548160ff021916908360ff16021790555092602001926001016020816000010492830192600103026102e7565b80156103525782816101000a81549060ff0219169055600101602081600001049283019260010302610325565b505b5090506103619190610365565b5090565b5b8082111561037e576000816000905550600101610366565b5090565b600080fd5b600073ffffffffffffffffffffffffffffffffffffffff82169050919050565b60006103b282610387565b9050919050565b6103c2816103a7565b81146103cd57600080fd5b50565b6000815190506103df816103b9565b92915050565b6000602082840312156103fb576103fa610382565b5b6000610409848285016103d0565b91505092915050565b7f4e487b7100000000000000000000000000000000000000000000000000000000600052602160045260246000fd5b600081519050919050565b7f4e487b7100000000000000000000000000000000000000000000000000000000600052604160045260246000fd5b7f4e487b7100000000000000000000000000000000000000000000000000000000600052602260045260246000fd5b600060028204905060018216806104c257607f821691505b6020821081036104d5576104d461047b565b5b50919050565b60008190508160005260206000209050919050565b60006020601f8301049050919050565b600082821b905092915050565b60006008830261053d7fffffffffffffffffffffffffffffffffffffffffffffffffffffffffffffffff82610500565b6105478683610500565b95508019841693508086168417925050509392505050565b6000819050919050565b6000819050919050565b600061058e6105896105848461055f565b610569565b61055f565b9050919050565b6000819050919050565b6105a883610573565b6105bc6105b482610595565b84845461050d565b825550505050565b600090565b6105d16105c4565b6105dc81848461059f565b505050565b5b81811015610600576105f56000826105c9565b6001810190506105e2565b5050565b601f82111561064557610616816104db565b61061f846104f0565b8101602085101561062e578190505b61064261063a856104f0565b8301826105e1565b50505b505050565b600082821c905092915050565b60006106686000198460080261064a565b1980831691505092915050565b60006106818383610657565b9150826002028217905092915050565b61069a82610441565b67ffffffffffffffff8111156106b3576106b261044c565b5b6106bd82546104aa565b6106c8828285610604565b600060209050601f8311600181146106fb57600084156106e9578287015190505b6106f38582610675565b86555061075b565b601f198416610709866104db565b60005b828110156107315784890151825560018201915060208501945060208101905061070c565b8683101561074e578489015161074a601f891682610657565b8355505b6001600288020188555050505b505050505050565b612650806107726000396000f3fe6080604052600436106100a75760003560e01c8063511805851161006457806351180585146101fc5780635b46900c14610239578063a2f77bcc14610276578063b6c2eb74146102b3578063b7ac58ad146102f0578063c8ea4dd614610320576100a7565b80630a5694c2146100ac578063117a5b90146100e957806312065fe01461012c578063129daf841461015757806316d6c9c0146101945780631a95f15f146101d1575b600080fd5b3480156100b857600080fd5b506100d360048036038101906100ce91906117aa565b61034b565b6040516100e091906117f9565b60405180910390f35b3480156100f557600080fd5b50610110600480360381019061010b9190611814565b61037c565b60405161012397969594939291906118fe565b60405180910390f35b34801561013857600080fd5b5061014161041f565b60405161014e91906117f9565b60405180910390f35b34801561016357600080fd5b5061017e6004803603810190610179919061196d565b610427565b60405161018b9190611a58565b60405180910390f35b3480156101a057600080fd5b506101bb60048036038101906101b6919061196d565b6104be565b6040516101c891906117f9565b60405180910390f35b3480156101dd57600080fd5b506101e661056f565b6040516101f391906117f9565b60405180910390f35b34801561020857600080fd5b50610223600480360381019061021e919061196d565b61057a565b60405161023091906117f9565b60405180910390f35b34801561024557600080fd5b50610260600480360381019061025b919061196d565b610592565b60405161026d91906117f9565b60405180910390f35b34801561028257600080fd5b5061029d60048036038101906102989190611814565b610617565b6040516102aa9190611b44565b60405180910390f35b3480156102bf57600080fd5b506102da60048036038101906102d5919061196d565b61074f565b6040516102e791906117f9565b60405180910390f35b61030a60048036038101906103059190611bb0565b610767565b60405161031791906117f9565b60405180910390f35b34801561032c57600080fd5b50610335610e68565b6040516103429190611c4f565b60405180910390f35b6004602052816000526040600020818154811061036757600080fd5b90600052602060002001600091509150505481565b60036020528060005260406000206000915090508060000160009054906101000a900473ffffffffffffffffffffffffffffffffffffffff16908060000160149054906101000a900460ff16908060000160159054906101000a900460ff16908060000160169054906101000a900460ff16908060000160179054906101000a900460ff16908060000160189054906101000a900460ff16908060010154905087565b600047905090565b6060600460008373ffffffffffffffffffffffffffffffffffffffff1673ffffffffffffffffffffffffffffffffffffffff1681526020019081526020016000208054806020026020016040519081016040528092919081815260200182805480156104b257602002820191906000526020600020905b81548152602001906001019080831161049e575b50505050509050919050565b600080600560008473ffffffffffffffffffffffffffffffffffffffff1673ffffffffffffffffffffffffffffffffffffffff168152602001908152602001600020540361050f576000905061056a565b603c600560008473ffffffffffffffffffffffffffffffffffffffff1673ffffffffffffffffffffffffffffffffffffffff16815260200190815260200160002054600261055d9190611dcc565b6105679190611e17565b90505b919050565b662386f26fc1000081565b60056020528060005260406000206000915090505481565b60008061059e836104be565b9050600081600660008673ffffffffffffffffffffffffffffffffffffffff1673ffffffffffffffffffffffffffffffffffffffff168152602001908152602001600020546105ed9190611e59565b905080421061060157600092505050610612565b428161060d9190611e8d565b925050505b919050565b61061f6116a2565b600360008381526020019081526020016000206040518060e00160405290816000820160009054906101000a900473ffffffffffffffffffffffffffffffffffffffff1673ffffffffffffffffffffffffffffffffffffffff1673ffffffffffffffffffffffffffffffffffffffff1681526020016000820160149054906101000a900460ff16600b8111156106b8576106b7611850565b5b600b8111156106ca576106c9611850565b5b81526020016000820160159054906101000a900460ff1660ff1660ff1681526020016000820160169054906101000a900460ff1660ff1660ff1681526020016000820160179054906101000a900460ff161515151581526020016000820160189054906101000a900460ff161515151581526020016001820154815250509050919050565b60066020528060005260406000206000915090505481565b6000662386f26fc1000034146107b2576040517f08c379a00000000000000000000000000000000000000000000000000000000081526004016107a990611f1e565b60405180910390fd5b60248260ff1611156107f9576040517f08c379a00000000000000000000000000000000000000000000000000000000081526004016107f090611f8a565b60405180910390fd5b6000610804336104be565b905080600660003373ffffffffffffffffffffffffffffffffffffffff1673ffffffffffffffffffffffffffffffffffffffff168152602001908152602001600020546108519190611e59565b421015610893576040517f08c379a000000000000000000000000000000000000000000000000000000000815260040161088a90611ff6565b60405180910390fd5b600a600b8111156108a7576108a6611850565b5b84600b8111156108ba576108b9611850565b5b0361091b5760018360ff16101580156108d7575060248360ff1611155b610916576040517f08c379a000000000000000000000000000000000000000000000000000000000815260040161090d90612062565b60405180910390fd5b61098e565b600b8081111561092e5761092d611850565b5b84600b81111561094157610940611850565b5b0361098d5760008360ff161461098c576040517f08c379a0000000000000000000000000000000000000000000000000000000008152600401610983906120ce565b60405180910390fd5b5b5b6000600260008154809291906109a3906120ee565b9190505590506040518060e001604052803373ffffffffffffffffffffffffffffffffffffffff16815260200186600b8111156109e3576109e2611850565b5b81526020018560ff168152602001600060ff168152602001600015158152602001600015158152602001428152506003600083815260200190815260200160002060008201518160000160006101000a81548173ffffffffffffffffffffffffffffffffffffffff021916908373ffffffffffffffffffffffffffffffffffffffff16021790555060208201518160000160146101000a81548160ff0219169083600b811115610a9657610a95611850565b5b021790555060408201518160000160156101000a81548160ff021916908360ff16021790555060608201518160000160166101000a81548160ff021916908360ff16021790555060808201518160000160176101000a81548160ff02191690831515021790555060a08201518160000160186101000a81548160ff02191690831515021790555060c08201518160010155905050600460003373ffffffffffffffffffffffffffffffffffffffff1673ffffffffffffffffffffffffffffffffffffffff168152602001908152602001600020819080600181540180825580915050600190039060005260206000200160009091909190915055803373ffffffffffffffffffffffffffffffffffffffff167f3f697f14eb77b020b7406eb7b38b326ca64c327d2587fe43e98a568307a9e2458787604051610bd9929190612136565b60405180910390a36000602542443385604051602001610bfc94939291906121c8565b6040516020818303038152906040528051906020012060001c610c1f9190612245565b9050806003600084815260200190815260200160002060000160166101000a81548160ff021916908360ff16021790555060016003600084815260200190815260200160002060000160186101000a81548160ff0219169083151502179055506000610c8c878784610e8e565b9050806003600085815260200190815260200160002060000160176101000a81548160ff0219169083151502179055503373ffffffffffffffffffffffffffffffffffffffff16837fb99ff47caf94535fa9039490453d904af9f2799637fe4bd80743d3c359ee1dc78484604051610d05929190612276565b60405180910390a38015610dbc57600560003373ffffffffffffffffffffffffffffffffffffffff1673ffffffffffffffffffffffffffffffffffffffff1681526020019081526020016000206000815480929190610d63906120ee565b919050555042600660003373ffffffffffffffffffffffffffffffffffffffff1673ffffffffffffffffffffffffffffffffffffffff16815260200190815260200160002081905550610db73388856111dd565b610e5b565b6000600560003373ffffffffffffffffffffffffffffffffffffffff1673ffffffffffffffffffffffffffffffffffffffff168152602001908152602001600020541115610e5a57600560003373ffffffffffffffffffffffffffffffffffffffff1673ffffffffffffffffffffffffffffffffffffffff1681526020019081526020016000206000815480929190610e549061229f565b91905055505b5b8294505050505092915050565b600160009054906101000a900473ffffffffffffffffffffffffffffffffffffffff1681565b6000600b80811115610ea357610ea2611850565b5b84600b811115610eb657610eb5611850565b5b03610ec95760008260ff161490506111d6565b60008260ff1603610edd57600090506111d6565b6000600b811115610ef157610ef0611850565b5b84600b811115610f0457610f03611850565b5b03610f1957610f128261162b565b90506111d6565b6001600b811115610f2d57610f2c611850565b5b84600b811115610f4057610f3f611850565b5b03610f5657610f4e8261162b565b1590506111d6565b6002600b811115610f6a57610f69611850565b5b84600b811115610f7d57610f7c611850565b5b03610f9c576000600283610f9191906122c8565b60ff161490506111d6565b6003600b811115610fb057610faf611850565b5b84600b811115610fc357610fc2611850565b5b03610fe2576001600283610fd791906122c8565b60ff161490506111d6565b6004600b811115610ff657610ff5611850565b5b84600b81111561100957611008611850565b5b0361102d5760018260ff16101580156110265750600c8260ff1611155b90506111d6565b6005600b81111561104157611040611850565b5b84600b81111561105457611053611850565b5b0361107857600d8260ff1610158015611071575060188260ff1611155b90506111d6565b6006600b81111561108c5761108b611850565b5b84600b81111561109f5761109e611850565b5b036110c35760198260ff16101580156110bc575060248260ff1611155b90506111d6565b6007600b8111156110d7576110d6611850565b5b84600b8111156110ea576110e9611850565b5b036111095760016003836110fe91906122c8565b60ff161490506111d6565b6008600b81111561111d5761111c611850565b5b84600b8111156111305761112f611850565b5b0361114f57600260038361114491906122c8565b60ff161490506111d6565b6009600b81111561116357611162611850565b5b84600b81111561117657611175611850565b5b0361119557600060038361118a91906122c8565b60ff161490506111d6565b600a600b8111156111a9576111a8611850565b5b84600b8111156111bc576111bb611850565b5b036111d1578260ff168260ff161490506111d6565b600090505b9392505050565b600160009054906101000a900473ffffffffffffffffffffffffffffffffffffffff1673ffffffffffffffffffffffffffffffffffffffff16631b5e26bc846040518263ffffffff1660e01b815260040161123891906122f9565b602060405180830381865afa158015611255573d6000803e3d6000fd5b505050506040513d601f19601f820116820180604052508101906112799190612340565b156116265760006060600b8081111561129557611294611850565b5b84600b8111156112a8576112a7611850565b5b036112ee57600391506040518060400160405280600d81526020017f4c6567656e64617279204c6f6f0000000000000000000000000000000000000081525090506114f3565b600a600b81111561130257611301611850565b5b84600b81111561131557611314611850565b5b0361135b57600291506040518060400160405280600d81526020017f45706963204d617474686961730000000000000000000000000000000000000081525090506114f2565b6004600b81111561136f5761136e611850565b5b84600b81111561138257611381611850565b5b14806113b257506005600b81111561139d5761139c611850565b5b84600b8111156113b0576113af611850565b5b145b806113e157506006600b8111156113cc576113cb611850565b5b84600b8111156113df576113de611850565b5b145b8061141057506007600b8111156113fb576113fa611850565b5b84600b81111561140e5761140d611850565b5b145b8061143f57506008600b81111561142a57611429611850565b5b84600b81111561143d5761143c611850565b5b145b8061146e57506009600b81111561145957611458611850565b5b84600b81111561146c5761146b611850565b5b145b156114b457600191506040518060400160405280600881526020017f526172652043617400000000000000000000000000000000000000000000000081525090506114f1565b600091506040518060400160405280600d81526020017f436f6d6d6f6e20426c6168616a0000000000000000000000000000000000000081525090505b5b5b6000600160009054906101000a900473ffffffffffffffffffffffffffffffffffffffff1673ffffffffffffffffffffffffffffffffffffffff1663e7e107898784866007600089600381111561154d5761154c611850565b5b600381111561155f5761155e611850565b5b81526020019081526020016000206040518563ffffffff1660e01b815260040161158c949392919061252d565b6020604051808303816000875af11580156115ab573d6000803e3d6000fd5b505050506040513d601f19601f820116820180604052508101906115cf9190612595565b9050838673ffffffffffffffffffffffffffffffffffffffff167fcb5f2f472080f2f19d29d0043fd09dbfa0211bd5cb956788902a32ea50d8a59c838660405161161a9291906125c2565b60405180910390a35050505b505050565b600080600090505b600080549050811015611697578260ff1660008281548110611658576116576125eb565b5b90600052602060002090602091828204019190069054906101000a900460ff1660ff160361168a57600191505061169d565b8080600101915050611633565b50600090505b919050565b6040518060e00160405280600073ffffffffffffffffffffffffffffffffffffffff1681526020016000600b8111156116de576116dd611850565b5b8152602001600060ff168152602001600060ff168152602001600015158152602001600015158152602001600081525090565b600080fd5b600073ffffffffffffffffffffffffffffffffffffffff82169050919050565b600061174182611716565b9050919050565b61175181611736565b811461175c57600080fd5b50565b60008135905061176e81611748565b92915050565b6000819050919050565b61178781611774565b811461179257600080fd5b50565b6000813590506117a48161177e565b92915050565b600080604083850312156117c1576117c0611711565b5b60006117cf8582860161175f565b92505060206117e085828601611795565b9150509250929050565b6117f381611774565b82525050565b600060208201905061180e60008301846117ea565b92915050565b60006020828403121561182a57611829611711565b5b600061183884828501611795565b91505092915050565b61184a81611736565b82525050565b7f4e487b7100000000000000000000000000000000000000000000000000000000600052602160045260246000fd5b600c81106118905761188f611850565b5b50565b60008190506118a18261187f565b919050565b60006118b182611893565b9050919050565b6118c1816118a6565b82525050565b600060ff82169050919050565b6118dd816118c7565b82525050565b60008115159050919050565b6118f8816118e3565b82525050565b600060e082019050611913600083018a611841565b61192060208301896118b8565b61192d60408301886118d4565b61193a60608301876118d4565b61194760808301866118ef565b61195460a08301856118ef565b61196160c08301846117ea565b98975050505050505050565b60006020828403121561198357611982611711565b5b60006119918482850161175f565b91505092915050565b600081519050919050565b600082825260208201905092915050565b6000819050602082019050919050565b6119cf81611774565b82525050565b60006119e183836119c6565b60208301905092915050565b6000602082019050919050565b6000611a058261199a565b611a0f81856119a5565b9350611a1a836119b6565b8060005b83811015611a4b578151611a3288826119d5565b9750611a3d836119ed565b925050600181019050611a1e565b5085935050505092915050565b60006020820190508181036000830152611a7281846119fa565b905092915050565b611a8381611736565b82525050565b611a92816118a6565b82525050565b611aa1816118c7565b82525050565b611ab0816118e3565b82525050565b60e082016000820151611acc6000850182611a7a565b506020820151611adf6020850182611a89565b506040820151611af26040850182611a98565b506060820151611b056060850182611a98565b506080820151611b186080850182611aa7565b5060a0820151611b2b60a0850182611aa7565b5060c0820151611b3e60c08501826119c6565b50505050565b600060e082019050611b596000830184611ab6565b92915050565b600c8110611b6c57600080fd5b50565b600081359050611b7e81611b5f565b92915050565b611b8d816118c7565b8114611b9857600080fd5b50565b600081359050611baa81611b84565b92915050565b60008060408385031215611bc757611bc6611711565b5b6000611bd585828601611b6f565b9250506020611be685828601611b9b565b9150509250929050565b6000819050919050565b6000611c15611c10611c0b84611716565b611bf0565b611716565b9050919050565b6000611c2782611bfa565b9050919050565b6000611c3982611c1c565b9050919050565b611c4981611c2e565b82525050565b6000602082019050611c646000830184611c40565b92915050565b7f4e487b7100000000000000000000000000000000000000000000000000000000600052601160045260246000fd5b60008160011c9050919050565b6000808291508390505b6001851115611cf057808604811115611ccc57611ccb611c6a565b5b6001851615611cdb5780820291505b8081029050611ce985611c99565b9450611cb0565b94509492505050565b600082611d095760019050611dc5565b81611d175760009050611dc5565b8160018114611d2d5760028114611d3757611d66565b6001915050611dc5565b60ff841115611d4957611d48611c6a565b5b8360020a915084821115611d6057611d5f611c6a565b5b50611dc5565b5060208310610133831016604e8410600b8410161715611d9b5782820a905083811115611d9657611d95611c6a565b5b611dc5565b611da88484846001611ca6565b92509050818404811115611dbf57611dbe611c6a565b5b81810290505b9392505050565b6000611dd782611774565b9150611de283611774565b9250611e0f7fffffffffffffffffffffffffffffffffffffffffffffffffffffffffffffffff8484611cf9565b905092915050565b6000611e2282611774565b9150611e2d83611774565b9250828202611e3b81611774565b91508282048414831517611e5257611e51611c6a565b5b5092915050565b6000611e6482611774565b9150611e6f83611774565b9250828201905080821115611e8757611e86611c6a565b5b92915050565b6000611e9882611774565b9150611ea383611774565b9250828203905081811115611ebb57611eba611c6a565b5b92915050565b600082825260208201905092915050565b7f496e636f7272656374207469636b657420707269636500000000000000000000600082015250565b6000611f08601683611ec1565b9150611f1382611ed2565b602082019050919050565b60006020820190508181036000830152611f3781611efb565b9050919050565b7f4e756d626572206d757374206265206265747765656e203020616e6420333600600082015250565b6000611f74601f83611ec1565b9150611f7f82611f3e565b602082019050919050565b60006020820190508181036000830152611fa381611f67565b9050919050565b7f436f6f6c646f776e206578706f6e656e7469656c206163746966000000000000600082015250565b6000611fe0601a83611ec1565b9150611feb82611faa565b602082019050919050565b6000602082019050818103600083015261200f81611fd3565b9050919050565b7f4e756d62657220626574206d75737420626520312d3336000000000000000000600082015250565b600061204c601783611ec1565b915061205782612016565b602082019050919050565b6000602082019050818103600083015261207b8161203f565b9050919050565b7f5a65726f20626574206d7573742073706563696679206e756d62657220300000600082015250565b60006120b8601e83611ec1565b91506120c382612082565b602082019050919050565b600060208201905081810360008301526120e7816120ab565b9050919050565b60006120f982611774565b91507fffffffffffffffffffffffffffffffffffffffffffffffffffffffffffffffff820361212b5761212a611c6a565b5b600182019050919050565b600060408201905061214b60008301856118b8565b61215860208301846118d4565b9392505050565b6000819050919050565b61217a61217582611774565b61215f565b82525050565b60008160601b9050919050565b600061219882612180565b9050919050565b60006121aa8261218d565b9050919050565b6121c26121bd82611736565b61219f565b82525050565b60006121d48287612169565b6020820191506121e48286612169565b6020820191506121f482856121b1565b6014820191506122048284612169565b60208201915081905095945050505050565b7f4e487b7100000000000000000000000000000000000000000000000000000000600052601260045260246000fd5b600061225082611774565b915061225b83611774565b92508261226b5761226a612216565b5b828206905092915050565b600060408201905061228b60008301856118d4565b61229860208301846118ef565b9392505050565b60006122aa82611774565b9150600082036122bd576122bc611c6a565b5b600182039050919050565b60006122d3826118c7565b91506122de836118c7565b9250826122ee576122ed612216565b5b828206905092915050565b600060208201905061230e6000830184611841565b92915050565b61231d816118e3565b811461232857600080fd5b50565b60008151905061233a81612314565b92915050565b60006020828403121561235657612355611711565b5b60006123648482850161232b565b91505092915050565b600081519050919050565b60005b8381101561239657808201518184015260208101905061237b565b60008484015250505050565b6000601f19601f8301169050919050565b60006123be8261236d565b6123c88185611ec1565b93506123d8818560208601612378565b6123e1816123a2565b840191505092915050565b600481106123fd576123fc611850565b5b50565b600081905061240e826123ec565b919050565b600061241e82612400565b9050919050565b61242e81612413565b82525050565b7f4e487b7100000000000000000000000000000000000000000000000000000000600052602260045260246000fd5b6000600282049050600182168061247b57607f821691505b60208210810361248e5761248d612434565b5b50919050565b60008190508160005260206000209050919050565b600081546124b681612463565b6124c08186611ec1565b945060018216600081146124db57600181146124f157612524565b60ff198316865281151560200286019350612524565b6124fa85612494565b60005b8381101561251c578154818901526001820191506020810190506124fd565b808801955050505b50505092915050565b60006080820190506125426000830187611841565b818103602083015261255481866123b3565b90506125636040830185612425565b818103606083015261257581846124a9565b905095945050505050565b60008151905061258f8161177e565b92915050565b6000602082840312156125ab576125aa611711565b5b60006125b984828501612580565b91505092915050565b60006040820190506125d760008301856117ea565b6125e46020830184612425565b9392505050565b7f4e487b7100000000000000000000000000000000000000000000000000000000600052603260045260246000fdfea264697066735822122022612d714db436f1466d5d1938bb70dfe42ca65a5f6f011cad4031bf53c19e0d64736f6c634300081c0033516d4e744144587433614132507150585268364c474772506157336d39484a674c5475546d54384d456235527845516d5664614b76724d64766e58796a42734e314378674c7079474344763961594c3859676347596a356b57437079516d624842486272764d59623242374b6b6b665864394e336469786643613741574872396d50664b5977655a6e33516d545a3976574a386979657371756d555234477a6b457962364b7055687463454a5a6932716a5231777a343351",
  "linkReferences": {},
  "deployedLinkReferences": {}
}