{
  "_format": "hh-sol-artifact-1",
  "contractName": "Roulette",
  "sourceName": "contracts/Roulette.sol",
  "abi": [
    {
      "inputs": [
        {
          "internalType": "address",
          "name": "_rewardNFTAddress",
          "type": "address"
        }
      ],
      "stateMutability": "nonpayable",
      "type": "constructor"
    },
    {
      "anonymous": false,
      "inputs": [
        {
          "indexed": true,
          "internalType": "address",
          "name": "player",
          "type": "address"
        },
        {
          "indexed": true,
          "internalType": "uint256",
          "name": "gameId",
          "type": "uint256"
        },
        {
          "indexed": false,
          "internalType": "uint256",
          "name": "nftTokenId",
          "type": "uint256"
        },
        {
          "indexed": false,
          "internalType": "enum RewardNFT.RewardType",
          "name": "rewardType",
          "type": "uint8"
        }
      ],
      "name": "RewardDistributed",
      "type": "event"
    },
    {
      "anonymous": false,
      "inputs": [
        {
          "indexed": true,
          "internalType": "uint256",
          "name": "gameId",
          "type": "uint256"
        },
        {
          "indexed": true,
          "internalType": "address",
          "name": "player",
          "type": "address"
        },
        {
          "indexed": false,
          "internalType": "uint8",
          "name": "result",
          "type": "uint8"
        },
        {
          "indexed": false,
          "internalType": "bool",
          "name": "hasWon",
          "type": "bool"
        }
      ],
      "name": "RouletteSpun",
      "type": "event"
    },
    {
      "anonymous": false,
      "inputs": [
        {
          "indexed": true,
          "internalType": "address",
          "name": "player",
          "type": "address"
        },
        {
          "indexed": true,
          "internalType": "uint256",
          "name": "gameId",
          "type": "uint256"
        },
        {
          "indexed": false,
          "internalType": "enum Roulette.BetType",
          "name": "betType",
          "type": "uint8"
        },
        {
          "indexed": false,
          "internalType": "uint8",
          "name": "numberBet",
          "type": "uint8"
        }
      ],
      "name": "TicketPurchased",
      "type": "event"
    },
    {
      "inputs": [],
      "name": "TICKET_PRICE",
      "outputs": [
        {
          "internalType": "uint256",
          "name": "",
          "type": "uint256"
        }
      ],
      "stateMutability": "view",
      "type": "function"
    },
    {
      "inputs": [
        {
          "internalType": "enum Roulette.BetType",
          "name": "betType",
          "type": "uint8"
        },
        {
          "internalType": "uint8",
          "name": "numberBet",
          "type": "uint8"
        }
      ],
      "name": "buyTicketAndSpin",
      "outputs": [
        {
          "internalType": "uint256",
          "name": "",
          "type": "uint256"
        }
      ],
      "stateMutability": "payable",
      "type": "function"
    },
    {
      "inputs": [
        {
          "internalType": "uint256",
          "name": "",
          "type": "uint256"
        }
      ],
      "name": "games",
      "outputs": [
        {
          "internalType": "address",
          "name": "player",
          "type": "address"
        },
        {
          "internalType": "enum Roulette.BetType",
          "name": "betType",
          "type": "uint8"
        },
        {
          "internalType": "uint8",
          "name": "numberBet",
          "type": "uint8"
        },
        {
          "internalType": "uint8",
          "name": "result",
          "type": "uint8"
        },
        {
          "internalType": "bool",
          "name": "hasWon",
          "type": "bool"
        },
        {
          "internalType": "bool",
          "name": "isPlayed",
          "type": "bool"
        },
        {
          "internalType": "uint256",
          "name": "timestamp",
          "type": "uint256"
        }
      ],
      "stateMutability": "view",
      "type": "function"
    },
    {
      "inputs": [],
      "name": "getBalance",
      "outputs": [
        {
          "internalType": "uint256",
          "name": "",
          "type": "uint256"
        }
      ],
      "stateMutability": "view",
      "type": "function"
    },
    {
      "inputs": [
        {
          "internalType": "uint256",
          "name": "gameId",
          "type": "uint256"
        }
      ],
      "name": "getGame",
      "outputs": [
        {
          "components": [
            {
              "internalType": "address",
              "name": "player",
              "type": "address"
            },
            {
              "internalType": "enum Roulette.BetType",
              "name": "betType",
              "type": "uint8"
            },
            {
              "internalType": "uint8",
              "name": "numberBet",
              "type": "uint8"
            },
            {
              "internalType": "uint8",
              "name": "result",
              "type": "uint8"
            },
            {
              "internalType": "bool",
              "name": "hasWon",
              "type": "bool"
            },
            {
              "internalType": "bool",
              "name": "isPlayed",
              "type": "bool"
            },
            {
              "internalType": "uint256",
              "name": "timestamp",
              "type": "uint256"
            }
          ],
          "internalType": "struct Roulette.Game",
          "name": "",
          "type": "tuple"
        }
      ],
      "stateMutability": "view",
      "type": "function"
    },
    {
      "inputs": [
        {
          "internalType": "address",
          "name": "player",
          "type": "address"
        }
      ],
      "name": "getPlayerGames",
      "outputs": [
        {
          "internalType": "uint256[]",
          "name": "",
          "type": "uint256[]"
        }
      ],
      "stateMutability": "view",
      "type": "function"
    },
    {
      "inputs": [
        {
          "internalType": "address",
          "name": "",
          "type": "address"
        },
        {
          "internalType": "uint256",
          "name": "",
          "type": "uint256"
        }
      ],
      "name": "playerGames",
      "outputs": [
        {
          "internalType": "uint256",
          "name": "",
          "type": "uint256"
        }
      ],
      "stateMutability": "view",
      "type": "function"
    },
    {
      "inputs": [],
      "name": "rewardNFT",
      "outputs": [
        {
          "internalType": "contract RewardNFT",
          "name": "",
          "type": "address"
        }
      ],
      "stateMutability": "view",
      "type": "function"
    }
  ],
  "bytecode": "0x6080604052604051806102400160405280600160ff168152602001600360ff168152602001600560ff168152602001600760ff168152602001600960ff168152602001600c60ff168152602001600e60ff168152602001601060ff168152602001601260ff168152602001601360ff168152602001601560ff168152602001601760ff168152602001601960ff168152602001601b60ff168152602001601e60ff168152602001602060ff168152602001602260ff168152602001602460ff1681525060009060126100d2929190610148565b503480156100df57600080fd5b506040516120fa3803806120fa8339818101604052810190610101919061026f565b80600160006101000a81548173ffffffffffffffffffffffffffffffffffffffff021916908373ffffffffffffffffffffffffffffffffffffffff1602179055505061029c565b82805482825590600052602060002090601f016020900481019282156101de5791602002820160005b838211156101af57835183826101000a81548160ff021916908360ff1602179055509260200192600101602081600001049283019260010302610171565b80156101dc5782816101000a81549060ff02191690556001016020816000010492830192600103026101af565b505b5090506101eb91906101ef565b5090565b5b808211156102085760008160009055506001016101f0565b5090565b600080fd5b600073ffffffffffffffffffffffffffffffffffffffff82169050919050565b600061023c82610211565b9050919050565b61024c81610231565b811461025757600080fd5b50565b60008151905061026981610243565b92915050565b6000602082840312156102855761028461020c565b5b60006102938482850161025a565b91505092915050565b611e4f806102ab6000396000f3fe60806040526004361061007b5760003560e01c80631a95f15f1161004e5780631a95f15f14610168578063a2f77bcc14610193578063b7ac58ad146101d0578063c8ea4dd6146102005761007b565b80630a5694c214610080578063117a5b90146100bd57806312065fe014610100578063129daf841461012b575b600080fd5b34801561008c57600080fd5b506100a760048036038101906100a29190611315565b61022b565b6040516100b49190611364565b60405180910390f35b3480156100c957600080fd5b506100e460048036038101906100df919061137f565b61025c565b6040516100f79796959493929190611469565b60405180910390f35b34801561010c57600080fd5b506101156102ff565b6040516101229190611364565b60405180910390f35b34801561013757600080fd5b50610152600480360381019061014d91906114d8565b610307565b60405161015f91906115c3565b60405180910390f35b34801561017457600080fd5b5061017d61039e565b60405161018a9190611364565b60405180910390f35b34801561019f57600080fd5b506101ba60048036038101906101b5919061137f565b6103a9565b6040516101c791906116af565b60405180910390f35b6101ea60048036038101906101e5919061171b565b6104e1565b6040516101f79190611364565b60405180910390f35b34801561020c57600080fd5b50610215610a0b565b60405161022291906117ba565b60405180910390f35b6004602052816000526040600020818154811061024757600080fd5b90600052602060002001600091509150505481565b60036020528060005260406000206000915090508060000160009054906101000a900473ffffffffffffffffffffffffffffffffffffffff16908060000160149054906101000a900460ff16908060000160159054906101000a900460ff16908060000160169054906101000a900460ff16908060000160179054906101000a900460ff16908060000160189054906101000a900460ff16908060010154905087565b600047905090565b6060600460008373ffffffffffffffffffffffffffffffffffffffff1673ffffffffffffffffffffffffffffffffffffffff16815260200190815260200160002080548060200260200160405190810160405280929190818152602001828054801561039257602002820191906000526020600020905b81548152602001906001019080831161037e575b50505050509050919050565b662386f26fc1000081565b6103b161120d565b600360008381526020019081526020016000206040518060e00160405290816000820160009054906101000a900473ffffffffffffffffffffffffffffffffffffffff1673ffffffffffffffffffffffffffffffffffffffff1673ffffffffffffffffffffffffffffffffffffffff1681526020016000820160149054906101000a900460ff16600b81111561044a576104496113bb565b5b600b81111561045c5761045b6113bb565b5b81526020016000820160159054906101000a900460ff1660ff1660ff1681526020016000820160169054906101000a900460ff1660ff1660ff1681526020016000820160179054906101000a900460ff161515151581526020016000820160189054906101000a900460ff161515151581526020016001820154815250509050919050565b6000662386f26fc10000341461052c576040517f08c379a000000000000000000000000000000000000000000000000000000000815260040161052390611832565b60405180910390fd5b60248260ff161115610573576040517f08c379a000000000000000000000000000000000000000000000000000000000815260040161056a9061189e565b60405180910390fd5b600a600b811115610587576105866113bb565b5b83600b81111561059a576105996113bb565b5b036105fb5760018260ff16101580156105b7575060248260ff1611155b6105f6576040517f08c379a00000000000000000000000000000000000000000000000000000000081526004016105ed9061190a565b60405180910390fd5b61066e565b600b8081111561060e5761060d6113bb565b5b83600b811115610621576106206113bb565b5b0361066d5760008260ff161461066c576040517f08c379a000000000000000000000000000000000000000000000000000000000815260040161066390611976565b60405180910390fd5b5b5b600060026000815480929190610683906119c5565b9190505590506040518060e001604052803373ffffffffffffffffffffffffffffffffffffffff16815260200185600b8111156106c3576106c26113bb565b5b81526020018460ff168152602001600060ff168152602001600015158152602001600015158152602001428152506003600083815260200190815260200160002060008201518160000160006101000a81548173ffffffffffffffffffffffffffffffffffffffff021916908373ffffffffffffffffffffffffffffffffffffffff16021790555060208201518160000160146101000a81548160ff0219169083600b811115610776576107756113bb565b5b021790555060408201518160000160156101000a81548160ff021916908360ff16021790555060608201518160000160166101000a81548160ff021916908360ff16021790555060808201518160000160176101000a81548160ff02191690831515021790555060a08201518160000160186101000a81548160ff02191690831515021790555060c08201518160010155905050600460003373ffffffffffffffffffffffffffffffffffffffff1673ffffffffffffffffffffffffffffffffffffffff168152602001908152602001600020819080600181540180825580915050600190039060005260206000200160009091909190915055803373ffffffffffffffffffffffffffffffffffffffff167f3f697f14eb77b020b7406eb7b38b326ca64c327d2587fe43e98a568307a9e24586866040516108b9929190611a0d565b60405180910390a360006025424433856040516020016108dc9493929190611a9f565b6040516020818303038152906040528051906020012060001c6108ff9190611b1c565b9050806003600084815260200190815260200160002060000160166101000a81548160ff021916908360ff16021790555060016003600084815260200190815260200160002060000160186101000a81548160ff021916908315150217905550600061096c868684610a31565b9050806003600085815260200190815260200160002060000160176101000a81548160ff0219169083151502179055503373ffffffffffffffffffffffffffffffffffffffff16837fb99ff47caf94535fa9039490453d904af9f2799637fe4bd80743d3c359ee1dc784846040516109e5929190611b4d565b60405180910390a380156109ff576109fe338785610d80565b5b82935050505092915050565b600160009054906101000a900473ffffffffffffffffffffffffffffffffffffffff1681565b6000600b80811115610a4657610a456113bb565b5b84600b811115610a5957610a586113bb565b5b03610a6c5760008260ff16149050610d79565b60008260ff1603610a805760009050610d79565b6000600b811115610a9457610a936113bb565b5b84600b811115610aa757610aa66113bb565b5b03610abc57610ab582611196565b9050610d79565b6001600b811115610ad057610acf6113bb565b5b84600b811115610ae357610ae26113bb565b5b03610af957610af182611196565b159050610d79565b6002600b811115610b0d57610b0c6113bb565b5b84600b811115610b2057610b1f6113bb565b5b03610b3f576000600283610b349190611b76565b60ff16149050610d79565b6003600b811115610b5357610b526113bb565b5b84600b811115610b6657610b656113bb565b5b03610b85576001600283610b7a9190611b76565b60ff16149050610d79565b6004600b811115610b9957610b986113bb565b5b84600b811115610bac57610bab6113bb565b5b03610bd05760018260ff1610158015610bc95750600c8260ff1611155b9050610d79565b6005600b811115610be457610be36113bb565b5b84600b811115610bf757610bf66113bb565b5b03610c1b57600d8260ff1610158015610c14575060188260ff1611155b9050610d79565b6006600b811115610c2f57610c2e6113bb565b5b84600b811115610c4257610c416113bb565b5b03610c665760198260ff1610158015610c5f575060248260ff1611155b9050610d79565b6007600b811115610c7a57610c796113bb565b5b84600b811115610c8d57610c8c6113bb565b5b03610cac576001600383610ca19190611b76565b60ff16149050610d79565b6008600b811115610cc057610cbf6113bb565b5b84600b811115610cd357610cd26113bb565b5b03610cf2576002600383610ce79190611b76565b60ff16149050610d79565b6009600b811115610d0657610d056113bb565b5b84600b811115610d1957610d186113bb565b5b03610d38576000600383610d2d9190611b76565b60ff16149050610d79565b600a600b811115610d4c57610d4b6113bb565b5b84600b811115610d5f57610d5e6113bb565b5b03610d74578260ff168260ff16149050610d79565b600090505b9392505050565b600160009054906101000a900473ffffffffffffffffffffffffffffffffffffffff1673ffffffffffffffffffffffffffffffffffffffff16631b5e26bc846040518263ffffffff1660e01b8152600401610ddb9190611ba7565b602060405180830381865afa158015610df8573d6000803e3d6000fd5b505050506040513d601f19601f82011682018060405250810190610e1c9190611bee565b156111915760006060600b80811115610e3857610e376113bb565b5b84600b811115610e4b57610e4a6113bb565b5b03610e9157600391506040518060400160405280601481526020017f4469616d6f6e64205465646479202d205a65726f0000000000000000000000008152509050611096565b600a600b811115610ea557610ea46113bb565b5b84600b811115610eb857610eb76113bb565b5b03610efe57600291506040518060400160405280600c81526020017f476f6c64656e20546564647900000000000000000000000000000000000000008152509050611095565b6004600b811115610f1257610f116113bb565b5b84600b811115610f2557610f246113bb565b5b1480610f5557506005600b811115610f4057610f3f6113bb565b5b84600b811115610f5357610f526113bb565b5b145b80610f8457506006600b811115610f6f57610f6e6113bb565b5b84600b811115610f8257610f816113bb565b5b145b80610fb357506007600b811115610f9e57610f9d6113bb565b5b84600b811115610fb157610fb06113bb565b5b145b80610fe257506008600b811115610fcd57610fcc6113bb565b5b84600b811115610fe057610fdf6113bb565b5b145b8061101157506009600b811115610ffc57610ffb6113bb565b5b84600b81111561100f5761100e6113bb565b5b145b1561105757600191506040518060400160405280600c81526020017f53696c76657220546564647900000000000000000000000000000000000000008152509050611094565b600091506040518060400160405280600c81526020017f42726f6e7a65205465646479000000000000000000000000000000000000000081525090505b5b5b6000600160009054906101000a900473ffffffffffffffffffffffffffffffffffffffff1673ffffffffffffffffffffffffffffffffffffffff1663e7e107898784866040518463ffffffff1660e01b81526004016110f793929190611d2e565b6020604051808303816000875af1158015611116573d6000803e3d6000fd5b505050506040513d601f19601f8201168201806040525081019061113a9190611d94565b9050838673ffffffffffffffffffffffffffffffffffffffff167fcb5f2f472080f2f19d29d0043fd09dbfa0211bd5cb956788902a32ea50d8a59c8386604051611185929190611dc1565b60405180910390a35050505b505050565b600080600090505b600080549050811015611202578260ff16600082815481106111c3576111c2611dea565b5b90600052602060002090602091828204019190069054906101000a900460ff1660ff16036111f5576001915050611208565b808060010191505061119e565b50600090505b919050565b6040518060e00160405280600073ffffffffffffffffffffffffffffffffffffffff1681526020016000600b811115611249576112486113bb565b5b8152602001600060ff168152602001600060ff168152602001600015158152602001600015158152602001600081525090565b600080fd5b600073ffffffffffffffffffffffffffffffffffffffff82169050919050565b60006112ac82611281565b9050919050565b6112bc816112a1565b81146112c757600080fd5b50565b6000813590506112d9816112b3565b92915050565b6000819050919050565b6112f2816112df565b81146112fd57600080fd5b50565b60008135905061130f816112e9565b92915050565b6000806040838503121561132c5761132b61127c565b5b600061133a858286016112ca565b925050602061134b85828601611300565b9150509250929050565b61135e816112df565b82525050565b60006020820190506113796000830184611355565b92915050565b6000602082840312156113955761139461127c565b5b60006113a384828501611300565b91505092915050565b6113b5816112a1565b82525050565b7f4e487b7100000000000000000000000000000000000000000000000000000000600052602160045260246000fd5b600c81106113fb576113fa6113bb565b5b50565b600081905061140c826113ea565b919050565b600061141c826113fe565b9050919050565b61142c81611411565b82525050565b600060ff82169050919050565b61144881611432565b82525050565b60008115159050919050565b6114638161144e565b82525050565b600060e08201905061147e600083018a6113ac565b61148b6020830189611423565b611498604083018861143f565b6114a5606083018761143f565b6114b2608083018661145a565b6114bf60a083018561145a565b6114cc60c0830184611355565b98975050505050505050565b6000602082840312156114ee576114ed61127c565b5b60006114fc848285016112ca565b91505092915050565b600081519050919050565b600082825260208201905092915050565b6000819050602082019050919050565b61153a816112df565b82525050565b600061154c8383611531565b60208301905092915050565b6000602082019050919050565b600061157082611505565b61157a8185611510565b935061158583611521565b8060005b838110156115b657815161159d8882611540565b97506115a883611558565b925050600181019050611589565b5085935050505092915050565b600060208201905081810360008301526115dd8184611565565b905092915050565b6115ee816112a1565b82525050565b6115fd81611411565b82525050565b61160c81611432565b82525050565b61161b8161144e565b82525050565b60e08201600082015161163760008501826115e5565b50602082015161164a60208501826115f4565b50604082015161165d6040850182611603565b5060608201516116706060850182611603565b5060808201516116836080850182611612565b5060a082015161169660a0850182611612565b5060c08201516116a960c0850182611531565b50505050565b600060e0820190506116c46000830184611621565b92915050565b600c81106116d757600080fd5b50565b6000813590506116e9816116ca565b92915050565b6116f881611432565b811461170357600080fd5b50565b600081359050611715816116ef565b92915050565b600080604083850312156117325761173161127c565b5b6000611740858286016116da565b925050602061175185828601611706565b9150509250929050565b6000819050919050565b600061178061177b61177684611281565b61175b565b611281565b9050919050565b600061179282611765565b9050919050565b60006117a482611787565b9050919050565b6117b481611799565b82525050565b60006020820190506117cf60008301846117ab565b92915050565b600082825260208201905092915050565b7f496e636f7272656374207469636b657420707269636500000000000000000000600082015250565b600061181c6016836117d5565b9150611827826117e6565b602082019050919050565b6000602082019050818103600083015261184b8161180f565b9050919050565b7f4e756d626572206d757374206265206265747765656e203020616e6420333600600082015250565b6000611888601f836117d5565b915061189382611852565b602082019050919050565b600060208201905081810360008301526118b78161187b565b9050919050565b7f4e756d62657220626574206d75737420626520312d3336000000000000000000600082015250565b60006118f46017836117d5565b91506118ff826118be565b602082019050919050565b60006020820190508181036000830152611923816118e7565b9050919050565b7f5a65726f20626574206d7573742073706563696679206e756d62657220300000600082015250565b6000611960601e836117d5565b915061196b8261192a565b602082019050919050565b6000602082019050818103600083015261198f81611953565b9050919050565b7f4e487b7100000000000000000000000000000000000000000000000000000000600052601160045260246000fd5b60006119d0826112df565b91507fffffffffffffffffffffffffffffffffffffffffffffffffffffffffffffffff8203611a0257611a01611996565b5b600182019050919050565b6000604082019050611a226000830185611423565b611a2f602083018461143f565b9392505050565b6000819050919050565b611a51611a4c826112df565b611a36565b82525050565b60008160601b9050919050565b6000611a6f82611a57565b9050919050565b6000611a8182611a64565b9050919050565b611a99611a94826112a1565b611a76565b82525050565b6000611aab8287611a40565b602082019150611abb8286611a40565b602082019150611acb8285611a88565b601482019150611adb8284611a40565b60208201915081905095945050505050565b7f4e487b7100000000000000000000000000000000000000000000000000000000600052601260045260246000fd5b6000611b27826112df565b9150611b32836112df565b925082611b4257611b41611aed565b5b828206905092915050565b6000604082019050611b62600083018561143f565b611b6f602083018461145a565b9392505050565b6000611b8182611432565b9150611b8c83611432565b925082611b9c57611b9b611aed565b5b828206905092915050565b6000602082019050611bbc60008301846113ac565b92915050565b611bcb8161144e565b8114611bd657600080fd5b50565b600081519050611be881611bc2565b92915050565b600060208284031215611c0457611c0361127c565b5b6000611c1284828501611bd9565b91505092915050565b600081519050919050565b60005b83811015611c44578082015181840152602081019050611c29565b60008484015250505050565b6000601f19601f8301169050919050565b6000611c6c82611c1b565b611c7681856117d5565b9350611c86818560208601611c26565b611c8f81611c50565b840191505092915050565b60048110611cab57611caa6113bb565b5b50565b6000819050611cbc82611c9a565b919050565b6000611ccc82611cae565b9050919050565b611cdc81611cc1565b82525050565b7f516d506c616365686f6c64657200000000000000000000000000000000000000600082015250565b6000611d18600d836117d5565b9150611d2382611ce2565b602082019050919050565b6000608082019050611d4360008301866113ac565b8181036020830152611d558185611c61565b9050611d646040830184611cd3565b8181036060830152611d7581611d0b565b9050949350505050565b600081519050611d8e816112e9565b92915050565b600060208284031215611daa57611da961127c565b5b6000611db884828501611d7f565b91505092915050565b6000604082019050611dd66000830185611355565b611de36020830184611cd3565b9392505050565b7f4e487b7100000000000000000000000000000000000000000000000000000000600052603260045260246000fdfea26469706673582212208b8b403e4d67f9ab954a7e5259b837cd839598adb024ab90e3efb52cbf2bf42764736f6c634300081c0033",
  "linkReferences": {},
  "deployedLinkReferences": {}
}