{
  "_format": "hh-sol-artifact-1",
  "contractName": "Roulette",
  "sourceName": "contracts/Roulette.sol",
  "abi": [
    {
      "inputs": [
        {
          "internalType": "address",
          "name": "_rewardNFTAddress",
          "type": "address"
        }
      ],
      "stateMutability": "nonpayable",
      "type": "constructor"
    },
    {
      "anonymous": false,
      "inputs": [
        {
          "indexed": true,
          "internalType": "address",
          "name": "player",
          "type": "address"
        },
        {
          "indexed": true,
          "internalType": "uint256",
          "name": "gameId",
          "type": "uint256"
        },
        {
          "indexed": false,
          "internalType": "uint256",
          "name": "nftTokenId",
          "type": "uint256"
        },
        {
          "indexed": false,
          "internalType": "enum RewardNFT.RewardType",
          "name": "rewardType",
          "type": "uint8"
        }
      ],
      "name": "RewardDistributed",
      "type": "event"
    },
    {
      "anonymous": false,
      "inputs": [
        {
          "indexed": true,
          "internalType": "uint256",
          "name": "gameId",
          "type": "uint256"
        },
        {
          "indexed": true,
          "internalType": "address",
          "name": "player",
          "type": "address"
        },
        {
          "indexed": false,
          "internalType": "uint8",
          "name": "result",
          "type": "uint8"
        },
        {
          "indexed": false,
          "internalType": "bool",
          "name": "hasWon",
          "type": "bool"
        }
      ],
      "name": "RouletteSpun",
      "type": "event"
    },
    {
      "anonymous": false,
      "inputs": [
        {
          "indexed": true,
          "internalType": "address",
          "name": "player",
          "type": "address"
        },
        {
          "indexed": true,
          "internalType": "uint256",
          "name": "gameId",
          "type": "uint256"
        },
        {
          "indexed": false,
          "internalType": "enum Roulette.BetType",
          "name": "betType",
          "type": "uint8"
        },
        {
          "indexed": false,
          "internalType": "uint8",
          "name": "numberBet",
          "type": "uint8"
        }
      ],
      "name": "TicketPurchased",
      "type": "event"
    },
    {
      "inputs": [],
      "name": "TICKET_PRICE",
      "outputs": [
        {
          "internalType": "uint256",
          "name": "",
          "type": "uint256"
        }
      ],
      "stateMutability": "view",
      "type": "function"
    },
    {
      "inputs": [],
      "name": "WIN_COOLDOWN",
      "outputs": [
        {
          "internalType": "uint256",
          "name": "",
          "type": "uint256"
        }
      ],
      "stateMutability": "view",
      "type": "function"
    },
    {
      "inputs": [
        {
          "internalType": "enum Roulette.BetType",
          "name": "betType",
          "type": "uint8"
        },
        {
          "internalType": "uint8",
          "name": "numberBet",
          "type": "uint8"
        }
      ],
      "name": "buyTicketAndSpin",
      "outputs": [
        {
          "internalType": "uint256",
          "name": "",
          "type": "uint256"
        }
      ],
      "stateMutability": "payable",
      "type": "function"
    },
    {
      "inputs": [
        {
          "internalType": "uint256",
          "name": "",
          "type": "uint256"
        }
      ],
      "name": "games",
      "outputs": [
        {
          "internalType": "address",
          "name": "player",
          "type": "address"
        },
        {
          "internalType": "enum Roulette.BetType",
          "name": "betType",
          "type": "uint8"
        },
        {
          "internalType": "uint8",
          "name": "numberBet",
          "type": "uint8"
        },
        {
          "internalType": "uint8",
          "name": "result",
          "type": "uint8"
        },
        {
          "internalType": "bool",
          "name": "hasWon",
          "type": "bool"
        },
        {
          "internalType": "bool",
          "name": "isPlayed",
          "type": "bool"
        },
        {
          "internalType": "uint256",
          "name": "timestamp",
          "type": "uint256"
        }
      ],
      "stateMutability": "view",
      "type": "function"
    },
    {
      "inputs": [],
      "name": "getBalance",
      "outputs": [
        {
          "internalType": "uint256",
          "name": "",
          "type": "uint256"
        }
      ],
      "stateMutability": "view",
      "type": "function"
    },
    {
      "inputs": [
        {
          "internalType": "address",
          "name": "player",
          "type": "address"
        }
      ],
      "name": "getCooldownRemaining",
      "outputs": [
        {
          "internalType": "uint256",
          "name": "",
          "type": "uint256"
        }
      ],
      "stateMutability": "view",
      "type": "function"
    },
    {
      "inputs": [
        {
          "internalType": "uint256",
          "name": "gameId",
          "type": "uint256"
        }
      ],
      "name": "getGame",
      "outputs": [
        {
          "components": [
            {
              "internalType": "address",
              "name": "player",
              "type": "address"
            },
            {
              "internalType": "enum Roulette.BetType",
              "name": "betType",
              "type": "uint8"
            },
            {
              "internalType": "uint8",
              "name": "numberBet",
              "type": "uint8"
            },
            {
              "internalType": "uint8",
              "name": "result",
              "type": "uint8"
            },
            {
              "internalType": "bool",
              "name": "hasWon",
              "type": "bool"
            },
            {
              "internalType": "bool",
              "name": "isPlayed",
              "type": "bool"
            },
            {
              "internalType": "uint256",
              "name": "timestamp",
              "type": "uint256"
            }
          ],
          "internalType": "struct Roulette.Game",
          "name": "",
          "type": "tuple"
        }
      ],
      "stateMutability": "view",
      "type": "function"
    },
    {
      "inputs": [
        {
          "internalType": "address",
          "name": "player",
          "type": "address"
        }
      ],
      "name": "getPlayerGames",
      "outputs": [
        {
          "internalType": "uint256[]",
          "name": "",
          "type": "uint256[]"
        }
      ],
      "stateMutability": "view",
      "type": "function"
    },
    {
      "inputs": [
        {
          "internalType": "address",
          "name": "",
          "type": "address"
        }
      ],
      "name": "lastWinAt",
      "outputs": [
        {
          "internalType": "uint256",
          "name": "",
          "type": "uint256"
        }
      ],
      "stateMutability": "view",
      "type": "function"
    },
    {
      "inputs": [
        {
          "internalType": "address",
          "name": "",
          "type": "address"
        },
        {
          "internalType": "uint256",
          "name": "",
          "type": "uint256"
        }
      ],
      "name": "playerGames",
      "outputs": [
        {
          "internalType": "uint256",
          "name": "",
          "type": "uint256"
        }
      ],
      "stateMutability": "view",
      "type": "function"
    },
    {
      "inputs": [],
      "name": "rewardNFT",
      "outputs": [
        {
          "internalType": "contract RewardNFT",
          "name": "",
          "type": "address"
        }
      ],
      "stateMutability": "view",
      "type": "function"
    }
  ],
  "bytecode": "0x6080604052604051806102400160405280600160ff168152602001600360ff168152602001600560ff168152602001600760ff168152602001600960ff168152602001600c60ff168152602001600e60ff168152602001601060ff168152602001601260ff168152602001601360ff168152602001601560ff168152602001601760ff168152602001601960ff168152602001601b60ff168152602001601e60ff168152602001602060ff168152602001602260ff168152602001602460ff1681525060009060126100d29291906102be565b503480156100df57600080fd5b50604051612af9380380612af9833981810160405281019061010191906103e5565b80600160006101000a81548173ffffffffffffffffffffffffffffffffffffffff021916908373ffffffffffffffffffffffffffffffffffffffff1602179055506040518060600160405280602e8152602001612acb602e91396006600080600381111561017257610171610412565b5b600381111561018457610183610412565b5b8152602001908152602001600020908161019e9190610691565b506040518060600160405280602e8152602001612a6f602e913960066000600160038111156101d0576101cf610412565b5b60038111156101e2576101e1610412565b5b815260200190815260200160002090816101fc9190610691565b506040518060600160405280602e8152602001612a41602e9139600660006002600381111561022e5761022d610412565b5b60038111156102405761023f610412565b5b8152602001908152602001600020908161025a9190610691565b506040518060600160405280602e8152602001612a9d602e91396006600060038081111561028b5761028a610412565b5b600381111561029d5761029c610412565b5b815260200190815260200160002090816102b79190610691565b5050610763565b82805482825590600052602060002090601f016020900481019282156103545791602002820160005b8382111561032557835183826101000a81548160ff021916908360ff16021790555092602001926001016020816000010492830192600103026102e7565b80156103525782816101000a81549060ff0219169055600101602081600001049283019260010302610325565b505b5090506103619190610365565b5090565b5b8082111561037e576000816000905550600101610366565b5090565b600080fd5b600073ffffffffffffffffffffffffffffffffffffffff82169050919050565b60006103b282610387565b9050919050565b6103c2816103a7565b81146103cd57600080fd5b50565b6000815190506103df816103b9565b92915050565b6000602082840312156103fb576103fa610382565b5b6000610409848285016103d0565b91505092915050565b7f4e487b7100000000000000000000000000000000000000000000000000000000600052602160045260246000fd5b600081519050919050565b7f4e487b7100000000000000000000000000000000000000000000000000000000600052604160045260246000fd5b7f4e487b7100000000000000000000000000000000000000000000000000000000600052602260045260246000fd5b600060028204905060018216806104c257607f821691505b6020821081036104d5576104d461047b565b5b50919050565b60008190508160005260206000209050919050565b60006020601f8301049050919050565b600082821b905092915050565b60006008830261053d7fffffffffffffffffffffffffffffffffffffffffffffffffffffffffffffffff82610500565b6105478683610500565b95508019841693508086168417925050509392505050565b6000819050919050565b6000819050919050565b600061058e6105896105848461055f565b610569565b61055f565b9050919050565b6000819050919050565b6105a883610573565b6105bc6105b482610595565b84845461050d565b825550505050565b600090565b6105d16105c4565b6105dc81848461059f565b505050565b5b81811015610600576105f56000826105c9565b6001810190506105e2565b5050565b601f82111561064557610616816104db565b61061f846104f0565b8101602085101561062e578190505b61064261063a856104f0565b8301826105e1565b50505b505050565b600082821c905092915050565b60006106686000198460080261064a565b1980831691505092915050565b60006106818383610657565b9150826002028217905092915050565b61069a82610441565b67ffffffffffffffff8111156106b3576106b261044c565b5b6106bd82546104aa565b6106c8828285610604565b600060209050601f8311600181146106fb57600084156106e9578287015190505b6106f38582610675565b86555061075b565b601f198416610709866104db565b60005b828110156107315784890151825560018201915060208501945060208101905061070c565b8683101561074e578489015161074a601f891682610657565b8355505b6001600288020188555050505b505050505050565b6122cf806107726000396000f3fe60806040526004361061009c5760003560e01c80635b46900c116100645780635b46900c146101b45780637f0d3683146101f1578063a2f77bcc1461021c578063b6c2eb7414610259578063b7ac58ad14610296578063c8ea4dd6146102c65761009c565b80630a5694c2146100a1578063117a5b90146100de57806312065fe014610121578063129daf841461014c5780631a95f15f14610189575b600080fd5b3480156100ad57600080fd5b506100c860048036038101906100c39190611612565b6102f1565b6040516100d59190611661565b60405180910390f35b3480156100ea57600080fd5b506101056004803603810190610100919061167c565b610322565b6040516101189796959493929190611766565b60405180910390f35b34801561012d57600080fd5b506101366103c5565b6040516101439190611661565b60405180910390f35b34801561015857600080fd5b50610173600480360381019061016e91906117d5565b6103cd565b60405161018091906118c0565b60405180910390f35b34801561019557600080fd5b5061019e610464565b6040516101ab9190611661565b60405180910390f35b3480156101c057600080fd5b506101db60048036038101906101d691906117d5565b61046f565b6040516101e89190611661565b60405180910390f35b3480156101fd57600080fd5b50610206610536565b6040516102139190611661565b60405180910390f35b34801561022857600080fd5b50610243600480360381019061023e919061167c565b61053b565b60405161025091906119ac565b60405180910390f35b34801561026557600080fd5b50610280600480360381019061027b91906117d5565b610673565b60405161028d9190611661565b60405180910390f35b6102b060048036038101906102ab9190611a18565b61068b565b6040516102bd9190611661565b60405180910390f35b3480156102d257600080fd5b506102db610cd0565b6040516102e89190611ab7565b60405180910390f35b6004602052816000526040600020818154811061030d57600080fd5b90600052602060002001600091509150505481565b60036020528060005260406000206000915090508060000160009054906101000a900473ffffffffffffffffffffffffffffffffffffffff16908060000160149054906101000a900460ff16908060000160159054906101000a900460ff16908060000160169054906101000a900460ff16908060000160179054906101000a900460ff16908060000160189054906101000a900460ff16908060010154905087565b600047905090565b6060600460008373ffffffffffffffffffffffffffffffffffffffff1673ffffffffffffffffffffffffffffffffffffffff16815260200190815260200160002080548060200260200160405190810160405280929190818152602001828054801561045857602002820191906000526020600020905b815481526020019060010190808311610444575b50505050509050919050565b662386f26fc1000081565b600080600560008473ffffffffffffffffffffffffffffffffffffffff1673ffffffffffffffffffffffffffffffffffffffff16815260200190815260200160002054036104c05760009050610531565b6000603c600560008573ffffffffffffffffffffffffffffffffffffffff1673ffffffffffffffffffffffffffffffffffffffff1681526020019081526020016000205461050e9190611b01565b9050804210610521576000915050610531565b428161052d9190611b35565b9150505b919050565b603c81565b61054361150a565b600360008381526020019081526020016000206040518060e00160405290816000820160009054906101000a900473ffffffffffffffffffffffffffffffffffffffff1673ffffffffffffffffffffffffffffffffffffffff1673ffffffffffffffffffffffffffffffffffffffff1681526020016000820160149054906101000a900460ff16600b8111156105dc576105db6116b8565b5b600b8111156105ee576105ed6116b8565b5b81526020016000820160159054906101000a900460ff1660ff1660ff1681526020016000820160169054906101000a900460ff1660ff1660ff1681526020016000820160179054906101000a900460ff161515151581526020016000820160189054906101000a900460ff161515151581526020016001820154815250509050919050565b60056020528060005260406000206000915090505481565b6000662386f26fc1000034146106d6576040517f08c379a00000000000000000000000000000000000000000000000000000000081526004016106cd90611bc6565b60405180910390fd5b60248260ff16111561071d576040517f08c379a000000000000000000000000000000000000000000000000000000000815260040161071490611c32565b60405180910390fd5b6000600560003373ffffffffffffffffffffffffffffffffffffffff1673ffffffffffffffffffffffffffffffffffffffff1681526020019081526020016000205411156107f457603c600560003373ffffffffffffffffffffffffffffffffffffffff1673ffffffffffffffffffffffffffffffffffffffff168152602001908152602001600020546107b19190611b01565b4210156107f3576040517f08c379a00000000000000000000000000000000000000000000000000000000081526004016107ea90611c9e565b60405180910390fd5b5b600a600b811115610808576108076116b8565b5b83600b81111561081b5761081a6116b8565b5b0361087c5760018260ff1610158015610838575060248260ff1611155b610877576040517f08c379a000000000000000000000000000000000000000000000000000000000815260040161086e90611d0a565b60405180910390fd5b6108ef565b600b8081111561088f5761088e6116b8565b5b83600b8111156108a2576108a16116b8565b5b036108ee5760008260ff16146108ed576040517f08c379a00000000000000000000000000000000000000000000000000000000081526004016108e490611d76565b60405180910390fd5b5b5b60006002600081548092919061090490611d96565b9190505590506040518060e001604052803373ffffffffffffffffffffffffffffffffffffffff16815260200185600b811115610944576109436116b8565b5b81526020018460ff168152602001600060ff168152602001600015158152602001600015158152602001428152506003600083815260200190815260200160002060008201518160000160006101000a81548173ffffffffffffffffffffffffffffffffffffffff021916908373ffffffffffffffffffffffffffffffffffffffff16021790555060208201518160000160146101000a81548160ff0219169083600b8111156109f7576109f66116b8565b5b021790555060408201518160000160156101000a81548160ff021916908360ff16021790555060608201518160000160166101000a81548160ff021916908360ff16021790555060808201518160000160176101000a81548160ff02191690831515021790555060a08201518160000160186101000a81548160ff02191690831515021790555060c08201518160010155905050600460003373ffffffffffffffffffffffffffffffffffffffff1673ffffffffffffffffffffffffffffffffffffffff168152602001908152602001600020819080600181540180825580915050600190039060005260206000200160009091909190915055803373ffffffffffffffffffffffffffffffffffffffff167f3f697f14eb77b020b7406eb7b38b326ca64c327d2587fe43e98a568307a9e2458686604051610b3a929190611dde565b60405180910390a36000602542443385604051602001610b5d9493929190611e70565b6040516020818303038152906040528051906020012060001c610b809190611eed565b9050806003600084815260200190815260200160002060000160166101000a81548160ff021916908360ff16021790555060016003600084815260200190815260200160002060000160186101000a81548160ff0219169083151502179055506000610bed868684610cf6565b9050806003600085815260200190815260200160002060000160176101000a81548160ff0219169083151502179055503373ffffffffffffffffffffffffffffffffffffffff16837fb99ff47caf94535fa9039490453d904af9f2799637fe4bd80743d3c359ee1dc78484604051610c66929190611f1e565b60405180910390a38015610cc45742600560003373ffffffffffffffffffffffffffffffffffffffff1673ffffffffffffffffffffffffffffffffffffffff16815260200190815260200160002081905550610cc3338785611045565b5b82935050505092915050565b600160009054906101000a900473ffffffffffffffffffffffffffffffffffffffff1681565b6000600b80811115610d0b57610d0a6116b8565b5b84600b811115610d1e57610d1d6116b8565b5b03610d315760008260ff1614905061103e565b60008260ff1603610d45576000905061103e565b6000600b811115610d5957610d586116b8565b5b84600b811115610d6c57610d6b6116b8565b5b03610d8157610d7a82611493565b905061103e565b6001600b811115610d9557610d946116b8565b5b84600b811115610da857610da76116b8565b5b03610dbe57610db682611493565b15905061103e565b6002600b811115610dd257610dd16116b8565b5b84600b811115610de557610de46116b8565b5b03610e04576000600283610df99190611f47565b60ff1614905061103e565b6003600b811115610e1857610e176116b8565b5b84600b811115610e2b57610e2a6116b8565b5b03610e4a576001600283610e3f9190611f47565b60ff1614905061103e565b6004600b811115610e5e57610e5d6116b8565b5b84600b811115610e7157610e706116b8565b5b03610e955760018260ff1610158015610e8e5750600c8260ff1611155b905061103e565b6005600b811115610ea957610ea86116b8565b5b84600b811115610ebc57610ebb6116b8565b5b03610ee057600d8260ff1610158015610ed9575060188260ff1611155b905061103e565b6006600b811115610ef457610ef36116b8565b5b84600b811115610f0757610f066116b8565b5b03610f2b5760198260ff1610158015610f24575060248260ff1611155b905061103e565b6007600b811115610f3f57610f3e6116b8565b5b84600b811115610f5257610f516116b8565b5b03610f71576001600383610f669190611f47565b60ff1614905061103e565b6008600b811115610f8557610f846116b8565b5b84600b811115610f9857610f976116b8565b5b03610fb7576002600383610fac9190611f47565b60ff1614905061103e565b6009600b811115610fcb57610fca6116b8565b5b84600b811115610fde57610fdd6116b8565b5b03610ffd576000600383610ff29190611f47565b60ff1614905061103e565b600a600b811115611011576110106116b8565b5b84600b811115611024576110236116b8565b5b03611039578260ff168260ff1614905061103e565b600090505b9392505050565b600160009054906101000a900473ffffffffffffffffffffffffffffffffffffffff1673ffffffffffffffffffffffffffffffffffffffff16631b5e26bc846040518263ffffffff1660e01b81526004016110a09190611f78565b602060405180830381865afa1580156110bd573d6000803e3d6000fd5b505050506040513d601f19601f820116820180604052508101906110e19190611fbf565b1561148e5760006060600b808111156110fd576110fc6116b8565b5b84600b8111156111105761110f6116b8565b5b0361115657600391506040518060400160405280600d81526020017f4c6567656e64617279204c6f6f00000000000000000000000000000000000000815250905061135b565b600a600b81111561116a576111696116b8565b5b84600b81111561117d5761117c6116b8565b5b036111c357600291506040518060400160405280600d81526020017f45706963204d6174746869617300000000000000000000000000000000000000815250905061135a565b6004600b8111156111d7576111d66116b8565b5b84600b8111156111ea576111e96116b8565b5b148061121a57506005600b811115611205576112046116b8565b5b84600b811115611218576112176116b8565b5b145b8061124957506006600b811115611234576112336116b8565b5b84600b811115611247576112466116b8565b5b145b8061127857506007600b811115611263576112626116b8565b5b84600b811115611276576112756116b8565b5b145b806112a757506008600b811115611292576112916116b8565b5b84600b8111156112a5576112a46116b8565b5b145b806112d657506009600b8111156112c1576112c06116b8565b5b84600b8111156112d4576112d36116b8565b5b145b1561131c57600191506040518060400160405280600881526020017f52617265204361740000000000000000000000000000000000000000000000008152509050611359565b600091506040518060400160405280600d81526020017f436f6d6d6f6e20426c6168616a0000000000000000000000000000000000000081525090505b5b5b6000600160009054906101000a900473ffffffffffffffffffffffffffffffffffffffff1673ffffffffffffffffffffffffffffffffffffffff1663e7e10789878486600660008960038111156113b5576113b46116b8565b5b60038111156113c7576113c66116b8565b5b81526020019081526020016000206040518563ffffffff1660e01b81526004016113f494939291906121ac565b6020604051808303816000875af1158015611413573d6000803e3d6000fd5b505050506040513d601f19601f820116820180604052508101906114379190612214565b9050838673ffffffffffffffffffffffffffffffffffffffff167fcb5f2f472080f2f19d29d0043fd09dbfa0211bd5cb956788902a32ea50d8a59c8386604051611482929190612241565b60405180910390a35050505b505050565b600080600090505b6000805490508110156114ff578260ff16600082815481106114c0576114bf61226a565b5b90600052602060002090602091828204019190069054906101000a900460ff1660ff16036114f2576001915050611505565b808060010191505061149b565b50600090505b919050565b6040518060e00160405280600073ffffffffffffffffffffffffffffffffffffffff1681526020016000600b811115611546576115456116b8565b5b8152602001600060ff168152602001600060ff168152602001600015158152602001600015158152602001600081525090565b600080fd5b600073ffffffffffffffffffffffffffffffffffffffff82169050919050565b60006115a98261157e565b9050919050565b6115b98161159e565b81146115c457600080fd5b50565b6000813590506115d6816115b0565b92915050565b6000819050919050565b6115ef816115dc565b81146115fa57600080fd5b50565b60008135905061160c816115e6565b92915050565b6000806040838503121561162957611628611579565b5b6000611637858286016115c7565b9250506020611648858286016115fd565b9150509250929050565b61165b816115dc565b82525050565b60006020820190506116766000830184611652565b92915050565b60006020828403121561169257611691611579565b5b60006116a0848285016115fd565b91505092915050565b6116b28161159e565b82525050565b7f4e487b7100000000000000000000000000000000000000000000000000000000600052602160045260246000fd5b600c81106116f8576116f76116b8565b5b50565b6000819050611709826116e7565b919050565b6000611719826116fb565b9050919050565b6117298161170e565b82525050565b600060ff82169050919050565b6117458161172f565b82525050565b60008115159050919050565b6117608161174b565b82525050565b600060e08201905061177b600083018a6116a9565b6117886020830189611720565b611795604083018861173c565b6117a2606083018761173c565b6117af6080830186611757565b6117bc60a0830185611757565b6117c960c0830184611652565b98975050505050505050565b6000602082840312156117eb576117ea611579565b5b60006117f9848285016115c7565b91505092915050565b600081519050919050565b600082825260208201905092915050565b6000819050602082019050919050565b611837816115dc565b82525050565b6000611849838361182e565b60208301905092915050565b6000602082019050919050565b600061186d82611802565b611877818561180d565b93506118828361181e565b8060005b838110156118b357815161189a888261183d565b97506118a583611855565b925050600181019050611886565b5085935050505092915050565b600060208201905081810360008301526118da8184611862565b905092915050565b6118eb8161159e565b82525050565b6118fa8161170e565b82525050565b6119098161172f565b82525050565b6119188161174b565b82525050565b60e08201600082015161193460008501826118e2565b50602082015161194760208501826118f1565b50604082015161195a6040850182611900565b50606082015161196d6060850182611900565b506080820151611980608085018261190f565b5060a082015161199360a085018261190f565b5060c08201516119a660c085018261182e565b50505050565b600060e0820190506119c1600083018461191e565b92915050565b600c81106119d457600080fd5b50565b6000813590506119e6816119c7565b92915050565b6119f58161172f565b8114611a0057600080fd5b50565b600081359050611a12816119ec565b92915050565b60008060408385031215611a2f57611a2e611579565b5b6000611a3d858286016119d7565b9250506020611a4e85828601611a03565b9150509250929050565b6000819050919050565b6000611a7d611a78611a738461157e565b611a58565b61157e565b9050919050565b6000611a8f82611a62565b9050919050565b6000611aa182611a84565b9050919050565b611ab181611a96565b82525050565b6000602082019050611acc6000830184611aa8565b92915050565b7f4e487b7100000000000000000000000000000000000000000000000000000000600052601160045260246000fd5b6000611b0c826115dc565b9150611b17836115dc565b9250828201905080821115611b2f57611b2e611ad2565b5b92915050565b6000611b40826115dc565b9150611b4b836115dc565b9250828203905081811115611b6357611b62611ad2565b5b92915050565b600082825260208201905092915050565b7f496e636f7272656374207469636b657420707269636500000000000000000000600082015250565b6000611bb0601683611b69565b9150611bbb82611b7a565b602082019050919050565b60006020820190508181036000830152611bdf81611ba3565b9050919050565b7f4e756d626572206d757374206265206265747765656e203020616e6420333600600082015250565b6000611c1c601f83611b69565b9150611c2782611be6565b602082019050919050565b60006020820190508181036000830152611c4b81611c0f565b9050919050565b7f436f6f6c646f776e20616374696620617072657320766963746f697265000000600082015250565b6000611c88601d83611b69565b9150611c9382611c52565b602082019050919050565b60006020820190508181036000830152611cb781611c7b565b9050919050565b7f4e756d62657220626574206d75737420626520312d3336000000000000000000600082015250565b6000611cf4601783611b69565b9150611cff82611cbe565b602082019050919050565b60006020820190508181036000830152611d2381611ce7565b9050919050565b7f5a65726f20626574206d7573742073706563696679206e756d62657220300000600082015250565b6000611d60601e83611b69565b9150611d6b82611d2a565b602082019050919050565b60006020820190508181036000830152611d8f81611d53565b9050919050565b6000611da1826115dc565b91507fffffffffffffffffffffffffffffffffffffffffffffffffffffffffffffffff8203611dd357611dd2611ad2565b5b600182019050919050565b6000604082019050611df36000830185611720565b611e00602083018461173c565b9392505050565b6000819050919050565b611e22611e1d826115dc565b611e07565b82525050565b60008160601b9050919050565b6000611e4082611e28565b9050919050565b6000611e5282611e35565b9050919050565b611e6a611e658261159e565b611e47565b82525050565b6000611e7c8287611e11565b602082019150611e8c8286611e11565b602082019150611e9c8285611e59565b601482019150611eac8284611e11565b60208201915081905095945050505050565b7f4e487b7100000000000000000000000000000000000000000000000000000000600052601260045260246000fd5b6000611ef8826115dc565b9150611f03836115dc565b925082611f1357611f12611ebe565b5b828206905092915050565b6000604082019050611f33600083018561173c565b611f406020830184611757565b9392505050565b6000611f528261172f565b9150611f5d8361172f565b925082611f6d57611f6c611ebe565b5b828206905092915050565b6000602082019050611f8d60008301846116a9565b92915050565b611f9c8161174b565b8114611fa757600080fd5b50565b600081519050611fb981611f93565b92915050565b600060208284031215611fd557611fd4611579565b5b6000611fe384828501611faa565b91505092915050565b600081519050919050565b60005b83811015612015578082015181840152602081019050611ffa565b60008484015250505050565b6000601f19601f8301169050919050565b600061203d82611fec565b6120478185611b69565b9350612057818560208601611ff7565b61206081612021565b840191505092915050565b6004811061207c5761207b6116b8565b5b50565b600081905061208d8261206b565b919050565b600061209d8261207f565b9050919050565b6120ad81612092565b82525050565b7f4e487b7100000000000000000000000000000000000000000000000000000000600052602260045260246000fd5b600060028204905060018216806120fa57607f821691505b60208210810361210d5761210c6120b3565b5b50919050565b60008190508160005260206000209050919050565b60008154612135816120e2565b61213f8186611b69565b9450600182166000811461215a5760018114612170576121a3565b60ff1983168652811515602002860193506121a3565b61217985612113565b60005b8381101561219b5781548189015260018201915060208101905061217c565b808801955050505b50505092915050565b60006080820190506121c160008301876116a9565b81810360208301526121d38186612032565b90506121e260408301856120a4565b81810360608301526121f48184612128565b905095945050505050565b60008151905061220e816115e6565b92915050565b60006020828403121561222a57612229611579565b5b6000612238848285016121ff565b91505092915050565b60006040820190506122566000830185611652565b61226360208301846120a4565b9392505050565b7f4e487b7100000000000000000000000000000000000000000000000000000000600052603260045260246000fdfea264697066735822122010bc2e35648dfccdefad4318d597406ba0e92b1194a95c8719a3afa685e2690164736f6c634300081c0033516d4e744144587433614132507150585268364c474772506157336d39484a674c5475546d54384d456235527845516d5664614b76724d64766e58796a42734e314378674c7079474344763961594c3859676347596a356b57437079516d624842486272764d59623242374b6b6b665864394e336469786643613741574872396d50664b5977655a6e33516d545a3976574a386979657371756d555234477a6b457962364b7055687463454a5a6932716a5231777a343351",
  "linkReferences": {},
  "deployedLinkReferences": {}
}