{
  "_format": "hh-sol-artifact-1",
  "contractName": "Roulette",
  "sourceName": "contracts/Roulette.sol",
  "abi": [
    {
      "inputs": [
        {
          "internalType": "address",
          "name": "_rewardNFTAddress",
          "type": "address"
        }
      ],
      "stateMutability": "nonpayable",
      "type": "constructor"
    },
    {
      "anonymous": false,
      "inputs": [
        {
          "indexed": true,
          "internalType": "address",
          "name": "player",
          "type": "address"
        },
        {
          "indexed": true,
          "internalType": "uint256",
          "name": "gameId",
          "type": "uint256"
        },
        {
          "indexed": false,
          "internalType": "uint256",
          "name": "nftTokenId",
          "type": "uint256"
        },
        {
          "indexed": false,
          "internalType": "enum RewardNFT.RewardType",
          "name": "rewardType",
          "type": "uint8"
        }
      ],
      "name": "RewardDistributed",
      "type": "event"
    },
    {
      "anonymous": false,
      "inputs": [
        {
          "indexed": true,
          "internalType": "uint256",
          "name": "gameId",
          "type": "uint256"
        },
        {
          "indexed": true,
          "internalType": "address",
          "name": "player",
          "type": "address"
        },
        {
          "indexed": false,
          "internalType": "uint8",
          "name": "result",
          "type": "uint8"
        },
        {
          "indexed": false,
          "internalType": "bool",
          "name": "hasWon",
          "type": "bool"
        }
      ],
      "name": "RouletteSpun",
      "type": "event"
    },
    {
      "anonymous": false,
      "inputs": [
        {
          "indexed": true,
          "internalType": "address",
          "name": "player",
          "type": "address"
        },
        {
          "indexed": true,
          "internalType": "uint256",
          "name": "gameId",
          "type": "uint256"
        },
        {
          "indexed": false,
          "internalType": "enum Roulette.BetType",
          "name": "betType",
          "type": "uint8"
        },
        {
          "indexed": false,
          "internalType": "uint8",
          "name": "numberBet",
          "type": "uint8"
        }
      ],
      "name": "TicketPurchased",
      "type": "event"
    },
    {
      "inputs": [],
      "name": "TICKET_PRICE",
      "outputs": [
        {
          "internalType": "uint256",
          "name": "",
          "type": "uint256"
        }
      ],
      "stateMutability": "view",
      "type": "function"
    },
    {
      "inputs": [
        {
          "internalType": "enum Roulette.BetType",
          "name": "betType",
          "type": "uint8"
        },
        {
          "internalType": "uint8",
          "name": "numberBet",
          "type": "uint8"
        }
      ],
      "name": "buyTicketAndBet",
      "outputs": [
        {
          "internalType": "uint256",
          "name": "",
          "type": "uint256"
        }
      ],
      "stateMutability": "payable",
      "type": "function"
    },
    {
      "inputs": [
        {
          "internalType": "uint256",
          "name": "",
          "type": "uint256"
        }
      ],
      "name": "games",
      "outputs": [
        {
          "internalType": "address",
          "name": "player",
          "type": "address"
        },
        {
          "internalType": "enum Roulette.BetType",
          "name": "betType",
          "type": "uint8"
        },
        {
          "internalType": "uint8",
          "name": "numberBet",
          "type": "uint8"
        },
        {
          "internalType": "uint8",
          "name": "result",
          "type": "uint8"
        },
        {
          "internalType": "bool",
          "name": "hasWon",
          "type": "bool"
        },
        {
          "internalType": "bool",
          "name": "isPlayed",
          "type": "bool"
        },
        {
          "internalType": "uint256",
          "name": "timestamp",
          "type": "uint256"
        }
      ],
      "stateMutability": "view",
      "type": "function"
    },
    {
      "inputs": [],
      "name": "getBalance",
      "outputs": [
        {
          "internalType": "uint256",
          "name": "",
          "type": "uint256"
        }
      ],
      "stateMutability": "view",
      "type": "function"
    },
    {
      "inputs": [
        {
          "internalType": "uint256",
          "name": "gameId",
          "type": "uint256"
        }
      ],
      "name": "getGame",
      "outputs": [
        {
          "components": [
            {
              "internalType": "address",
              "name": "player",
              "type": "address"
            },
            {
              "internalType": "enum Roulette.BetType",
              "name": "betType",
              "type": "uint8"
            },
            {
              "internalType": "uint8",
              "name": "numberBet",
              "type": "uint8"
            },
            {
              "internalType": "uint8",
              "name": "result",
              "type": "uint8"
            },
            {
              "internalType": "bool",
              "name": "hasWon",
              "type": "bool"
            },
            {
              "internalType": "bool",
              "name": "isPlayed",
              "type": "bool"
            },
            {
              "internalType": "uint256",
              "name": "timestamp",
              "type": "uint256"
            }
          ],
          "internalType": "struct Roulette.Game",
          "name": "",
          "type": "tuple"
        }
      ],
      "stateMutability": "view",
      "type": "function"
    },
    {
      "inputs": [
        {
          "internalType": "address",
          "name": "player",
          "type": "address"
        }
      ],
      "name": "getPlayerGames",
      "outputs": [
        {
          "internalType": "uint256[]",
          "name": "",
          "type": "uint256[]"
        }
      ],
      "stateMutability": "view",
      "type": "function"
    },
    {
      "inputs": [
        {
          "internalType": "address",
          "name": "",
          "type": "address"
        },
        {
          "internalType": "uint256",
          "name": "",
          "type": "uint256"
        }
      ],
      "name": "playerGames",
      "outputs": [
        {
          "internalType": "uint256",
          "name": "",
          "type": "uint256"
        }
      ],
      "stateMutability": "view",
      "type": "function"
    },
    {
      "inputs": [],
      "name": "rewardNFT",
      "outputs": [
        {
          "internalType": "contract RewardNFT",
          "name": "",
          "type": "address"
        }
      ],
      "stateMutability": "view",
      "type": "function"
    },
    {
      "inputs": [
        {
          "internalType": "uint256",
          "name": "gameId",
          "type": "uint256"
        }
      ],
      "name": "spin",
      "outputs": [],
      "stateMutability": "nonpayable",
      "type": "function"
    }
  ],
  "bytecode": "0x6080604052604051806102400160405280600160ff168152602001600360ff168152602001600560ff168152602001600760ff168152602001600960ff168152602001600c60ff168152602001600e60ff168152602001601060ff168152602001601260ff168152602001601360ff168152602001601560ff168152602001601760ff168152602001601960ff168152602001601b60ff168152602001601e60ff168152602001602060ff168152602001602260ff168152602001602460ff1681525060009060126100d2929190610148565b503480156100df57600080fd5b506040516123023803806123028339818101604052810190610101919061026f565b80600160006101000a81548173ffffffffffffffffffffffffffffffffffffffff021916908373ffffffffffffffffffffffffffffffffffffffff1602179055505061029c565b82805482825590600052602060002090601f016020900481019282156101de5791602002820160005b838211156101af57835183826101000a81548160ff021916908360ff1602179055509260200192600101602081600001049283019260010302610171565b80156101dc5782816101000a81549060ff02191690556001016020816000010492830192600103026101af565b505b5090506101eb91906101ef565b5090565b5b808211156102085760008160009055506001016101f0565b5090565b600080fd5b600073ffffffffffffffffffffffffffffffffffffffff82169050919050565b600061023c82610211565b9050919050565b61024c81610231565b811461025757600080fd5b50565b60008151905061026981610243565b92915050565b6000602082840312156102855761028461020c565b5b60006102938482850161025a565b91505092915050565b612057806102ab6000396000f3fe6080604052600436106100865760003560e01c80631a95f15f116100595780631a95f15f14610173578063a2f77bcc1461019e578063a5b6ea8f146101db578063c8ea4dd614610204578063f66a3aec1461022f57610086565b80630a5694c21461008b578063117a5b90146100c857806312065fe01461010b578063129daf8414610136575b600080fd5b34801561009757600080fd5b506100b260048036038101906100ad9190611445565b61025f565b6040516100bf9190611494565b60405180910390f35b3480156100d457600080fd5b506100ef60048036038101906100ea91906114af565b610290565b6040516101029796959493929190611599565b60405180910390f35b34801561011757600080fd5b50610120610333565b60405161012d9190611494565b60405180910390f35b34801561014257600080fd5b5061015d60048036038101906101589190611608565b61033b565b60405161016a91906116f3565b60405180910390f35b34801561017f57600080fd5b506101886103d2565b6040516101959190611494565b60405180910390f35b3480156101aa57600080fd5b506101c560048036038101906101c091906114af565b6103dd565b6040516101d291906117df565b60405180910390f35b3480156101e757600080fd5b5061020260048036038101906101fd91906114af565b610515565b005b34801561021057600080fd5b50610219610751565b6040516102269190611859565b60405180910390f35b610249600480360381019061024491906118c5565b610777565b6040516102569190611494565b60405180910390f35b6004602052816000526040600020818154811061027b57600080fd5b90600052602060002001600091509150505481565b60036020528060005260406000206000915090508060000160009054906101000a900473ffffffffffffffffffffffffffffffffffffffff16908060000160149054906101000a900460ff16908060000160159054906101000a900460ff16908060000160169054906101000a900460ff16908060000160179054906101000a900460ff16908060000160189054906101000a900460ff16908060010154905087565b600047905090565b6060600460008373ffffffffffffffffffffffffffffffffffffffff1673ffffffffffffffffffffffffffffffffffffffff1681526020019081526020016000208054806020026020016040519081016040528092919081815260200182805480156103c657602002820191906000526020600020905b8154815260200190600101908083116103b2575b50505050509050919050565b662386f26fc1000081565b6103e561133d565b600360008381526020019081526020016000206040518060e00160405290816000820160009054906101000a900473ffffffffffffffffffffffffffffffffffffffff1673ffffffffffffffffffffffffffffffffffffffff1673ffffffffffffffffffffffffffffffffffffffff1681526020016000820160149054906101000a900460ff16600b81111561047e5761047d6114eb565b5b600b8111156104905761048f6114eb565b5b81526020016000820160159054906101000a900460ff1660ff1660ff1681526020016000820160169054906101000a900460ff1660ff1660ff1681526020016000820160179054906101000a900460ff161515151581526020016000820160189054906101000a900460ff161515151581526020016001820154815250509050919050565b60006003600083815260200190815260200160002090503373ffffffffffffffffffffffffffffffffffffffff168160000160009054906101000a900473ffffffffffffffffffffffffffffffffffffffff1673ffffffffffffffffffffffffffffffffffffffff16146105be576040517f08c379a00000000000000000000000000000000000000000000000000000000081526004016105b590611962565b60405180910390fd5b8060000160189054906101000a900460ff1615610610576040517f08c379a0000000000000000000000000000000000000000000000000000000008152600401610607906119ce565b60405180910390fd5b600060254244338660405160200161062b9493929190611a57565b6040516020818303038152906040528051906020012060001c61064e9190611ad4565b9050808260000160166101000a81548160ff021916908360ff16021790555060018260000160186101000a81548160ff02191690831515021790555060006106b98360000160149054906101000a900460ff168460000160159054906101000a900460ff1684610b61565b9050808360000160176101000a81548160ff0219169083151502179055503373ffffffffffffffffffffffffffffffffffffffff16847fb99ff47caf94535fa9039490453d904af9f2799637fe4bd80743d3c359ee1dc78484604051610720929190611b05565b60405180910390a3801561074b5761074a338460000160149054906101000a900460ff1686610eb0565b5b50505050565b600160009054906101000a900473ffffffffffffffffffffffffffffffffffffffff1681565b6000662386f26fc1000034146107c2576040517f08c379a00000000000000000000000000000000000000000000000000000000081526004016107b990611b7a565b60405180910390fd5b60248260ff161115610809576040517f08c379a000000000000000000000000000000000000000000000000000000000815260040161080090611be6565b60405180910390fd5b600a600b81111561081d5761081c6114eb565b5b83600b8111156108305761082f6114eb565b5b036108915760018260ff161015801561084d575060248260ff1611155b61088c576040517f08c379a000000000000000000000000000000000000000000000000000000000815260040161088390611c52565b60405180910390fd5b610904565b600b808111156108a4576108a36114eb565b5b83600b8111156108b7576108b66114eb565b5b036109035760008260ff1614610902576040517f08c379a00000000000000000000000000000000000000000000000000000000081526004016108f990611cbe565b60405180910390fd5b5b5b60006002600081548092919061091990611d0d565b9190505590506040518060e001604052803373ffffffffffffffffffffffffffffffffffffffff16815260200185600b811115610959576109586114eb565b5b81526020018460ff168152602001600060ff168152602001600015158152602001600015158152602001428152506003600083815260200190815260200160002060008201518160000160006101000a81548173ffffffffffffffffffffffffffffffffffffffff021916908373ffffffffffffffffffffffffffffffffffffffff16021790555060208201518160000160146101000a81548160ff0219169083600b811115610a0c57610a0b6114eb565b5b021790555060408201518160000160156101000a81548160ff021916908360ff16021790555060608201518160000160166101000a81548160ff021916908360ff16021790555060808201518160000160176101000a81548160ff02191690831515021790555060a08201518160000160186101000a81548160ff02191690831515021790555060c08201518160010155905050600460003373ffffffffffffffffffffffffffffffffffffffff1673ffffffffffffffffffffffffffffffffffffffff168152602001908152602001600020819080600181540180825580915050600190039060005260206000200160009091909190915055803373ffffffffffffffffffffffffffffffffffffffff167f3f697f14eb77b020b7406eb7b38b326ca64c327d2587fe43e98a568307a9e2458686604051610b4f929190611d55565b60405180910390a38091505092915050565b6000600b80811115610b7657610b756114eb565b5b84600b811115610b8957610b886114eb565b5b03610b9c5760008260ff16149050610ea9565b60008260ff1603610bb05760009050610ea9565b6000600b811115610bc457610bc36114eb565b5b84600b811115610bd757610bd66114eb565b5b03610bec57610be5826112c6565b9050610ea9565b6001600b811115610c0057610bff6114eb565b5b84600b811115610c1357610c126114eb565b5b03610c2957610c21826112c6565b159050610ea9565b6002600b811115610c3d57610c3c6114eb565b5b84600b811115610c5057610c4f6114eb565b5b03610c6f576000600283610c649190611d7e565b60ff16149050610ea9565b6003600b811115610c8357610c826114eb565b5b84600b811115610c9657610c956114eb565b5b03610cb5576001600283610caa9190611d7e565b60ff16149050610ea9565b6004600b811115610cc957610cc86114eb565b5b84600b811115610cdc57610cdb6114eb565b5b03610d005760018260ff1610158015610cf95750600c8260ff1611155b9050610ea9565b6005600b811115610d1457610d136114eb565b5b84600b811115610d2757610d266114eb565b5b03610d4b57600d8260ff1610158015610d44575060188260ff1611155b9050610ea9565b6006600b811115610d5f57610d5e6114eb565b5b84600b811115610d7257610d716114eb565b5b03610d965760198260ff1610158015610d8f575060248260ff1611155b9050610ea9565b6007600b811115610daa57610da96114eb565b5b84600b811115610dbd57610dbc6114eb565b5b03610ddc576001600383610dd19190611d7e565b60ff16149050610ea9565b6008600b811115610df057610def6114eb565b5b84600b811115610e0357610e026114eb565b5b03610e22576002600383610e179190611d7e565b60ff16149050610ea9565b6009600b811115610e3657610e356114eb565b5b84600b811115610e4957610e486114eb565b5b03610e68576000600383610e5d9190611d7e565b60ff16149050610ea9565b600a600b811115610e7c57610e7b6114eb565b5b84600b811115610e8f57610e8e6114eb565b5b03610ea4578260ff168260ff16149050610ea9565b600090505b9392505050565b600160009054906101000a900473ffffffffffffffffffffffffffffffffffffffff1673ffffffffffffffffffffffffffffffffffffffff16631b5e26bc846040518263ffffffff1660e01b8152600401610f0b9190611daf565b602060405180830381865afa158015610f28573d6000803e3d6000fd5b505050506040513d601f19601f82011682018060405250810190610f4c9190611df6565b156112c15760006060600b80811115610f6857610f676114eb565b5b84600b811115610f7b57610f7a6114eb565b5b03610fc157600391506040518060400160405280601481526020017f4469616d6f6e64205465646479202d205a65726f00000000000000000000000081525090506111c6565b600a600b811115610fd557610fd46114eb565b5b84600b811115610fe857610fe76114eb565b5b0361102e57600291506040518060400160405280600c81526020017f476f6c64656e205465646479000000000000000000000000000000000000000081525090506111c5565b6004600b811115611042576110416114eb565b5b84600b811115611055576110546114eb565b5b148061108557506005600b8111156110705761106f6114eb565b5b84600b811115611083576110826114eb565b5b145b806110b457506006600b81111561109f5761109e6114eb565b5b84600b8111156110b2576110b16114eb565b5b145b806110e357506007600b8111156110ce576110cd6114eb565b5b84600b8111156110e1576110e06114eb565b5b145b8061111257506008600b8111156110fd576110fc6114eb565b5b84600b8111156111105761110f6114eb565b5b145b8061114157506009600b81111561112c5761112b6114eb565b5b84600b81111561113f5761113e6114eb565b5b145b1561118757600191506040518060400160405280600c81526020017f53696c766572205465646479000000000000000000000000000000000000000081525090506111c4565b600091506040518060400160405280600c81526020017f42726f6e7a65205465646479000000000000000000000000000000000000000081525090505b5b5b6000600160009054906101000a900473ffffffffffffffffffffffffffffffffffffffff1673ffffffffffffffffffffffffffffffffffffffff1663e7e107898784866040518463ffffffff1660e01b815260040161122793929190611f36565b6020604051808303816000875af1158015611246573d6000803e3d6000fd5b505050506040513d601f19601f8201168201806040525081019061126a9190611f9c565b9050838673ffffffffffffffffffffffffffffffffffffffff167fcb5f2f472080f2f19d29d0043fd09dbfa0211bd5cb956788902a32ea50d8a59c83866040516112b5929190611fc9565b60405180910390a35050505b505050565b600080600090505b600080549050811015611332578260ff16600082815481106112f3576112f2611ff2565b5b90600052602060002090602091828204019190069054906101000a900460ff1660ff1603611325576001915050611338565b80806001019150506112ce565b50600090505b919050565b6040518060e00160405280600073ffffffffffffffffffffffffffffffffffffffff1681526020016000600b811115611379576113786114eb565b5b8152602001600060ff168152602001600060ff168152602001600015158152602001600015158152602001600081525090565b600080fd5b600073ffffffffffffffffffffffffffffffffffffffff82169050919050565b60006113dc826113b1565b9050919050565b6113ec816113d1565b81146113f757600080fd5b50565b600081359050611409816113e3565b92915050565b6000819050919050565b6114228161140f565b811461142d57600080fd5b50565b60008135905061143f81611419565b92915050565b6000806040838503121561145c5761145b6113ac565b5b600061146a858286016113fa565b925050602061147b85828601611430565b9150509250929050565b61148e8161140f565b82525050565b60006020820190506114a96000830184611485565b92915050565b6000602082840312156114c5576114c46113ac565b5b60006114d384828501611430565b91505092915050565b6114e5816113d1565b82525050565b7f4e487b7100000000000000000000000000000000000000000000000000000000600052602160045260246000fd5b600c811061152b5761152a6114eb565b5b50565b600081905061153c8261151a565b919050565b600061154c8261152e565b9050919050565b61155c81611541565b82525050565b600060ff82169050919050565b61157881611562565b82525050565b60008115159050919050565b6115938161157e565b82525050565b600060e0820190506115ae600083018a6114dc565b6115bb6020830189611553565b6115c8604083018861156f565b6115d5606083018761156f565b6115e2608083018661158a565b6115ef60a083018561158a565b6115fc60c0830184611485565b98975050505050505050565b60006020828403121561161e5761161d6113ac565b5b600061162c848285016113fa565b91505092915050565b600081519050919050565b600082825260208201905092915050565b6000819050602082019050919050565b61166a8161140f565b82525050565b600061167c8383611661565b60208301905092915050565b6000602082019050919050565b60006116a082611635565b6116aa8185611640565b93506116b583611651565b8060005b838110156116e65781516116cd8882611670565b97506116d883611688565b9250506001810190506116b9565b5085935050505092915050565b6000602082019050818103600083015261170d8184611695565b905092915050565b61171e816113d1565b82525050565b61172d81611541565b82525050565b61173c81611562565b82525050565b61174b8161157e565b82525050565b60e0820160008201516117676000850182611715565b50602082015161177a6020850182611724565b50604082015161178d6040850182611733565b5060608201516117a06060850182611733565b5060808201516117b36080850182611742565b5060a08201516117c660a0850182611742565b5060c08201516117d960c0850182611661565b50505050565b600060e0820190506117f46000830184611751565b92915050565b6000819050919050565b600061181f61181a611815846113b1565b6117fa565b6113b1565b9050919050565b600061183182611804565b9050919050565b600061184382611826565b9050919050565b61185381611838565b82525050565b600060208201905061186e600083018461184a565b92915050565b600c811061188157600080fd5b50565b60008135905061189381611874565b92915050565b6118a281611562565b81146118ad57600080fd5b50565b6000813590506118bf81611899565b92915050565b600080604083850312156118dc576118db6113ac565b5b60006118ea85828601611884565b92505060206118fb858286016118b0565b9150509250929050565b600082825260208201905092915050565b7f4e6f7420796f75722067616d6500000000000000000000000000000000000000600082015250565b600061194c600d83611905565b915061195782611916565b602082019050919050565b6000602082019050818103600083015261197b8161193f565b9050919050565b7f47616d6520616c726561647920706c6179656400000000000000000000000000600082015250565b60006119b8601383611905565b91506119c382611982565b602082019050919050565b600060208201905081810360008301526119e7816119ab565b9050919050565b6000819050919050565b611a09611a048261140f565b6119ee565b82525050565b60008160601b9050919050565b6000611a2782611a0f565b9050919050565b6000611a3982611a1c565b9050919050565b611a51611a4c826113d1565b611a2e565b82525050565b6000611a6382876119f8565b602082019150611a7382866119f8565b602082019150611a838285611a40565b601482019150611a9382846119f8565b60208201915081905095945050505050565b7f4e487b7100000000000000000000000000000000000000000000000000000000600052601260045260246000fd5b6000611adf8261140f565b9150611aea8361140f565b925082611afa57611af9611aa5565b5b828206905092915050565b6000604082019050611b1a600083018561156f565b611b27602083018461158a565b9392505050565b7f496e636f7272656374207469636b657420707269636500000000000000000000600082015250565b6000611b64601683611905565b9150611b6f82611b2e565b602082019050919050565b60006020820190508181036000830152611b9381611b57565b9050919050565b7f4e756d626572206d757374206265206265747765656e203020616e6420333600600082015250565b6000611bd0601f83611905565b9150611bdb82611b9a565b602082019050919050565b60006020820190508181036000830152611bff81611bc3565b9050919050565b7f4e756d62657220626574206d75737420626520312d3336000000000000000000600082015250565b6000611c3c601783611905565b9150611c4782611c06565b602082019050919050565b60006020820190508181036000830152611c6b81611c2f565b9050919050565b7f5a65726f20626574206d7573742073706563696679206e756d62657220300000600082015250565b6000611ca8601e83611905565b9150611cb382611c72565b602082019050919050565b60006020820190508181036000830152611cd781611c9b565b9050919050565b7f4e487b7100000000000000000000000000000000000000000000000000000000600052601160045260246000fd5b6000611d188261140f565b91507fffffffffffffffffffffffffffffffffffffffffffffffffffffffffffffffff8203611d4a57611d49611cde565b5b600182019050919050565b6000604082019050611d6a6000830185611553565b611d77602083018461156f565b9392505050565b6000611d8982611562565b9150611d9483611562565b925082611da457611da3611aa5565b5b828206905092915050565b6000602082019050611dc460008301846114dc565b92915050565b611dd38161157e565b8114611dde57600080fd5b50565b600081519050611df081611dca565b92915050565b600060208284031215611e0c57611e0b6113ac565b5b6000611e1a84828501611de1565b91505092915050565b600081519050919050565b60005b83811015611e4c578082015181840152602081019050611e31565b60008484015250505050565b6000601f19601f8301169050919050565b6000611e7482611e23565b611e7e8185611905565b9350611e8e818560208601611e2e565b611e9781611e58565b840191505092915050565b60048110611eb357611eb26114eb565b5b50565b6000819050611ec482611ea2565b919050565b6000611ed482611eb6565b9050919050565b611ee481611ec9565b82525050565b7f516d506c616365686f6c64657200000000000000000000000000000000000000600082015250565b6000611f20600d83611905565b9150611f2b82611eea565b602082019050919050565b6000608082019050611f4b60008301866114dc565b8181036020830152611f5d8185611e69565b9050611f6c6040830184611edb565b8181036060830152611f7d81611f13565b9050949350505050565b600081519050611f9681611419565b92915050565b600060208284031215611fb257611fb16113ac565b5b6000611fc084828501611f87565b91505092915050565b6000604082019050611fde6000830185611485565b611feb6020830184611edb565b9392505050565b7f4e487b7100000000000000000000000000000000000000000000000000000000600052603260045260246000fdfea264697066735822122034d235a248d33c03b28340bd02fb1aa5096615e2ae45a40510cceb7d3e59d97964736f6c634300081c0033",
  "linkReferences": {},
  "deployedLinkReferences": {}
}