{
  "_format": "hh-sol-artifact-1",
  "contractName": "Trade",
  "sourceName": "contracts/Trade.sol",
  "abi": [
    {
      "inputs": [
        {
          "internalType": "address",
          "name": "_rewardNFTAddress",
          "type": "address"
        }
      ],
      "stateMutability": "nonpayable",
      "type": "constructor"
    },
    {
      "anonymous": false,
      "inputs": [
        {
          "indexed": true,
          "internalType": "uint256",
          "name": "swapId",
          "type": "uint256"
        },
        {
          "indexed": true,
          "internalType": "address",
          "name": "proposer",
          "type": "address"
        },
        {
          "indexed": true,
          "internalType": "address",
          "name": "target",
          "type": "address"
        },
        {
          "indexed": false,
          "internalType": "uint256",
          "name": "proposerTokenId",
          "type": "uint256"
        },
        {
          "indexed": false,
          "internalType": "uint256",
          "name": "targetTokenId",
          "type": "uint256"
        }
      ],
      "name": "SwapAccepted",
      "type": "event"
    },
    {
      "anonymous": false,
      "inputs": [
        {
          "indexed": true,
          "internalType": "uint256",
          "name": "swapId",
          "type": "uint256"
        },
        {
          "indexed": true,
          "internalType": "address",
          "name": "proposer",
          "type": "address"
        }
      ],
      "name": "SwapCancelled",
      "type": "event"
    },
    {
      "anonymous": false,
      "inputs": [
        {
          "indexed": true,
          "internalType": "uint256",
          "name": "swapId",
          "type": "uint256"
        },
        {
          "indexed": true,
          "internalType": "address",
          "name": "proposer",
          "type": "address"
        },
        {
          "indexed": true,
          "internalType": "address",
          "name": "target",
          "type": "address"
        },
        {
          "indexed": false,
          "internalType": "uint256",
          "name": "proposerTokenId",
          "type": "uint256"
        },
        {
          "indexed": false,
          "internalType": "uint256",
          "name": "targetTokenId",
          "type": "uint256"
        }
      ],
      "name": "SwapProposed",
      "type": "event"
    },
    {
      "anonymous": false,
      "inputs": [
        {
          "indexed": true,
          "internalType": "uint256",
          "name": "swapId",
          "type": "uint256"
        },
        {
          "indexed": true,
          "internalType": "address",
          "name": "target",
          "type": "address"
        }
      ],
      "name": "SwapRejected",
      "type": "event"
    },
    {
      "inputs": [],
      "name": "TRADE_COOLDOWN",
      "outputs": [
        {
          "internalType": "uint256",
          "name": "",
          "type": "uint256"
        }
      ],
      "stateMutability": "view",
      "type": "function"
    },
    {
      "inputs": [
        {
          "internalType": "uint256",
          "name": "swapId",
          "type": "uint256"
        }
      ],
      "name": "acceptSwap",
      "outputs": [],
      "stateMutability": "nonpayable",
      "type": "function"
    },
    {
      "inputs": [
        {
          "internalType": "uint256",
          "name": "",
          "type": "uint256"
        }
      ],
      "name": "activeSwapForToken",
      "outputs": [
        {
          "internalType": "uint256",
          "name": "",
          "type": "uint256"
        }
      ],
      "stateMutability": "view",
      "type": "function"
    },
    {
      "inputs": [
        {
          "internalType": "uint256",
          "name": "swapId",
          "type": "uint256"
        }
      ],
      "name": "cancelSwap",
      "outputs": [],
      "stateMutability": "nonpayable",
      "type": "function"
    },
    {
      "inputs": [
        {
          "internalType": "address",
          "name": "user",
          "type": "address"
        }
      ],
      "name": "getCooldownRemaining",
      "outputs": [
        {
          "internalType": "uint256",
          "name": "",
          "type": "uint256"
        }
      ],
      "stateMutability": "view",
      "type": "function"
    },
    {
      "inputs": [
        {
          "internalType": "address",
          "name": "user",
          "type": "address"
        }
      ],
      "name": "getPendingSwapsForUser",
      "outputs": [
        {
          "components": [
            {
              "internalType": "uint256",
              "name": "swapId",
              "type": "uint256"
            },
            {
              "internalType": "address",
              "name": "proposer",
              "type": "address"
            },
            {
              "internalType": "address",
              "name": "target",
              "type": "address"
            },
            {
              "internalType": "uint256",
              "name": "proposerTokenId",
              "type": "uint256"
            },
            {
              "internalType": "uint256",
              "name": "targetTokenId",
              "type": "uint256"
            },
            {
              "internalType": "enum Trade.SwapStatus",
              "name": "status",
              "type": "uint8"
            },
            {
              "internalType": "uint256",
              "name": "createdAt",
              "type": "uint256"
            },
            {
              "internalType": "uint256",
              "name": "resolvedAt",
              "type": "uint256"
            }
          ],
          "internalType": "struct Trade.SwapProposal[]",
          "name": "",
          "type": "tuple[]"
        }
      ],
      "stateMutability": "view",
      "type": "function"
    },
    {
      "inputs": [
        {
          "internalType": "address",
          "name": "proposer",
          "type": "address"
        }
      ],
      "name": "getProposerSwaps",
      "outputs": [
        {
          "internalType": "uint256[]",
          "name": "",
          "type": "uint256[]"
        }
      ],
      "stateMutability": "view",
      "type": "function"
    },
    {
      "inputs": [
        {
          "internalType": "address",
          "name": "target",
          "type": "address"
        }
      ],
      "name": "getReceivedSwaps",
      "outputs": [
        {
          "internalType": "uint256[]",
          "name": "",
          "type": "uint256[]"
        }
      ],
      "stateMutability": "view",
      "type": "function"
    },
    {
      "inputs": [
        {
          "internalType": "uint256",
          "name": "swapId",
          "type": "uint256"
        }
      ],
      "name": "getSwap",
      "outputs": [
        {
          "components": [
            {
              "internalType": "uint256",
              "name": "swapId",
              "type": "uint256"
            },
            {
              "internalType": "address",
              "name": "proposer",
              "type": "address"
            },
            {
              "internalType": "address",
              "name": "target",
              "type": "address"
            },
            {
              "internalType": "uint256",
              "name": "proposerTokenId",
              "type": "uint256"
            },
            {
              "internalType": "uint256",
              "name": "targetTokenId",
              "type": "uint256"
            },
            {
              "internalType": "enum Trade.SwapStatus",
              "name": "status",
              "type": "uint8"
            },
            {
              "internalType": "uint256",
              "name": "createdAt",
              "type": "uint256"
            },
            {
              "internalType": "uint256",
              "name": "resolvedAt",
              "type": "uint256"
            }
          ],
          "internalType": "struct Trade.SwapProposal",
          "name": "",
          "type": "tuple"
        }
      ],
      "stateMutability": "view",
      "type": "function"
    },
    {
      "inputs": [
        {
          "internalType": "uint256",
          "name": "tokenId",
          "type": "uint256"
        }
      ],
      "name": "isTokenInActiveSwap",
      "outputs": [
        {
          "internalType": "bool",
          "name": "",
          "type": "bool"
        }
      ],
      "stateMutability": "view",
      "type": "function"
    },
    {
      "inputs": [
        {
          "internalType": "address",
          "name": "",
          "type": "address"
        }
      ],
      "name": "lastActionTimestamp",
      "outputs": [
        {
          "internalType": "uint256",
          "name": "",
          "type": "uint256"
        }
      ],
      "stateMutability": "view",
      "type": "function"
    },
    {
      "inputs": [
        {
          "internalType": "uint256",
          "name": "myTokenId",
          "type": "uint256"
        },
        {
          "internalType": "uint256",
          "name": "targetTokenId",
          "type": "uint256"
        },
        {
          "internalType": "address",
          "name": "targetOwner",
          "type": "address"
        }
      ],
      "name": "proposeSwap",
      "outputs": [
        {
          "internalType": "uint256",
          "name": "",
          "type": "uint256"
        }
      ],
      "stateMutability": "nonpayable",
      "type": "function"
    },
    {
      "inputs": [
        {
          "internalType": "address",
          "name": "",
          "type": "address"
        },
        {
          "internalType": "uint256",
          "name": "",
          "type": "uint256"
        }
      ],
      "name": "proposerSwaps",
      "outputs": [
        {
          "internalType": "uint256",
          "name": "",
          "type": "uint256"
        }
      ],
      "stateMutability": "view",
      "type": "function"
    },
    {
      "inputs": [
        {
          "internalType": "address",
          "name": "",
          "type": "address"
        },
        {
          "internalType": "uint256",
          "name": "",
          "type": "uint256"
        }
      ],
      "name": "receivedSwaps",
      "outputs": [
        {
          "internalType": "uint256",
          "name": "",
          "type": "uint256"
        }
      ],
      "stateMutability": "view",
      "type": "function"
    },
    {
      "inputs": [
        {
          "internalType": "uint256",
          "name": "swapId",
          "type": "uint256"
        }
      ],
      "name": "rejectSwap",
      "outputs": [],
      "stateMutability": "nonpayable",
      "type": "function"
    },
    {
      "inputs": [],
      "name": "rewardNFT",
      "outputs": [
        {
          "internalType": "contract RewardNFT",
          "name": "",
          "type": "address"
        }
      ],
      "stateMutability": "view",
      "type": "function"
    },
    {
      "inputs": [
        {
          "internalType": "uint256",
          "name": "",
          "type": "uint256"
        }
      ],
      "name": "swaps",
      "outputs": [
        {
          "internalType": "uint256",
          "name": "swapId",
          "type": "uint256"
        },
        {
          "internalType": "address",
          "name": "proposer",
          "type": "address"
        },
        {
          "internalType": "address",
          "name": "target",
          "type": "address"
        },
        {
          "internalType": "uint256",
          "name": "proposerTokenId",
          "type": "uint256"
        },
        {
          "internalType": "uint256",
          "name": "targetTokenId",
          "type": "uint256"
        },
        {
          "internalType": "enum Trade.SwapStatus",
          "name": "status",
          "type": "uint8"
        },
        {
          "internalType": "uint256",
          "name": "createdAt",
          "type": "uint256"
        },
        {
          "internalType": "uint256",
          "name": "resolvedAt",
          "type": "uint256"
        }
      ],
      "stateMutability": "view",
      "type": "function"
    }
  ],
  "bytecode": "0x608060405234801561001057600080fd5b50604051613327380380613327833981810160405281019061003291906100db565b806000806101000a81548173ffffffffffffffffffffffffffffffffffffffff021916908373ffffffffffffffffffffffffffffffffffffffff16021790555050610108565b600080fd5b600073ffffffffffffffffffffffffffffffffffffffff82169050919050565b60006100a88261007d565b9050919050565b6100b88161009d565b81146100c357600080fd5b50565b6000815190506100d5816100af565b92915050565b6000602082840312156100f1576100f0610078565b5b60006100ff848285016100c6565b91505092915050565b613210806101176000396000f3fe608060405234801561001057600080fd5b506004361061010b5760003560e01c80637bfe170d116100a2578063d04bc3f211610071578063d04bc3f214610304578063dbf3f1c814610320578063e5c33ba314610350578063e7a8f5b514610380578063f09c5829146103b05761010b565b80637bfe170d14610268578063a5639ef714610286578063c8ea4dd6146102b6578063cf37facc146102d45761010b565b806354d6a2b7116100de57806354d6a2b7146101bc5780635b46900c146101d8578063698896ca146102085780636c76670a146102385761010b565b80630ceccc6014610110578063148ea1a4146101405780631bf33004146101705780634a0d89ba1461018c575b600080fd5b61012a6004803603810190610125919061236d565b6103e7565b60405161013791906123bc565b60405180910390f35b61015a600480360381019061015591906123d7565b610418565b60405161016791906123bc565b60405180910390f35b61018a60048036038101906101859190612404565b610430565b005b6101a660048036038101906101a19190612404565b610ba7565b6040516101b39190612568565b60405180910390f35b6101d660048036038101906101d19190612404565b610d47565b005b6101f260048036038101906101ed91906123d7565b611036565b6040516101ff91906123bc565b60405180910390f35b610222600480360381019061021d919061236d565b6110ae565b60405161022f91906123bc565b60405180910390f35b610252600480360381019061024d9190612404565b6110df565b60405161025f919061259f565b60405180910390f35b6102706110ff565b60405161027d91906123bc565b60405180910390f35b6102a0600480360381019061029b91906123d7565b611105565b6040516102ad9190612669565b60405180910390f35b6102be61119c565b6040516102cb91906126ea565b60405180910390f35b6102ee60048036038101906102e991906123d7565b6111c0565b6040516102fb9190612857565b60405180910390f35b61031e60048036038101906103199190612404565b61154e565b005b61033a60048036038101906103359190612404565b61183d565b60405161034791906123bc565b60405180910390f35b61036a60048036038101906103659190612879565b611855565b60405161037791906123bc565b60405180910390f35b61039a600480360381019061039591906123d7565b612125565b6040516103a79190612669565b60405180910390f35b6103ca60048036038101906103c59190612404565b6121bc565b6040516103de9897969594939291906128ea565b60405180910390f35b6003602052816000526040600020818154811061040357600080fd5b90600052602060002001600091509150505481565b60066020528060005260406000206000915090505481565b61012c600660003373ffffffffffffffffffffffffffffffffffffffff1673ffffffffffffffffffffffffffffffffffffffff1681526020019081526020016000205461047d9190612997565b4210156104bf576040517f08c379a00000000000000000000000000000000000000000000000000000000081526004016104b690612a4e565b60405180910390fd5b6000600260008381526020019081526020016000209050600081600001540361051d576040517f08c379a000000000000000000000000000000000000000000000000000000000815260040161051490612aba565b60405180910390fd5b3373ffffffffffffffffffffffffffffffffffffffff168160020160009054906101000a900473ffffffffffffffffffffffffffffffffffffffff1673ffffffffffffffffffffffffffffffffffffffff16146105af576040517f08c379a00000000000000000000000000000000000000000000000000000000081526004016105a690612b26565b60405180910390fd5b600060038111156105c3576105c261244f565b5b8160050160009054906101000a900460ff1660038111156105e7576105e661244f565b5b14610627576040517f08c379a000000000000000000000000000000000000000000000000000000000815260040161061e90612b92565b60405180910390fd5b8060010160009054906101000a900473ffffffffffffffffffffffffffffffffffffffff1673ffffffffffffffffffffffffffffffffffffffff1660008054906101000a900473ffffffffffffffffffffffffffffffffffffffff1673ffffffffffffffffffffffffffffffffffffffff16636352211e83600301546040518263ffffffff1660e01b81526004016106bf91906123bc565b602060405180830381865afa1580156106dc573d6000803e3d6000fd5b505050506040513d601f19601f820116820180604052508101906107009190612bc7565b73ffffffffffffffffffffffffffffffffffffffff1614610756576040517f08c379a000000000000000000000000000000000000000000000000000000000815260040161074d90612c40565b60405180910390fd5b8060020160009054906101000a900473ffffffffffffffffffffffffffffffffffffffff1673ffffffffffffffffffffffffffffffffffffffff1660008054906101000a900473ffffffffffffffffffffffffffffffffffffffff1673ffffffffffffffffffffffffffffffffffffffff16636352211e83600401546040518263ffffffff1660e01b81526004016107ee91906123bc565b602060405180830381865afa15801561080b573d6000803e3d6000fd5b505050506040513d601f19601f8201168201806040525081019061082f9190612bc7565b73ffffffffffffffffffffffffffffffffffffffff1614610885576040517f08c379a000000000000000000000000000000000000000000000000000000000815260040161087c90612cac565b60405180910390fd5b60008054906101000a900473ffffffffffffffffffffffffffffffffffffffff1673ffffffffffffffffffffffffffffffffffffffff166323b872dd8260010160009054906101000a900473ffffffffffffffffffffffffffffffffffffffff168360020160009054906101000a900473ffffffffffffffffffffffffffffffffffffffff1684600301546040518463ffffffff1660e01b815260040161092e93929190612ccc565b600060405180830381600087803b15801561094857600080fd5b505af115801561095c573d6000803e3d6000fd5b5050505060008054906101000a900473ffffffffffffffffffffffffffffffffffffffff1673ffffffffffffffffffffffffffffffffffffffff166323b872dd8260020160009054906101000a900473ffffffffffffffffffffffffffffffffffffffff168360010160009054906101000a900473ffffffffffffffffffffffffffffffffffffffff1684600401546040518463ffffffff1660e01b8152600401610a0993929190612ccc565b600060405180830381600087803b158015610a2357600080fd5b505af1158015610a37573d6000803e3d6000fd5b5050505060018160050160006101000a81548160ff02191690836003811115610a6357610a6261244f565b5b02179055504281600701819055506005600082600301548152602001908152602001600020600090556005600082600401548152602001908152602001600020600090558060020160009054906101000a900473ffffffffffffffffffffffffffffffffffffffff1673ffffffffffffffffffffffffffffffffffffffff168160010160009054906101000a900473ffffffffffffffffffffffffffffffffffffffff1673ffffffffffffffffffffffffffffffffffffffff16837fd547b37a8db71b88bf4a1ffc079ebde994fd90e5aa9adc8c603eaf8613191cde84600301548560040154604051610b57929190612d03565b60405180910390a45042600660003373ffffffffffffffffffffffffffffffffffffffff1673ffffffffffffffffffffffffffffffffffffffff1681526020019081526020016000208190555050565b610baf612251565b6000600260008481526020019081526020016000206000015403610c08576040517f08c379a0000000000000000000000000000000000000000000000000000000008152600401610bff90612aba565b60405180910390fd5b6002600083815260200190815260200160002060405180610100016040529081600082015481526020016001820160009054906101000a900473ffffffffffffffffffffffffffffffffffffffff1673ffffffffffffffffffffffffffffffffffffffff1673ffffffffffffffffffffffffffffffffffffffff1681526020016002820160009054906101000a900473ffffffffffffffffffffffffffffffffffffffff1673ffffffffffffffffffffffffffffffffffffffff1673ffffffffffffffffffffffffffffffffffffffff16815260200160038201548152602001600482015481526020016005820160009054906101000a900460ff166003811115610d1657610d1561244f565b5b6003811115610d2857610d2761244f565b5b8152602001600682015481526020016007820154815250509050919050565b61012c600660003373ffffffffffffffffffffffffffffffffffffffff1673ffffffffffffffffffffffffffffffffffffffff16815260200190815260200160002054610d949190612997565b421015610dd6576040517f08c379a0000000000000000000000000000000000000000000000000000000008152600401610dcd90612a4e565b60405180910390fd5b60006002600083815260200190815260200160002090506000816000015403610e34576040517f08c379a0000000000000000000000000000000000000000000000000000000008152600401610e2b90612aba565b60405180910390fd5b3373ffffffffffffffffffffffffffffffffffffffff168160010160009054906101000a900473ffffffffffffffffffffffffffffffffffffffff1673ffffffffffffffffffffffffffffffffffffffff1614610ec6576040517f08c379a0000000000000000000000000000000000000000000000000000000008152600401610ebd90612d78565b60405180910390fd5b60006003811115610eda57610ed961244f565b5b8160050160009054906101000a900460ff166003811115610efe57610efd61244f565b5b14610f3e576040517f08c379a0000000000000000000000000000000000000000000000000000000008152600401610f3590612b92565b60405180910390fd5b60028160050160006101000a81548160ff02191690836003811115610f6657610f6561244f565b5b02179055504281600701819055506005600082600301548152602001908152602001600020600090556005600082600401548152602001908152602001600020600090553373ffffffffffffffffffffffffffffffffffffffff16827fc9660176d761dbcab77c697281268e30dffb9a42cafafcbe4e3a58fc44496e3260405160405180910390a35042600660003373ffffffffffffffffffffffffffffffffffffffff1673ffffffffffffffffffffffffffffffffffffffff1681526020019081526020016000208190555050565b60008061012c600660008573ffffffffffffffffffffffffffffffffffffffff1673ffffffffffffffffffffffffffffffffffffffff168152602001908152602001600020546110869190612997565b90508042106110995760009150506110a9565b42816110a59190612d98565b9150505b919050565b600460205281600052604060002081815481106110ca57600080fd5b90600052602060002001600091509150505481565b600080600560008481526020019081526020016000205414159050919050565b61012c81565b6060600360008373ffffffffffffffffffffffffffffffffffffffff1673ffffffffffffffffffffffffffffffffffffffff16815260200190815260200160002080548060200260200160405190810160405280929190818152602001828054801561119057602002820191906000526020600020905b81548152602001906001019080831161117c575b50505050509050919050565b60008054906101000a900473ffffffffffffffffffffffffffffffffffffffff1681565b60606000600460008473ffffffffffffffffffffffffffffffffffffffff1673ffffffffffffffffffffffffffffffffffffffff16815260200190815260200160002080548060200260200160405190810160405280929190818152602001828054801561124d57602002820191906000526020600020905b815481526020019060010190808311611239575b505050505090506000805b82518110156112e657600060038111156112755761127461244f565b5b6002600085848151811061128c5761128b612dcc565b5b6020026020010151815260200190815260200160002060050160009054906101000a900460ff1660038111156112c5576112c461244f565b5b036112d95781806112d590612dfb565b9250505b8080600101915050611258565b5060008167ffffffffffffffff81111561130357611302612e43565b5b60405190808252806020026020018201604052801561133c57816020015b611329612251565b8152602001906001900390816113215790505b5090506000805b845181101561154157600060038111156113605761135f61244f565b5b6002600087848151811061137757611376612dcc565b5b6020026020010151815260200190815260200160002060050160009054906101000a900460ff1660038111156113b0576113af61244f565b5b0361153457600260008683815181106113cc576113cb612dcc565b5b6020026020010151815260200190815260200160002060405180610100016040529081600082015481526020016001820160009054906101000a900473ffffffffffffffffffffffffffffffffffffffff1673ffffffffffffffffffffffffffffffffffffffff1673ffffffffffffffffffffffffffffffffffffffff1681526020016002820160009054906101000a900473ffffffffffffffffffffffffffffffffffffffff1673ffffffffffffffffffffffffffffffffffffffff1673ffffffffffffffffffffffffffffffffffffffff16815260200160038201548152602001600482015481526020016005820160009054906101000a900460ff1660038111156114dd576114dc61244f565b5b60038111156114ef576114ee61244f565b5b81526020016006820154815260200160078201548152505083838151811061151a57611519612dcc565b5b6020026020010181905250818061153090612dfb565b9250505b8080600101915050611343565b5081945050505050919050565b61012c600660003373ffffffffffffffffffffffffffffffffffffffff1673ffffffffffffffffffffffffffffffffffffffff1681526020019081526020016000205461159b9190612997565b4210156115dd576040517f08c379a00000000000000000000000000000000000000000000000000000000081526004016115d490612a4e565b60405180910390fd5b6000600260008381526020019081526020016000209050600081600001540361163b576040517f08c379a000000000000000000000000000000000000000000000000000000000815260040161163290612aba565b60405180910390fd5b3373ffffffffffffffffffffffffffffffffffffffff168160020160009054906101000a900473ffffffffffffffffffffffffffffffffffffffff1673ffffffffffffffffffffffffffffffffffffffff16146116cd576040517f08c379a00000000000000000000000000000000000000000000000000000000081526004016116c490612b26565b60405180910390fd5b600060038111156116e1576116e061244f565b5b8160050160009054906101000a900460ff1660038111156117055761170461244f565b5b14611745576040517f08c379a000000000000000000000000000000000000000000000000000000000815260040161173c90612b92565b60405180910390fd5b60038160050160006101000a81548160ff0219169083600381111561176d5761176c61244f565b5b02179055504281600701819055506005600082600301548152602001908152602001600020600090556005600082600401548152602001908152602001600020600090553373ffffffffffffffffffffffffffffffffffffffff16827f362e438ec63e2c0b7704638c7d94422a2aeba36a3a026f888f646518987494e560405160405180910390a35042600660003373ffffffffffffffffffffffffffffffffffffffff1673ffffffffffffffffffffffffffffffffffffffff1681526020019081526020016000208190555050565b60056020528060005260406000206000915090505481565b600061012c600660003373ffffffffffffffffffffffffffffffffffffffff1673ffffffffffffffffffffffffffffffffffffffff168152602001908152602001600020546118a49190612997565b4210156118e6576040517f08c379a00000000000000000000000000000000000000000000000000000000081526004016118dd90612a4e565b60405180910390fd5b600073ffffffffffffffffffffffffffffffffffffffff168273ffffffffffffffffffffffffffffffffffffffff1603611955576040517f08c379a000000000000000000000000000000000000000000000000000000000815260040161194c90612ebe565b60405180910390fd5b3373ffffffffffffffffffffffffffffffffffffffff168273ffffffffffffffffffffffffffffffffffffffff16036119c3576040517f08c379a00000000000000000000000000000000000000000000000000000000081526004016119ba90612f2a565b60405180910390fd5b3373ffffffffffffffffffffffffffffffffffffffff1660008054906101000a900473ffffffffffffffffffffffffffffffffffffffff1673ffffffffffffffffffffffffffffffffffffffff16636352211e866040518263ffffffff1660e01b8152600401611a3391906123bc565b602060405180830381865afa158015611a50573d6000803e3d6000fd5b505050506040513d601f19601f82011682018060405250810190611a749190612bc7565b73ffffffffffffffffffffffffffffffffffffffff1614611aca576040517f08c379a0000000000000000000000000000000000000000000000000000000008152600401611ac190612f96565b60405180910390fd5b8173ffffffffffffffffffffffffffffffffffffffff1660008054906101000a900473ffffffffffffffffffffffffffffffffffffffff1673ffffffffffffffffffffffffffffffffffffffff16636352211e856040518263ffffffff1660e01b8152600401611b3a91906123bc565b602060405180830381865afa158015611b57573d6000803e3d6000fd5b505050506040513d601f19601f82011682018060405250810190611b7b9190612bc7565b73ffffffffffffffffffffffffffffffffffffffff1614611bd1576040517f08c379a0000000000000000000000000000000000000000000000000000000008152600401611bc890613002565b60405180910390fd5b6000600560008681526020019081526020016000205414611c27576040517f08c379a0000000000000000000000000000000000000000000000000000000008152600401611c1e9061306e565b60405180910390fd5b60008054906101000a900473ffffffffffffffffffffffffffffffffffffffff1673ffffffffffffffffffffffffffffffffffffffff16631b5e26bc336040518263ffffffff1660e01b8152600401611c80919061308e565b602060405180830381865afa158015611c9d573d6000803e3d6000fd5b505050506040513d601f19601f82011682018060405250810190611cc191906130d5565b611d00576040517f08c379a0000000000000000000000000000000000000000000000000000000008152600401611cf79061314e565b60405180910390fd5b60008054906101000a900473ffffffffffffffffffffffffffffffffffffffff1673ffffffffffffffffffffffffffffffffffffffff16631b5e26bc836040518263ffffffff1660e01b8152600401611d59919061308e565b602060405180830381865afa158015611d76573d6000803e3d6000fd5b505050506040513d601f19601f82011682018060405250810190611d9a91906130d5565b611dd9576040517f08c379a0000000000000000000000000000000000000000000000000000000008152600401611dd0906131ba565b60405180910390fd5b6000600160008154611dea90612dfb565b91905081905590506040518061010001604052808281526020013373ffffffffffffffffffffffffffffffffffffffff1681526020018473ffffffffffffffffffffffffffffffffffffffff16815260200186815260200185815260200160006003811115611e5c57611e5b61244f565b5b81526020014281526020016000815250600260008381526020019081526020016000206000820151816000015560208201518160010160006101000a81548173ffffffffffffffffffffffffffffffffffffffff021916908373ffffffffffffffffffffffffffffffffffffffff16021790555060408201518160020160006101000a81548173ffffffffffffffffffffffffffffffffffffffff021916908373ffffffffffffffffffffffffffffffffffffffff160217905550606082015181600301556080820151816004015560a08201518160050160006101000a81548160ff02191690836003811115611f5657611f5561244f565b5b021790555060c0820151816006015560e08201518160070155905050600360003373ffffffffffffffffffffffffffffffffffffffff1673ffffffffffffffffffffffffffffffffffffffff168152602001908152602001600020819080600181540180825580915050600190039060005260206000200160009091909190915055600460008473ffffffffffffffffffffffffffffffffffffffff1673ffffffffffffffffffffffffffffffffffffffff1681526020019081526020016000208190806001815401808255809150506001900390600052602060002001600090919091909150558060056000878152602001908152602001600020819055508060056000868152602001908152602001600020819055508273ffffffffffffffffffffffffffffffffffffffff163373ffffffffffffffffffffffffffffffffffffffff16827f0914f7b693cdfc562059f0539c8160bba83a572136eeb07e86852918bd922e3988886040516120ce929190612d03565b60405180910390a48091505042600660003373ffffffffffffffffffffffffffffffffffffffff1673ffffffffffffffffffffffffffffffffffffffff168152602001908152602001600020819055509392505050565b6060600460008373ffffffffffffffffffffffffffffffffffffffff1673ffffffffffffffffffffffffffffffffffffffff1681526020019081526020016000208054806020026020016040519081016040528092919081815260200182805480156121b057602002820191906000526020600020905b81548152602001906001019080831161219c575b50505050509050919050565b60026020528060005260406000206000915090508060000154908060010160009054906101000a900473ffffffffffffffffffffffffffffffffffffffff16908060020160009054906101000a900473ffffffffffffffffffffffffffffffffffffffff16908060030154908060040154908060050160009054906101000a900460ff16908060060154908060070154905088565b60405180610100016040528060008152602001600073ffffffffffffffffffffffffffffffffffffffff168152602001600073ffffffffffffffffffffffffffffffffffffffff1681526020016000815260200160008152602001600060038111156122c0576122bf61244f565b5b815260200160008152602001600081525090565b600080fd5b600073ffffffffffffffffffffffffffffffffffffffff82169050919050565b6000612304826122d9565b9050919050565b612314816122f9565b811461231f57600080fd5b50565b6000813590506123318161230b565b92915050565b6000819050919050565b61234a81612337565b811461235557600080fd5b50565b60008135905061236781612341565b92915050565b60008060408385031215612384576123836122d4565b5b600061239285828601612322565b92505060206123a385828601612358565b9150509250929050565b6123b681612337565b82525050565b60006020820190506123d160008301846123ad565b92915050565b6000602082840312156123ed576123ec6122d4565b5b60006123fb84828501612322565b91505092915050565b60006020828403121561241a576124196122d4565b5b600061242884828501612358565b91505092915050565b61243a81612337565b82525050565b612449816122f9565b82525050565b7f4e487b7100000000000000000000000000000000000000000000000000000000600052602160045260246000fd5b6004811061248f5761248e61244f565b5b50565b60008190506124a08261247e565b919050565b60006124b082612492565b9050919050565b6124c0816124a5565b82525050565b610100820160008201516124dd6000850182612431565b5060208201516124f06020850182612440565b5060408201516125036040850182612440565b5060608201516125166060850182612431565b5060808201516125296080850182612431565b5060a082015161253c60a08501826124b7565b5060c082015161254f60c0850182612431565b5060e082015161256260e0850182612431565b50505050565b60006101008201905061257e60008301846124c6565b92915050565b60008115159050919050565b61259981612584565b82525050565b60006020820190506125b46000830184612590565b92915050565b600081519050919050565b600082825260208201905092915050565b6000819050602082019050919050565b60006125f28383612431565b60208301905092915050565b6000602082019050919050565b6000612616826125ba565b61262081856125c5565b935061262b836125d6565b8060005b8381101561265c57815161264388826125e6565b975061264e836125fe565b92505060018101905061262f565b5085935050505092915050565b60006020820190508181036000830152612683818461260b565b905092915050565b6000819050919050565b60006126b06126ab6126a6846122d9565b61268b565b6122d9565b9050919050565b60006126c282612695565b9050919050565b60006126d4826126b7565b9050919050565b6126e4816126c9565b82525050565b60006020820190506126ff60008301846126db565b92915050565b600081519050919050565b600082825260208201905092915050565b6000819050602082019050919050565b610100820160008201516127486000850182612431565b50602082015161275b6020850182612440565b50604082015161276e6040850182612440565b5060608201516127816060850182612431565b5060808201516127946080850182612431565b5060a08201516127a760a08501826124b7565b5060c08201516127ba60c0850182612431565b5060e08201516127cd60e0850182612431565b50505050565b60006127df8383612731565b6101008301905092915050565b6000602082019050919050565b600061280482612705565b61280e8185612710565b935061281983612721565b8060005b8381101561284a57815161283188826127d3565b975061283c836127ec565b92505060018101905061281d565b5085935050505092915050565b6000602082019050818103600083015261287181846127f9565b905092915050565b600080600060608486031215612892576128916122d4565b5b60006128a086828701612358565b93505060206128b186828701612358565b92505060406128c286828701612322565b9150509250925092565b6128d5816122f9565b82525050565b6128e4816124a5565b82525050565b600061010082019050612900600083018b6123ad565b61290d602083018a6128cc565b61291a60408301896128cc565b61292760608301886123ad565b61293460808301876123ad565b61294160a08301866128db565b61294e60c08301856123ad565b61295b60e08301846123ad565b9998505050505050505050565b7f4e487b7100000000000000000000000000000000000000000000000000000000600052601160045260246000fd5b60006129a282612337565b91506129ad83612337565b92508282019050808211156129c5576129c4612968565b5b92915050565b600082825260208201905092915050565b7f436f6f6c646f776e3a20566575696c6c657a2070617469656e7465722035206d60008201527f696e757465730000000000000000000000000000000000000000000000000000602082015250565b6000612a386026836129cb565b9150612a43826129dc565b604082019050919050565b60006020820190508181036000830152612a6781612a2b565b9050919050565b7f5377617020646f6573206e6f7420657869737400000000000000000000000000600082015250565b6000612aa46013836129cb565b9150612aaf82612a6e565b602082019050919050565b60006020820190508181036000830152612ad381612a97565b9050919050565b7f4e6f742074686520746172676574206f66207468697320737761700000000000600082015250565b6000612b10601b836129cb565b9150612b1b82612ada565b602082019050919050565b60006020820190508181036000830152612b3f81612b03565b9050919050565b7f53776170206973206e6f742070656e64696e6700000000000000000000000000600082015250565b6000612b7c6013836129cb565b9150612b8782612b46565b602082019050919050565b60006020820190508181036000830152612bab81612b6f565b9050919050565b600081519050612bc18161230b565b92915050565b600060208284031215612bdd57612bdc6122d4565b5b6000612beb84828501612bb2565b91505092915050565b7f50726f706f736572206e6f206c6f6e676572206f776e7320746865204e465400600082015250565b6000612c2a601f836129cb565b9150612c3582612bf4565b602082019050919050565b60006020820190508181036000830152612c5981612c1d565b9050919050565b7f596f75206e6f206c6f6e676572206f776e20746865204e465400000000000000600082015250565b6000612c966019836129cb565b9150612ca182612c60565b602082019050919050565b60006020820190508181036000830152612cc581612c89565b9050919050565b6000606082019050612ce160008301866128cc565b612cee60208301856128cc565b612cfb60408301846123ad565b949350505050565b6000604082019050612d1860008301856123ad565b612d2560208301846123ad565b9392505050565b7f4e6f74207468652070726f706f73657200000000000000000000000000000000600082015250565b6000612d626010836129cb565b9150612d6d82612d2c565b602082019050919050565b60006020820190508181036000830152612d9181612d55565b9050919050565b6000612da382612337565b9150612dae83612337565b9250828203905081811115612dc657612dc5612968565b5b92915050565b7f4e487b7100000000000000000000000000000000000000000000000000000000600052603260045260246000fd5b6000612e0682612337565b91507fffffffffffffffffffffffffffffffffffffffffffffffffffffffffffffffff8203612e3857612e37612968565b5b600182019050919050565b7f4e487b7100000000000000000000000000000000000000000000000000000000600052604160045260246000fd5b7f496e76616c696420746172676574206164647265737300000000000000000000600082015250565b6000612ea86016836129cb565b9150612eb382612e72565b602082019050919050565b60006020820190508181036000830152612ed781612e9b565b9050919050565b7f43616e6e6f742073776170207769746820796f757273656c6600000000000000600082015250565b6000612f146019836129cb565b9150612f1f82612ede565b602082019050919050565b60006020820190508181036000830152612f4381612f07565b9050919050565b7f596f7520646f6e2774206f776e2074686973204e465400000000000000000000600082015250565b6000612f806016836129cb565b9150612f8b82612f4a565b602082019050919050565b60006020820190508181036000830152612faf81612f73565b9050919050565b7f54617267657420646f65736e2774206f776e20746865204e4654000000000000600082015250565b6000612fec601a836129cb565b9150612ff782612fb6565b602082019050919050565b6000602082019050818103600083015261301b81612fdf565b9050919050565b7f4e465420616c726561647920696e206163746976652073776170000000000000600082015250565b6000613058601a836129cb565b915061306382613022565b602082019050919050565b600060208201905081810360008301526130878161304b565b9050919050565b60006020820190506130a360008301846128cc565b92915050565b6130b281612584565b81146130bd57600080fd5b50565b6000815190506130cf816130a9565b92915050565b6000602082840312156130eb576130ea6122d4565b5b60006130f9848285016130c0565b91505092915050565b7f596f757220696e76656e746f72792069732066756c6c00000000000000000000600082015250565b60006131386016836129cb565b915061314382613102565b602082019050919050565b600060208201905081810360008301526131678161312b565b9050919050565b7f54617267657420696e76656e746f72792069732066756c6c0000000000000000600082015250565b60006131a46018836129cb565b91506131af8261316e565b602082019050919050565b600060208201905081810360008301526131d381613197565b905091905056fea2646970667358221220f0208e50ecba7d7945dc7fcbe64dd1c9afa0014bc6b5cd44b59b2fe72775d7f664736f6c634300081c0033",
  "linkReferences": {},
  "deployedLinkReferences": {}
}