{
  "_format": "hh-sol-artifact-1",
  "contractName": "Trade",
  "sourceName": "contracts/Trade.sol",
  "abi": [
    {
      "inputs": [
        {
          "internalType": "address",
          "name": "_rewardNFTAddress",
          "type": "address"
        }
      ],
      "stateMutability": "nonpayable",
      "type": "constructor"
    },
    {
      "anonymous": false,
      "inputs": [
        {
          "indexed": true,
          "internalType": "uint256",
          "name": "swapId",
          "type": "uint256"
        },
        {
          "indexed": true,
          "internalType": "address",
          "name": "proposer",
          "type": "address"
        },
        {
          "indexed": true,
          "internalType": "address",
          "name": "target",
          "type": "address"
        },
        {
          "indexed": false,
          "internalType": "uint256",
          "name": "proposerTokenId",
          "type": "uint256"
        },
        {
          "indexed": false,
          "internalType": "uint256",
          "name": "targetTokenId",
          "type": "uint256"
        }
      ],
      "name": "SwapAccepted",
      "type": "event"
    },
    {
      "anonymous": false,
      "inputs": [
        {
          "indexed": true,
          "internalType": "uint256",
          "name": "swapId",
          "type": "uint256"
        },
        {
          "indexed": true,
          "internalType": "address",
          "name": "proposer",
          "type": "address"
        }
      ],
      "name": "SwapCancelled",
      "type": "event"
    },
    {
      "anonymous": false,
      "inputs": [
        {
          "indexed": true,
          "internalType": "uint256",
          "name": "swapId",
          "type": "uint256"
        },
        {
          "indexed": true,
          "internalType": "address",
          "name": "proposer",
          "type": "address"
        },
        {
          "indexed": true,
          "internalType": "address",
          "name": "target",
          "type": "address"
        },
        {
          "indexed": false,
          "internalType": "uint256",
          "name": "proposerTokenId",
          "type": "uint256"
        },
        {
          "indexed": false,
          "internalType": "uint256",
          "name": "targetTokenId",
          "type": "uint256"
        }
      ],
      "name": "SwapProposed",
      "type": "event"
    },
    {
      "anonymous": false,
      "inputs": [
        {
          "indexed": true,
          "internalType": "uint256",
          "name": "swapId",
          "type": "uint256"
        },
        {
          "indexed": true,
          "internalType": "address",
          "name": "target",
          "type": "address"
        }
      ],
      "name": "SwapRejected",
      "type": "event"
    },
    {
      "inputs": [
        {
          "internalType": "uint256",
          "name": "swapId",
          "type": "uint256"
        }
      ],
      "name": "acceptSwap",
      "outputs": [],
      "stateMutability": "nonpayable",
      "type": "function"
    },
    {
      "inputs": [
        {
          "internalType": "uint256",
          "name": "",
          "type": "uint256"
        }
      ],
      "name": "activeSwapForToken",
      "outputs": [
        {
          "internalType": "uint256",
          "name": "",
          "type": "uint256"
        }
      ],
      "stateMutability": "view",
      "type": "function"
    },
    {
      "inputs": [
        {
          "internalType": "uint256",
          "name": "swapId",
          "type": "uint256"
        }
      ],
      "name": "cancelSwap",
      "outputs": [],
      "stateMutability": "nonpayable",
      "type": "function"
    },
    {
      "inputs": [
        {
          "internalType": "address",
          "name": "user",
          "type": "address"
        }
      ],
      "name": "getPendingSwapsForUser",
      "outputs": [
        {
          "components": [
            {
              "internalType": "uint256",
              "name": "swapId",
              "type": "uint256"
            },
            {
              "internalType": "address",
              "name": "proposer",
              "type": "address"
            },
            {
              "internalType": "address",
              "name": "target",
              "type": "address"
            },
            {
              "internalType": "uint256",
              "name": "proposerTokenId",
              "type": "uint256"
            },
            {
              "internalType": "uint256",
              "name": "targetTokenId",
              "type": "uint256"
            },
            {
              "internalType": "enum Trade.SwapStatus",
              "name": "status",
              "type": "uint8"
            },
            {
              "internalType": "uint256",
              "name": "createdAt",
              "type": "uint256"
            },
            {
              "internalType": "uint256",
              "name": "resolvedAt",
              "type": "uint256"
            }
          ],
          "internalType": "struct Trade.SwapProposal[]",
          "name": "",
          "type": "tuple[]"
        }
      ],
      "stateMutability": "view",
      "type": "function"
    },
    {
      "inputs": [
        {
          "internalType": "address",
          "name": "proposer",
          "type": "address"
        }
      ],
      "name": "getProposerSwaps",
      "outputs": [
        {
          "internalType": "uint256[]",
          "name": "",
          "type": "uint256[]"
        }
      ],
      "stateMutability": "view",
      "type": "function"
    },
    {
      "inputs": [
        {
          "internalType": "address",
          "name": "target",
          "type": "address"
        }
      ],
      "name": "getReceivedSwaps",
      "outputs": [
        {
          "internalType": "uint256[]",
          "name": "",
          "type": "uint256[]"
        }
      ],
      "stateMutability": "view",
      "type": "function"
    },
    {
      "inputs": [
        {
          "internalType": "uint256",
          "name": "swapId",
          "type": "uint256"
        }
      ],
      "name": "getSwap",
      "outputs": [
        {
          "components": [
            {
              "internalType": "uint256",
              "name": "swapId",
              "type": "uint256"
            },
            {
              "internalType": "address",
              "name": "proposer",
              "type": "address"
            },
            {
              "internalType": "address",
              "name": "target",
              "type": "address"
            },
            {
              "internalType": "uint256",
              "name": "proposerTokenId",
              "type": "uint256"
            },
            {
              "internalType": "uint256",
              "name": "targetTokenId",
              "type": "uint256"
            },
            {
              "internalType": "enum Trade.SwapStatus",
              "name": "status",
              "type": "uint8"
            },
            {
              "internalType": "uint256",
              "name": "createdAt",
              "type": "uint256"
            },
            {
              "internalType": "uint256",
              "name": "resolvedAt",
              "type": "uint256"
            }
          ],
          "internalType": "struct Trade.SwapProposal",
          "name": "",
          "type": "tuple"
        }
      ],
      "stateMutability": "view",
      "type": "function"
    },
    {
      "inputs": [
        {
          "internalType": "uint256",
          "name": "tokenId",
          "type": "uint256"
        }
      ],
      "name": "isTokenInActiveSwap",
      "outputs": [
        {
          "internalType": "bool",
          "name": "",
          "type": "bool"
        }
      ],
      "stateMutability": "view",
      "type": "function"
    },
    {
      "inputs": [
        {
          "internalType": "uint256",
          "name": "myTokenId",
          "type": "uint256"
        },
        {
          "internalType": "uint256",
          "name": "targetTokenId",
          "type": "uint256"
        },
        {
          "internalType": "address",
          "name": "targetOwner",
          "type": "address"
        }
      ],
      "name": "proposeSwap",
      "outputs": [
        {
          "internalType": "uint256",
          "name": "",
          "type": "uint256"
        }
      ],
      "stateMutability": "nonpayable",
      "type": "function"
    },
    {
      "inputs": [
        {
          "internalType": "address",
          "name": "",
          "type": "address"
        },
        {
          "internalType": "uint256",
          "name": "",
          "type": "uint256"
        }
      ],
      "name": "proposerSwaps",
      "outputs": [
        {
          "internalType": "uint256",
          "name": "",
          "type": "uint256"
        }
      ],
      "stateMutability": "view",
      "type": "function"
    },
    {
      "inputs": [
        {
          "internalType": "address",
          "name": "",
          "type": "address"
        },
        {
          "internalType": "uint256",
          "name": "",
          "type": "uint256"
        }
      ],
      "name": "receivedSwaps",
      "outputs": [
        {
          "internalType": "uint256",
          "name": "",
          "type": "uint256"
        }
      ],
      "stateMutability": "view",
      "type": "function"
    },
    {
      "inputs": [
        {
          "internalType": "uint256",
          "name": "swapId",
          "type": "uint256"
        }
      ],
      "name": "rejectSwap",
      "outputs": [],
      "stateMutability": "nonpayable",
      "type": "function"
    },
    {
      "inputs": [],
      "name": "rewardNFT",
      "outputs": [
        {
          "internalType": "contract RewardNFT",
          "name": "",
          "type": "address"
        }
      ],
      "stateMutability": "view",
      "type": "function"
    },
    {
      "inputs": [
        {
          "internalType": "uint256",
          "name": "",
          "type": "uint256"
        }
      ],
      "name": "swaps",
      "outputs": [
        {
          "internalType": "uint256",
          "name": "swapId",
          "type": "uint256"
        },
        {
          "internalType": "address",
          "name": "proposer",
          "type": "address"
        },
        {
          "internalType": "address",
          "name": "target",
          "type": "address"
        },
        {
          "internalType": "uint256",
          "name": "proposerTokenId",
          "type": "uint256"
        },
        {
          "internalType": "uint256",
          "name": "targetTokenId",
          "type": "uint256"
        },
        {
          "internalType": "enum Trade.SwapStatus",
          "name": "status",
          "type": "uint8"
        },
        {
          "internalType": "uint256",
          "name": "createdAt",
          "type": "uint256"
        },
        {
          "internalType": "uint256",
          "name": "resolvedAt",
          "type": "uint256"
        }
      ],
      "stateMutability": "view",
      "type": "function"
    }
  ],
  "bytecode": "0x608060405234801561001057600080fd5b50604051612dab380380612dab833981810160405281019061003291906100db565b806000806101000a81548173ffffffffffffffffffffffffffffffffffffffff021916908373ffffffffffffffffffffffffffffffffffffffff16021790555050610108565b600080fd5b600073ffffffffffffffffffffffffffffffffffffffff82169050919050565b60006100a88261007d565b9050919050565b6100b88161009d565b81146100c357600080fd5b50565b6000815190506100d5816100af565b92915050565b6000602082840312156100f1576100f0610078565b5b60006100ff848285016100c6565b91505092915050565b612c94806101176000396000f3fe608060405234801561001057600080fd5b50600436106100ea5760003560e01c8063c8ea4dd61161008c578063dbf3f1c811610066578063dbf3f1c814610281578063e5c33ba3146102b1578063e7a8f5b5146102e1578063f09c582914610311576100ea565b8063c8ea4dd614610217578063cf37facc14610235578063d04bc3f214610265576100ea565b806354d6a2b7116100c857806354d6a2b71461016b578063698896ca146101875780636c76670a146101b7578063a5639ef7146101e7576100ea565b80630ceccc60146100ef5780631bf330041461011f5780634a0d89ba1461013b575b600080fd5b61010960048036038101906101049190611eeb565b610348565b6040516101169190611f3a565b60405180910390f35b61013960048036038101906101349190611f55565b610379565b005b61015560048036038101906101509190611f55565b610a1d565b60405161016291906120b9565b60405180910390f35b61018560048036038101906101809190611f55565b610bbd565b005b6101a1600480360381019061019c9190611eeb565b610dd9565b6040516101ae9190611f3a565b60405180910390f35b6101d160048036038101906101cc9190611f55565b610e0a565b6040516101de91906120f0565b60405180910390f35b61020160048036038101906101fc919061210b565b610e2a565b60405161020e91906121e7565b60405180910390f35b61021f610ec1565b60405161022c9190612268565b60405180910390f35b61024f600480360381019061024a919061210b565b610ee5565b60405161025c91906123d5565b60405180910390f35b61027f600480360381019061027a9190611f55565b611273565b005b61029b60048036038101906102969190611f55565b61148f565b6040516102a89190611f3a565b60405180910390f35b6102cb60048036038101906102c691906123f7565b6114a7565b6040516102d89190611f3a565b60405180910390f35b6102fb60048036038101906102f6919061210b565b611ca3565b60405161030891906121e7565b60405180910390f35b61032b60048036038101906103269190611f55565b611d3a565b60405161033f989796959493929190612468565b60405180910390f35b6003602052816000526040600020818154811061036457600080fd5b90600052602060002001600091509150505481565b600060026000838152602001908152602001600020905060008160000154036103d7576040517f08c379a00000000000000000000000000000000000000000000000000000000081526004016103ce90612543565b60405180910390fd5b3373ffffffffffffffffffffffffffffffffffffffff168160020160009054906101000a900473ffffffffffffffffffffffffffffffffffffffff1673ffffffffffffffffffffffffffffffffffffffff1614610469576040517f08c379a0000000000000000000000000000000000000000000000000000000008152600401610460906125af565b60405180910390fd5b6000600381111561047d5761047c611fa0565b5b8160050160009054906101000a900460ff1660038111156104a1576104a0611fa0565b5b146104e1576040517f08c379a00000000000000000000000000000000000000000000000000000000081526004016104d89061261b565b60405180910390fd5b8060010160009054906101000a900473ffffffffffffffffffffffffffffffffffffffff1673ffffffffffffffffffffffffffffffffffffffff1660008054906101000a900473ffffffffffffffffffffffffffffffffffffffff1673ffffffffffffffffffffffffffffffffffffffff16636352211e83600301546040518263ffffffff1660e01b81526004016105799190611f3a565b602060405180830381865afa158015610596573d6000803e3d6000fd5b505050506040513d601f19601f820116820180604052508101906105ba9190612650565b73ffffffffffffffffffffffffffffffffffffffff1614610610576040517f08c379a0000000000000000000000000000000000000000000000000000000008152600401610607906126c9565b60405180910390fd5b8060020160009054906101000a900473ffffffffffffffffffffffffffffffffffffffff1673ffffffffffffffffffffffffffffffffffffffff1660008054906101000a900473ffffffffffffffffffffffffffffffffffffffff1673ffffffffffffffffffffffffffffffffffffffff16636352211e83600401546040518263ffffffff1660e01b81526004016106a89190611f3a565b602060405180830381865afa1580156106c5573d6000803e3d6000fd5b505050506040513d601f19601f820116820180604052508101906106e99190612650565b73ffffffffffffffffffffffffffffffffffffffff161461073f576040517f08c379a000000000000000000000000000000000000000000000000000000000815260040161073690612735565b60405180910390fd5b60008054906101000a900473ffffffffffffffffffffffffffffffffffffffff1673ffffffffffffffffffffffffffffffffffffffff166323b872dd8260010160009054906101000a900473ffffffffffffffffffffffffffffffffffffffff168360020160009054906101000a900473ffffffffffffffffffffffffffffffffffffffff1684600301546040518463ffffffff1660e01b81526004016107e893929190612755565b600060405180830381600087803b15801561080257600080fd5b505af1158015610816573d6000803e3d6000fd5b5050505060008054906101000a900473ffffffffffffffffffffffffffffffffffffffff1673ffffffffffffffffffffffffffffffffffffffff166323b872dd8260020160009054906101000a900473ffffffffffffffffffffffffffffffffffffffff168360010160009054906101000a900473ffffffffffffffffffffffffffffffffffffffff1684600401546040518463ffffffff1660e01b81526004016108c393929190612755565b600060405180830381600087803b1580156108dd57600080fd5b505af11580156108f1573d6000803e3d6000fd5b5050505060018160050160006101000a81548160ff0219169083600381111561091d5761091c611fa0565b5b02179055504281600701819055506005600082600301548152602001908152602001600020600090556005600082600401548152602001908152602001600020600090558060020160009054906101000a900473ffffffffffffffffffffffffffffffffffffffff1673ffffffffffffffffffffffffffffffffffffffff168160010160009054906101000a900473ffffffffffffffffffffffffffffffffffffffff1673ffffffffffffffffffffffffffffffffffffffff16837fd547b37a8db71b88bf4a1ffc079ebde994fd90e5aa9adc8c603eaf8613191cde84600301548560040154604051610a1192919061278c565b60405180910390a45050565b610a25611dcf565b6000600260008481526020019081526020016000206000015403610a7e576040517f08c379a0000000000000000000000000000000000000000000000000000000008152600401610a7590612543565b60405180910390fd5b6002600083815260200190815260200160002060405180610100016040529081600082015481526020016001820160009054906101000a900473ffffffffffffffffffffffffffffffffffffffff1673ffffffffffffffffffffffffffffffffffffffff1673ffffffffffffffffffffffffffffffffffffffff1681526020016002820160009054906101000a900473ffffffffffffffffffffffffffffffffffffffff1673ffffffffffffffffffffffffffffffffffffffff1673ffffffffffffffffffffffffffffffffffffffff16815260200160038201548152602001600482015481526020016005820160009054906101000a900460ff166003811115610b8c57610b8b611fa0565b5b6003811115610b9e57610b9d611fa0565b5b8152602001600682015481526020016007820154815250509050919050565b60006002600083815260200190815260200160002090506000816000015403610c1b576040517f08c379a0000000000000000000000000000000000000000000000000000000008152600401610c1290612543565b60405180910390fd5b3373ffffffffffffffffffffffffffffffffffffffff168160010160009054906101000a900473ffffffffffffffffffffffffffffffffffffffff1673ffffffffffffffffffffffffffffffffffffffff1614610cad576040517f08c379a0000000000000000000000000000000000000000000000000000000008152600401610ca490612801565b60405180910390fd5b60006003811115610cc157610cc0611fa0565b5b8160050160009054906101000a900460ff166003811115610ce557610ce4611fa0565b5b14610d25576040517f08c379a0000000000000000000000000000000000000000000000000000000008152600401610d1c9061261b565b60405180910390fd5b60028160050160006101000a81548160ff02191690836003811115610d4d57610d4c611fa0565b5b02179055504281600701819055506005600082600301548152602001908152602001600020600090556005600082600401548152602001908152602001600020600090553373ffffffffffffffffffffffffffffffffffffffff16827fc9660176d761dbcab77c697281268e30dffb9a42cafafcbe4e3a58fc44496e3260405160405180910390a35050565b60046020528160005260406000208181548110610df557600080fd5b90600052602060002001600091509150505481565b600080600560008481526020019081526020016000205414159050919050565b6060600360008373ffffffffffffffffffffffffffffffffffffffff1673ffffffffffffffffffffffffffffffffffffffff168152602001908152602001600020805480602002602001604051908101604052809291908181526020018280548015610eb557602002820191906000526020600020905b815481526020019060010190808311610ea1575b50505050509050919050565b60008054906101000a900473ffffffffffffffffffffffffffffffffffffffff1681565b60606000600460008473ffffffffffffffffffffffffffffffffffffffff1673ffffffffffffffffffffffffffffffffffffffff168152602001908152602001600020805480602002602001604051908101604052809291908181526020018280548015610f7257602002820191906000526020600020905b815481526020019060010190808311610f5e575b505050505090506000805b825181101561100b5760006003811115610f9a57610f99611fa0565b5b60026000858481518110610fb157610fb0612821565b5b6020026020010151815260200190815260200160002060050160009054906101000a900460ff166003811115610fea57610fe9611fa0565b5b03610ffe578180610ffa9061287f565b9250505b8080600101915050610f7d565b5060008167ffffffffffffffff811115611028576110276128c7565b5b60405190808252806020026020018201604052801561106157816020015b61104e611dcf565b8152602001906001900390816110465790505b5090506000805b8451811015611266576000600381111561108557611084611fa0565b5b6002600087848151811061109c5761109b612821565b5b6020026020010151815260200190815260200160002060050160009054906101000a900460ff1660038111156110d5576110d4611fa0565b5b0361125957600260008683815181106110f1576110f0612821565b5b6020026020010151815260200190815260200160002060405180610100016040529081600082015481526020016001820160009054906101000a900473ffffffffffffffffffffffffffffffffffffffff1673ffffffffffffffffffffffffffffffffffffffff1673ffffffffffffffffffffffffffffffffffffffff1681526020016002820160009054906101000a900473ffffffffffffffffffffffffffffffffffffffff1673ffffffffffffffffffffffffffffffffffffffff1673ffffffffffffffffffffffffffffffffffffffff16815260200160038201548152602001600482015481526020016005820160009054906101000a900460ff16600381111561120257611201611fa0565b5b600381111561121457611213611fa0565b5b81526020016006820154815260200160078201548152505083838151811061123f5761123e612821565b5b602002602001018190525081806112559061287f565b9250505b8080600101915050611068565b5081945050505050919050565b600060026000838152602001908152602001600020905060008160000154036112d1576040517f08c379a00000000000000000000000000000000000000000000000000000000081526004016112c890612543565b60405180910390fd5b3373ffffffffffffffffffffffffffffffffffffffff168160020160009054906101000a900473ffffffffffffffffffffffffffffffffffffffff1673ffffffffffffffffffffffffffffffffffffffff1614611363576040517f08c379a000000000000000000000000000000000000000000000000000000000815260040161135a906125af565b60405180910390fd5b6000600381111561137757611376611fa0565b5b8160050160009054906101000a900460ff16600381111561139b5761139a611fa0565b5b146113db576040517f08c379a00000000000000000000000000000000000000000000000000000000081526004016113d29061261b565b60405180910390fd5b60038160050160006101000a81548160ff0219169083600381111561140357611402611fa0565b5b02179055504281600701819055506005600082600301548152602001908152602001600020600090556005600082600401548152602001908152602001600020600090553373ffffffffffffffffffffffffffffffffffffffff16827f362e438ec63e2c0b7704638c7d94422a2aeba36a3a026f888f646518987494e560405160405180910390a35050565b60056020528060005260406000206000915090505481565b60008073ffffffffffffffffffffffffffffffffffffffff168273ffffffffffffffffffffffffffffffffffffffff1603611517576040517f08c379a000000000000000000000000000000000000000000000000000000000815260040161150e90612942565b60405180910390fd5b3373ffffffffffffffffffffffffffffffffffffffff168273ffffffffffffffffffffffffffffffffffffffff1603611585576040517f08c379a000000000000000000000000000000000000000000000000000000000815260040161157c906129ae565b60405180910390fd5b3373ffffffffffffffffffffffffffffffffffffffff1660008054906101000a900473ffffffffffffffffffffffffffffffffffffffff1673ffffffffffffffffffffffffffffffffffffffff16636352211e866040518263ffffffff1660e01b81526004016115f59190611f3a565b602060405180830381865afa158015611612573d6000803e3d6000fd5b505050506040513d601f19601f820116820180604052508101906116369190612650565b73ffffffffffffffffffffffffffffffffffffffff161461168c576040517f08c379a000000000000000000000000000000000000000000000000000000000815260040161168390612a1a565b60405180910390fd5b8173ffffffffffffffffffffffffffffffffffffffff1660008054906101000a900473ffffffffffffffffffffffffffffffffffffffff1673ffffffffffffffffffffffffffffffffffffffff16636352211e856040518263ffffffff1660e01b81526004016116fc9190611f3a565b602060405180830381865afa158015611719573d6000803e3d6000fd5b505050506040513d601f19601f8201168201806040525081019061173d9190612650565b73ffffffffffffffffffffffffffffffffffffffff1614611793576040517f08c379a000000000000000000000000000000000000000000000000000000000815260040161178a90612a86565b60405180910390fd5b60006005600086815260200190815260200160002054146117e9576040517f08c379a00000000000000000000000000000000000000000000000000000000081526004016117e090612af2565b60405180910390fd5b60008054906101000a900473ffffffffffffffffffffffffffffffffffffffff1673ffffffffffffffffffffffffffffffffffffffff16631b5e26bc336040518263ffffffff1660e01b81526004016118429190612b12565b602060405180830381865afa15801561185f573d6000803e3d6000fd5b505050506040513d601f19601f820116820180604052508101906118839190612b59565b6118c2576040517f08c379a00000000000000000000000000000000000000000000000000000000081526004016118b990612bd2565b60405180910390fd5b60008054906101000a900473ffffffffffffffffffffffffffffffffffffffff1673ffffffffffffffffffffffffffffffffffffffff16631b5e26bc836040518263ffffffff1660e01b815260040161191b9190612b12565b602060405180830381865afa158015611938573d6000803e3d6000fd5b505050506040513d601f19601f8201168201806040525081019061195c9190612b59565b61199b576040517f08c379a000000000000000000000000000000000000000000000000000000000815260040161199290612c3e565b60405180910390fd5b60006001600081546119ac9061287f565b91905081905590506040518061010001604052808281526020013373ffffffffffffffffffffffffffffffffffffffff1681526020018473ffffffffffffffffffffffffffffffffffffffff16815260200186815260200185815260200160006003811115611a1e57611a1d611fa0565b5b81526020014281526020016000815250600260008381526020019081526020016000206000820151816000015560208201518160010160006101000a81548173ffffffffffffffffffffffffffffffffffffffff021916908373ffffffffffffffffffffffffffffffffffffffff16021790555060408201518160020160006101000a81548173ffffffffffffffffffffffffffffffffffffffff021916908373ffffffffffffffffffffffffffffffffffffffff160217905550606082015181600301556080820151816004015560a08201518160050160006101000a81548160ff02191690836003811115611b1857611b17611fa0565b5b021790555060c0820151816006015560e08201518160070155905050600360003373ffffffffffffffffffffffffffffffffffffffff1673ffffffffffffffffffffffffffffffffffffffff168152602001908152602001600020819080600181540180825580915050600190039060005260206000200160009091909190915055600460008473ffffffffffffffffffffffffffffffffffffffff1673ffffffffffffffffffffffffffffffffffffffff1681526020019081526020016000208190806001815401808255809150506001900390600052602060002001600090919091909150558060056000878152602001908152602001600020819055508060056000868152602001908152602001600020819055508273ffffffffffffffffffffffffffffffffffffffff163373ffffffffffffffffffffffffffffffffffffffff16827f0914f7b693cdfc562059f0539c8160bba83a572136eeb07e86852918bd922e398888604051611c9092919061278c565b60405180910390a4809150509392505050565b6060600460008373ffffffffffffffffffffffffffffffffffffffff1673ffffffffffffffffffffffffffffffffffffffff168152602001908152602001600020805480602002602001604051908101604052809291908181526020018280548015611d2e57602002820191906000526020600020905b815481526020019060010190808311611d1a575b50505050509050919050565b60026020528060005260406000206000915090508060000154908060010160009054906101000a900473ffffffffffffffffffffffffffffffffffffffff16908060020160009054906101000a900473ffffffffffffffffffffffffffffffffffffffff16908060030154908060040154908060050160009054906101000a900460ff16908060060154908060070154905088565b60405180610100016040528060008152602001600073ffffffffffffffffffffffffffffffffffffffff168152602001600073ffffffffffffffffffffffffffffffffffffffff168152602001600081526020016000815260200160006003811115611e3e57611e3d611fa0565b5b815260200160008152602001600081525090565b600080fd5b600073ffffffffffffffffffffffffffffffffffffffff82169050919050565b6000611e8282611e57565b9050919050565b611e9281611e77565b8114611e9d57600080fd5b50565b600081359050611eaf81611e89565b92915050565b6000819050919050565b611ec881611eb5565b8114611ed357600080fd5b50565b600081359050611ee581611ebf565b92915050565b60008060408385031215611f0257611f01611e52565b5b6000611f1085828601611ea0565b9250506020611f2185828601611ed6565b9150509250929050565b611f3481611eb5565b82525050565b6000602082019050611f4f6000830184611f2b565b92915050565b600060208284031215611f6b57611f6a611e52565b5b6000611f7984828501611ed6565b91505092915050565b611f8b81611eb5565b82525050565b611f9a81611e77565b82525050565b7f4e487b7100000000000000000000000000000000000000000000000000000000600052602160045260246000fd5b60048110611fe057611fdf611fa0565b5b50565b6000819050611ff182611fcf565b919050565b600061200182611fe3565b9050919050565b61201181611ff6565b82525050565b6101008201600082015161202e6000850182611f82565b5060208201516120416020850182611f91565b5060408201516120546040850182611f91565b5060608201516120676060850182611f82565b50608082015161207a6080850182611f82565b5060a082015161208d60a0850182612008565b5060c08201516120a060c0850182611f82565b5060e08201516120b360e0850182611f82565b50505050565b6000610100820190506120cf6000830184612017565b92915050565b60008115159050919050565b6120ea816120d5565b82525050565b600060208201905061210560008301846120e1565b92915050565b60006020828403121561212157612120611e52565b5b600061212f84828501611ea0565b91505092915050565b600081519050919050565b600082825260208201905092915050565b6000819050602082019050919050565b60006121708383611f82565b60208301905092915050565b6000602082019050919050565b600061219482612138565b61219e8185612143565b93506121a983612154565b8060005b838110156121da5781516121c18882612164565b97506121cc8361217c565b9250506001810190506121ad565b5085935050505092915050565b600060208201905081810360008301526122018184612189565b905092915050565b6000819050919050565b600061222e61222961222484611e57565b612209565b611e57565b9050919050565b600061224082612213565b9050919050565b600061225282612235565b9050919050565b61226281612247565b82525050565b600060208201905061227d6000830184612259565b92915050565b600081519050919050565b600082825260208201905092915050565b6000819050602082019050919050565b610100820160008201516122c66000850182611f82565b5060208201516122d96020850182611f91565b5060408201516122ec6040850182611f91565b5060608201516122ff6060850182611f82565b5060808201516123126080850182611f82565b5060a082015161232560a0850182612008565b5060c082015161233860c0850182611f82565b5060e082015161234b60e0850182611f82565b50505050565b600061235d83836122af565b6101008301905092915050565b6000602082019050919050565b600061238282612283565b61238c818561228e565b93506123978361229f565b8060005b838110156123c85781516123af8882612351565b97506123ba8361236a565b92505060018101905061239b565b5085935050505092915050565b600060208201905081810360008301526123ef8184612377565b905092915050565b6000806000606084860312156124105761240f611e52565b5b600061241e86828701611ed6565b935050602061242f86828701611ed6565b925050604061244086828701611ea0565b9150509250925092565b61245381611e77565b82525050565b61246281611ff6565b82525050565b60006101008201905061247e600083018b611f2b565b61248b602083018a61244a565b612498604083018961244a565b6124a56060830188611f2b565b6124b26080830187611f2b565b6124bf60a0830186612459565b6124cc60c0830185611f2b565b6124d960e0830184611f2b565b9998505050505050505050565b600082825260208201905092915050565b7f5377617020646f6573206e6f7420657869737400000000000000000000000000600082015250565b600061252d6013836124e6565b9150612538826124f7565b602082019050919050565b6000602082019050818103600083015261255c81612520565b9050919050565b7f4e6f742074686520746172676574206f66207468697320737761700000000000600082015250565b6000612599601b836124e6565b91506125a482612563565b602082019050919050565b600060208201905081810360008301526125c88161258c565b9050919050565b7f53776170206973206e6f742070656e64696e6700000000000000000000000000600082015250565b60006126056013836124e6565b9150612610826125cf565b602082019050919050565b60006020820190508181036000830152612634816125f8565b9050919050565b60008151905061264a81611e89565b92915050565b60006020828403121561266657612665611e52565b5b60006126748482850161263b565b91505092915050565b7f50726f706f736572206e6f206c6f6e676572206f776e7320746865204e465400600082015250565b60006126b3601f836124e6565b91506126be8261267d565b602082019050919050565b600060208201905081810360008301526126e2816126a6565b9050919050565b7f596f75206e6f206c6f6e676572206f776e20746865204e465400000000000000600082015250565b600061271f6019836124e6565b915061272a826126e9565b602082019050919050565b6000602082019050818103600083015261274e81612712565b9050919050565b600060608201905061276a600083018661244a565b612777602083018561244a565b6127846040830184611f2b565b949350505050565b60006040820190506127a16000830185611f2b565b6127ae6020830184611f2b565b9392505050565b7f4e6f74207468652070726f706f73657200000000000000000000000000000000600082015250565b60006127eb6010836124e6565b91506127f6826127b5565b602082019050919050565b6000602082019050818103600083015261281a816127de565b9050919050565b7f4e487b7100000000000000000000000000000000000000000000000000000000600052603260045260246000fd5b7f4e487b7100000000000000000000000000000000000000000000000000000000600052601160045260246000fd5b600061288a82611eb5565b91507fffffffffffffffffffffffffffffffffffffffffffffffffffffffffffffffff82036128bc576128bb612850565b5b600182019050919050565b7f4e487b7100000000000000000000000000000000000000000000000000000000600052604160045260246000fd5b7f496e76616c696420746172676574206164647265737300000000000000000000600082015250565b600061292c6016836124e6565b9150612937826128f6565b602082019050919050565b6000602082019050818103600083015261295b8161291f565b9050919050565b7f43616e6e6f742073776170207769746820796f757273656c6600000000000000600082015250565b60006129986019836124e6565b91506129a382612962565b602082019050919050565b600060208201905081810360008301526129c78161298b565b9050919050565b7f596f7520646f6e2774206f776e2074686973204e465400000000000000000000600082015250565b6000612a046016836124e6565b9150612a0f826129ce565b602082019050919050565b60006020820190508181036000830152612a33816129f7565b9050919050565b7f54617267657420646f65736e2774206f776e20746865204e4654000000000000600082015250565b6000612a70601a836124e6565b9150612a7b82612a3a565b602082019050919050565b60006020820190508181036000830152612a9f81612a63565b9050919050565b7f4e465420616c726561647920696e206163746976652073776170000000000000600082015250565b6000612adc601a836124e6565b9150612ae782612aa6565b602082019050919050565b60006020820190508181036000830152612b0b81612acf565b9050919050565b6000602082019050612b27600083018461244a565b92915050565b612b36816120d5565b8114612b4157600080fd5b50565b600081519050612b5381612b2d565b92915050565b600060208284031215612b6f57612b6e611e52565b5b6000612b7d84828501612b44565b91505092915050565b7f596f757220696e76656e746f72792069732066756c6c00000000000000000000600082015250565b6000612bbc6016836124e6565b9150612bc782612b86565b602082019050919050565b60006020820190508181036000830152612beb81612baf565b9050919050565b7f54617267657420696e76656e746f72792069732066756c6c0000000000000000600082015250565b6000612c286018836124e6565b9150612c3382612bf2565b602082019050919050565b60006020820190508181036000830152612c5781612c1b565b905091905056fea2646970667358221220ac05a3862883f83e83311330c3a716cea5df820817b65f05f52ef3f2c6c0f1b564736f6c634300081c0033",
  "linkReferences": {},
  "deployedLinkReferences": {}
}